:107000000C947B380C94C3380C9498380C949838B2
:107010000C9498380C9498380C9498380C949838B0
:107020000C9498380C9498380C9498380C949838A0
:107030000C9498380C9498380C9498380C94983890
:107040000C9498380C9498380C9498380C94983880
:107050000C9498380C9498380C9498380C94983870
:107060000C9498380C949838040309040E034400D7
:1070700046003400490041004800480342006F00C8
:107080006F0074006C006F006100640065007200A6
:10709000200066006F0072002000440046003400AB
:1070A0004900410048002D00310030004D004800EB
:1070B0007A002D005200650066002D004F0073001D
:1070C00063001003500072006F0074006F002D0009
:1070D000310012011001FF000008C016DC0500019C
:1070E0000102030109021200010100806909040084
:1070F00000000000000011241FBECFEFD8E0DEBF6B
:10710000CDBF11E0A0E0B1E0E2E7F7E702C00590F3
:107110000D92A230B107D9F711E0A2E0B1E001C0B1
:107120001D92A036B107E1F70E94263B0C94B73BB5
:107130000C940038A82FB92F8FEF9FEF1BC02D9113
:107140008227282F22952827722F269526952727D4
:10715000239526952170782F892F82272195207CD1
:10716000922F222776952795972782277695279520
:1071700097278227615018F7809590950895DADF58
:107180008D939D930895CF93CFB7CF93DF93C395FE
:10719000339BE9F7339B19C0339B17C0339B15C052
:1071A000339B13C0339B11C0339B0FC0339B0DC067
:1071B000339B0BC0339B09C0C0911B01C395C09387
:1071C0001B01C6B5C093050181C06F93C0911A0120
:1071D000DD27CE5DDE4F2F9320E400C065E0339BBA
:1071E00003C02F916F91D6CF0F931F934F9345E517
:1071F0005F9355E53F933BE014E006B10C702EC061
:107200006A95C9F03150D8F106B10C7001130BC06A
:1072100008942795299320E4555500F46A9569F759
:1072200001E066B10BC0102F66E02695299320E49B
:10723000555518F3E2CF0FEF66B10000162F4555F4
:1072400000F0404066E01C700030E2F221F00000E7
:1072500006B10C7003C006B10C70A9F0011309C08F
:107260000894279568F200C06A95A9F700E066B116
:10727000E5CF102F66E0269528F20000ECCF11E054
:107280001CBB002717C03B503195C31BD04011E0F9
:107290001CBB0881033CF9F00B34E9F02091180184
:1072A0001981110F1213EDCF093651F10D3211F082
:1072B000013E39F7009320013F915F914F911F915B
:1072C0000F912F916F91CCB3C0FD61CFDF91CF9122
:1072D000CFBFCF91189520912001222369F31091FF
:1072E0001E01112329F534302AF130931E01209319
:1072F000190110911A013BE0311B30931A011AC099
:1073000000911E010130A4F40AE53091000134FD22
:1073100012C000930001CDE0D1E011C0052710E0BC
:1073200000C008B919C0052710E0221F00C01DC009
:107330004AE502C032ED432FC4E1D0E032E017B19C
:107340001C60439A08B117B95CE020E869E420FFAB
:10735000052708B92795179500C000001C3FF0F6D7
:107360006695A8F7A1F720FF052708B92795179577
:1073700000001C3FC0F629913A9541F7037F109118
:107380001F01110F08B9C651D04011F01093180118
:1073900011E01CBB086017B1137F402F437F55E0FD
:1073A0005A95F1F708B917B948B986CFE9E6F0E080
:1073B000808182608083E89A08951F93CF93DF9342
:1073C00060911E01635067FDD3C080911A01CCE02B
:1073D000D0E0C81BD109CE5DDE4F809119018D32FE
:1073E00009F0B3C0683009F0C1C083EC80930D018F
:1073F0008AE580930001109202019881892F80769E
:1074000041F0CE010E94003E282F8F3F09F48CC02E
:1074100092C02A813C81109216018981882391F4BF
:107420009F71923049F4313839F4809138018E31AE
:1074300019F481E0809316011092170186E191E022
:1074400022E06DC0813011F0833071F4222309F005
:1074500063C0313809F060C0813011F08EE101C0A5
:107460008AE58093380158C0853019F420931F01B4
:1074700053C0863009F040C08B81813019F482ED11
:1074800090E704C0823041F484EE90E790931D01B0
:1074900080931C0122E12CC0833049F58A81882326
:1074A00041F488E690E790931D0180931C0124E04D
:1074B0001FC0813041F48CE690E790931D018093CA
:1074C0001C012EE015C0823041F48AE790E79093CA
:1074D0001D0180931C0128E40BC0833041F482EC31
:1074E00090E790931D0180931C0120E101C020E0F2
:1074F00080E4809302011FC0883019F481E291E09A
:1075000009C0893019F42093210106C08A3021F482
:1075100086E191E021E003C086E191E020E09093D4
:107520001D0180931C0107C0888187FD2E8180E8A2
:107530008093020106C08F81882319F48E818217FF
:1075400008F0822F8093010111C08091020187FF12
:107550000DC0CE010E94373F8F3F21F48EE1809312
:10756000000104C0882311F01092010110921E0145
:107570008091000184FF56C0809101018F3F09F482
:1075800051C0182F893008F018E0811B8093010149
:1075900080910D0198E8892780930D01112379F1DD
:1075A0008091020187FF09C08EE091E0612F0E9467
:1075B000793F182F893080F522C020911C0130912D
:1075C0001D0186FF0AC0912FF901AEE0B1E0849160
:1075D0008D9331969150D9F708C0912FD901EEE0E3
:1075E000F1E08D9181939150E1F7C901019611501D
:1075F000810F911D1F5F90931D0180931C018EE0F0
:1076000091E0612F0E94BF38612F6C5F6C3041F0B8
:107610008FEF8093010104C08FEF809301016EE131
:107620006093000194E186B18C7031F49150D9F7E8
:1076300010921F0110921801DF91CF911F910895B0
:10764000A8950E94DD390E94DE3B0895BF92CF923B
:10765000DF92EF92FF920F931F93DF93CF9300D0AF
:1076600000D0CDB7DEB7F894F89481E085BF82E012
:1076700085BF8FEE8093640080B7806880BF809163
:107680007F00836080937F0085B78F7E85BF88E110
:10769000B82E6E010894C11CD11C8E010D5F1F4FC6
:1076A000EE24EA94FE2C0FB6F894B092600010928B
:1076B00060000FBE0E94583C1A821982C60162E027
:1076C0004AEF53E00E94C53D89819A818F50904BCB
:1076D000E1F01C821B82C80162E020E030E040E063
:1076E00050E00E94943C809106018823B1F48B8184
:1076F0009C818C50944989F40E94703CF894E091EC
:107700000301F0910401099508C0FC82EB82C801D5
:1077100062E04AEF53E00E94A43D0E94C03B0E94F9
:10772000B43F10920701789402C00E94203B8091E0
:1077300007018823D1F3F8940E94FC3D0E94D03BBE
:10774000B2CFF999FECF92BD81BDF89A992780B545
:107750000895262FF999FECF1FBA92BD81BD20BD95
:107760000FB6F894FA9AF99A0FBE01960895F89414
:02777000FFCF49
:027772005AFFBC
:10778000E4E6F0E080818F7D808316BC8AEB88BDC3
:1077900083E284BD81E085BD559A459A3D9A08955E
:1077A0003D98559815BC14BC18BC16BCE4E6F0E036
:1077B000808180628083089588BD089580E286B9C3
:1077C000089540E228E833E146B9C9010197F1F78D
:0477D000A895FACFAF
:1078B00085B78F7E85BF53985B9A2AE048E853E1ED
:1078C00004C0A895CA010197F1F72150D1F789B1F9
:1078D000869586958695809581708093060108959A
:1078E0005B98089589B18695869586958095817077
:0278F0000895F9
:10790000E0E0F0E083E080935700E89507B600FCE4
:10791000FDCFE058FF4F90E7E030F907A1F781E194
:1079200080935700E895089570E01FC02F3FEFE661
:107930003E07E0E04E07E0E05E0718F0AFEFBFEF74
:1079400003C0F901A591B491FC01E70FF11DA083DB
:10795000613069F07F5FFC01E70FF11DB0837F5F4D
:107960002E5F3F4F4F4F5F4F62506623F9F60895E9
:107970002F923F924F925F926F927F928F929F923F
:10798000AF92BF92CF92DF92EF92FF920F931F932D
:10799000DF93CF9300D000D000D0CDB7DEB79B836C
:1079A0008A836C8359016A011982B1C07A2D7F776D
:1079B0008C81282F30E040E050E08FEF9FE6A0E080
:1079C000B0E08A199B09AC09BD0982179307A40787
:1079D000B50710F49C01AD0180E890E0871B910988
:1079E0007C010027F7FC0095102FE216F306040730
:1079F000150710F4A8019701622F9FEFA9169FE6C3
:107A0000B90690E0C90690E0D90608F084C02501C7
:107A10003601471A510861087108772309F058C0E8
:107A200023E0F20120935700E89507B600FCFDCF54
:107A30004FC0C9018E0D9F1DF801908180FF0EC0BF
:107A4000B070992E8824A829B929FA01EE7F81E027
:107A50000D0180935700E895112403C0A92FB0E0D1
:107A6000BF6F2F5F3F4F0F5F1F4F4F5F5F4F261757
:107A700000F325E0F20120935700E89507B600FCDB
:107A8000FDCF81E180935700E895870120E030E049
:107A90001CC0F801EE7FA591B491C9018E0D9F1D08
:107AA00080FD03C040E050E002C048E050E0F1013A
:107AB00081911F012F5F3F4F0F5F1F4F02C0B6958F
:107AC000A7954A95E2F78A1761F4261710F315C0B7
:107AD00075E08A819B81E9818E0F911D9E838D8344
:107AE000750171507F3F49F02D803E808101A701D3
:107AF000AFEFBFEF20E030E0BACFA60EB11CC11C43
:107B0000D11CFC81F61BFC832981260F29838C81E3
:107B1000882309F04BCF26960FB6F894DEBF0FBE30
:107B2000CDBFCF91DF911F910F91FF90EF90DF902C
:107B3000CF90BF90AF909F908F907F906F905F900D
:107B40004F903F902F900895DF92EF92FF920F9306
:107B50001F93CF93DF937C01D62E8A01C0E0D0E043
:107B60000AC0F701EC0FFD1FC80160810E94A93B0C
:107B70000F5F1F4F2196DC16A1F7DF91CF911F9168
:107B80000F91FF90EF90DF900895FF920F931F9356
:107B9000CF93DF93F62EEA018C0108C0CE01219627
:107BA0000E94A13BF80181938F01FA94FF20B1F765
:0C7BB000DF91CF911F910F91FF9008957D
:107BE000DC01FB0182818C93838111968C93119728
:107BF000848112968C930895E89821982998089585
:107C0000CF93DF93EC012981213029F420930801DF
:107C100010920A011FC1223059F41092080180917C
:107C20000601882309F016C181E08093070112C183
:107C3000233009F058C02A813B812033310591F46B
:107C40008C81833008F03DC080E591E0BE010E9448
:107C5000F03DEC81F0E0EE0FFF1F81E280935700D2
:107C600084913EC02035310561F480E591E0BE018C
:107C70000E94F03DE0E0F0E089E0809357008491BD
:107C80002FC088E02835380761F480E591E0BE0117
:107C90000E94F03DE3E0F0E089E08093570084919A
:107CA0001FC088E02035380761F480E591E0BE010F
:107CB0000E94F03DE2E0F0E089E08093570084917B
:107CC0000FC02835310509F0C5C080E591E0BE013F
:107CD0000E94F03DE1E0F0E089E08093570084915C
:107CE00080935301B5C0243011F0273019F58091ED
:107CF0000801882309F4AEC080910A01882361F449
:107D00008A819B81A0E0B0E08093590190935A0151
:107D1000A0935B01B0935C018E819F8190930C01D5
:107D200080930B01243011F083E001C082E0809346
:107D3000090192C0253061F480910801813021F45D
:107D400082E08093080170C081E0809350016EC092
:107D5000263019F0283009F049C08091080182309E
:107D600009F078C080910A01882361F48A819B819F
:107D7000A0E0B0E08093590190935A01A0935B0179
:107D8000B0935C01263011F52D812F7020935D0199
:107D90008C81482F50E080915E0190915F01482BCB
:107DA000592B8D8190E0807F907034E0880F991F6F
:107DB0003A95E1F7482B592B50935F0140935E01B0
:107DC00020FF02C04093580181E007C010925F017C
:107DD00010925E0110925D0184E0809309018E8112
:107DE0009F8190930C0180930B0136C02930A1F440
:107DF00080910801882371F181E080930A018A81D2
:107E00009B81A0E0B0E08093590190935A01A09328
:107E10005B01B0935C011EC02A3031F02B30D1F0F1
:107E20002C30C1F02D3021F41092500121E015C00A
:107E30002E3081F02F3081F0203171F02F3751F446
:107E40001092500110925101109252011092530160
:107E500024E003C020E001C02FEF80E591E0909383
:107E60001D0180931C01822FDF91CF9108951F93F4
:107E7000162F20910901213021F0243069F08FEF75
:107E800036C02091590130915A0140915B015091C7
:107E90005C010E94B83C06C04091590150915A01C2
:107EA0000E94A43D8091590190915A01A0915B01DB
:107EB000B0915C01810F911DA11DB11D80935901ED
:107EC00090935A01A0935B01B0935C0180910B01E8
:107ED00090910C01811B910990930C0180930B01EF
:107EE000892B11F080E003C01092090181E01F91FD
:107EF00008951F93FC01162F20910901822F8250B3
:107F0000823010F01FEF2DC0223061F42091590112
:107F100030915A0140915B0150915C01CF010E9468
:107F2000943C07C04091590150915A01CF010E94E1
:107F3000C53D8091590190915A01A0915B01B0918A
:107F40005C01810F911DA11DB11D8093590190937A
:107F50005A01A0935B01B0935C01183010F41092A9
:107F60000901812F1F9108950E94D639E898219820
:107F700029982AEF48E853E104C0CA010197F1F7B4
:0E7F8000A8952150D1F7219A299AE89A0895E0
:040000030000700089
:00000001FF
