S01C00004446344941485F426F6F746C6F616465725F46572E7372656312
S11370000C947B380C94C3380C9498380C949838AE
S11370100C9498380C9498380C9498380C949838AC
S11370200C9498380C9498380C9498380C9498389C
S11370300C9498380C9498380C9498380C9498388C
S11370400C9498380C9498380C9498380C9498387C
S11370500C9498380C9498380C9498380C9498386C
S11370600C9498380C94983809021200010100809D
S11370706909040000000000000012011001FF0073
S11370800008C016DC0500010102030110035000D2
S113709072006F0074006F002D003100480342003D
S11370A06F006F0074006C006F0061006400650085
S11370B07200200066006F00720020004400460049
S11370C034004900410048002D00310030004D00DB
S11370D048007A002D005200650066002D004F0024
S11370E0730063000E03440046003400490041006D
S11370F048000403090411241FBECFEFD8E0DEBF0B
S1137100CDBF11E0A0E0B1E0ECE4F7E702C00590E8
S11371100D92A230B107D9F721E0A2E0B1E001C09D
S11371201D92A036B207E1F70E94DB390C94A43B10
S11371300C940038A82FB92F8FEF9FEF1BC02D910F
S11371408227282F22952827722F269526952727D0
S1137150239526952170782F892F82272195207CCD
S1137160922F22277695279597278227769527951C
S113717097278227615018F7809590950895DADF54
S11371808D939D930895CF93CFB7CF93DF93C395FA
S1137190339BE9F7339B19C0339B17C0339B15C04E
S11371A0339B13C0339B11C0339B0FC0339B0DC063
S11371B0339B0BC0339B09C0C0914301C395C0935B
S11371C04301C6B5C093040181C06F93C0914201CD
S11371D0DD27C65BDE4F2F9320E400C065E0339BC0
S11371E003C02F916F91D6CF0F931F934F9345E513
S11371F05F9355E53F933BE014E006B10C702EC05D
S11372006A95C9F03150D8F106B10C7001130BC066
S113721008942795299320E4555500F46A9569F755
S113722001E066B10BC0102F66E02695299320E497
S1137230555518F3E2CF0FEF66B10000162F4555F0
S113724000F0404066E01C700030E2F221F00000E3
S113725006B10C7003C006B10C70A9F0011309C08B
S11372600894279568F200C06A95A9F700E066B112
S1137270E5CF102F66E0269528F20000ECCF11E050
S11372801CBB002717C03B503195C31BD04011E0F5
S11372901CBB0881033CF9F00B34E9F02091400158
S11372A01981110F1213EDCF093651F10D3211F07E
S11372B0013E39F7009348013F915F914F911F912F
S11372C00F912F916F91CCB3C0FD61CFDF91CF911E
S11372D0CFBFCF91189520914801222369F31091D3
S11372E04601112329F534302AF1309346012093C5
S11372F04101109142013BE0311B309342011AC01D
S1137300009146010130A4F40AE53091010134FDF5
S113731012C000930101C5E3D1E011C0052710E0BC
S113732000C008B919C0052710E0221F00C01DC005
S11373304AE502C032ED432FC4E1D0E032E017B198
S11373401C60439A08B117B95CE020E869E420FFA7
S1137350052708B92795179500C000001C3FF0F6D3
S11373606695A8F7A1F720FF052708B92795179573
S113737000001C3FC0F629913A9541F7037F109114
S11373804701110F08B9C651D04011F010934001C4
S113739011E01CBB086017B1137F402F437F55E0F9
S11373A05A95F1F708B917B948B986CFA8950E943C
S11373B04B3A0C94DC3BCF93DF9300D000D0CDB795
S11373C0DEB7F894F89481E085BF82E085BF8FEE44
S11373D08093640080B7806880BF80917F00836061
S11373E080937F0085B78F7E85BF0FEF1FEF0FB6A9
S11373F0F894A89580916000886180936000109251
S113740060000FBE0E94693C1C821B824AEF53E05D
S113741062E0CE0103960E94CA3C8B819C818F302E
S1137420904BE1F01A82198220E030E0A90162E079
S1137430CE0101960E94943C80910301811117C0F2
S113744089819A818C30944991F40E94603CF8942B
S1137450E0910501F0910601099509C01A83098399
S11374604AEF53E062E0CE0101960E94CA3D0E94B9
S1137470C03B0E94FE3D109202017894809102016B
S1137480811103C00E94D639F9CFF8940E94103EAE
S11374900E94D03BACCFCF93DF9360914601635001
S11374A067FDD3C080914201CCE0D0E0C81BD10974
S11374B0C65BDE4F809141018D3209F0B4C0683063
S11374C009F0C1C083EC809335018AE58093010102
S11374D010920C012881822F807641F0CE010E9407
S11374E0143E982F8F3F09F48DC093C09A813C813C
S11374F010923E018981811113C02F71223051F401
S1137500313841F490910D0181E09E3109F080E021
S113751080933E0110923F012EE331E092E06DC072
S1137520282F2D7F213069F4911160C0313809F082
S11375305DC0813011F08EE101C08AE580930D01B8
S113754055C0853019F49093470150C0863009F036
S11375503FC08B81813019F48AE790E704C0823000
S113756041F488E690E7909345018093440192E1C9
S11375702BC0833041F5911108C082EF90E79093BE
S113758045018093440194E01FC0913041F484EE9E
S113759090E790934501809344019EE015C092309A
S11375A041F48CE990E7909345018093440198E479
S11375B00BC0933041F48CE890E79093450180939D
S11375C0440190E101C090E080E480930C0121C06B
S11375D0883081F0893019F49093490107C091E013
S11375E08A3009F090E02EE331E007C02EE331E069
S11375F090E003C029E431E091E030934501209309
S1137600440107C0888187FD9E8180E880930C0136
S113761007C08F81811104C08E81891708F4982FC7
S11376209093000110C080910C0187FF0CC0CE0123
S11376300E94AA3F8F3F21F48EE18093010103C091
S1137640811110920001109246018091010184FF82
S113765051C0809100018F3F09F44CC0C82F89307C
S113766008F0C8E08C1B809300019091350188E8F4
S1137670892780933501CC2359F130910C0137FFD0
S113768009C06C2F86E391E00E94713FC82F8930B6
S113769058F51EC080914401909145012C2F280F6C
S11376A0A6E3B1E0FC0136FF06C034913D93319668
S11376B02E13FBCF04C031913D932E13FCCF0196C2
S11376C02FEF2C0F820F911D90934501809344015D
S11376D06C2F86E391E00E94BF38CC5FCC3041F040
S11376E08FEF8093000104C08FEF80930001CEE1FF
S11376F0C093010184E196B19C7031F48150D9F7B3
S11377001092470110924001DF91CF910895E9E66C
S1137710F0E0808182608083E89A0895F999FECF31
S113772092BD81BDF89A992780B50895262FF999BD
S1137730FECF1FBA92BD81BD20BD0FB6F894FA9A50
S10F7740F99A0FBE01960895F894FFCF4B
S105774CFF5ADE
S1137780E4E6F0E080818F7D808316BC8AE588BDC5
S113779083E284BD81E085BD559A459A3D9A08955A
S11377A03D98559815BC14BC18BC16BCE4E6F0E032
S11377B0808180628083089580E286B9089580E2A2
S11177C086B996E09A95F1F700C0A895F9CF26
S11378C05B98089589B183FB882780F991E0892723
S11378D0089585B78F7E85BF53985B9A8AE081505F
S11378E031F0A89596E09A95F1F700C0F8CF0E9480
S10B78F0623C8093030108953A
S1137900E0E0F0E083E080935700E89507B600FCE0
S1137910FDCFE058FF4FE11590E7F907A1F781E1AA
S113792080935700E8950895FF920F931F93CF9388
S1137930DF93DC01922F022F132F9A0151E0591B80
S1137940402FF02EF91A6623F9F00F3F8FE618073F
S11379502105310530F4F801C591D4917C2F8D2F88
S113796002C07FEF8FEFFD01EF0DF11D70836130D9
S113797059F0450FFD01E40FF11D80830E5F1F4F89
S11379802F4F3F4F6250DCCFDF91CF911F910F916A
S1137990FF900895EF92FF920F931F93CF93DF937D
S11379A01F92CDB7DEB77C018A01081B190B662331
S11379B061F0C8018E0D9F1D69830E948E3BF70103
S11379C081937F0169816150F2CF0F90DF91CF9154
S11379D01F910F91FF90EF9008952F923F924F9235
S11379E05F926F927F928F929F92AF92BF92CF924B
S11379F0DF92EF92FF920F931F93CF93DF93CDB754
S1137A00DEB727970FB6F894DEBF0FBECDBF1C01BB
S1137A1000E0662309F4A5C0F22FFF77DA01C9015B
S1137A208F1B9109A109B10989839A83AB83BC8314
S1137A308FEF9FE6A0E0B0E0821B930BA40BB50B85
S1137A40C62ED12CE12CF12C8C159D05AE05BF055D
S1137A5010F46C017D0180E890E08F1B9109092EE0
S1137A60000CAA0BBB0B8C159D05AE05BF0510F4CD
S1137A706C017D017C2D2F3F9FE63907410551059F
S1137A8008F06FC0F1110AC093E0992EE981FA81E0
S1137A9090925700E89507B600FCFDCF16E031013F
S1137AA0600E711C522E3F83422E115009F452C0B5
S1137AB07E826D82A52DBF8153018FEF9FEFEA2F48
S1137AC0E21BE717C0F4F501A0FF0DC0908090E021
S1137AD09929FD01EE7F992493940C01909257000B
S1137AE0E895112403C0808190E09F6FFFEFAF1AE7
S1137AF0BF0A1196E4CF85E0982EE981FA8190922D
S1137B005700E89507B600FCFDCF81E1809357004C
S1137B10E89549015A01882D84198717D8F4F4018E
S1137B20EE7F8591949180FE02C0F8E001C0F0E000
S1137B30AD81BE81ED91BE83AD83BFEF8B1A9B0AED
S1137B40AB0ABB0A02C096958795FA95E2F7E81747
S1137B5011F3ABCF2C0D3D1D4E1D5F1D671B070F91
S1137B6058CF27960FB6F894DEBF0FBECDBFDF9176
S1137B70CF911F910F91FF90EF90DF90CF90BF9026
S1137B80AF909F908F907F906F905F904F903F90B9
S1137B902F900895EF92FF921F93CF93DF937C0170
S1137BA0C42FD52F162F140F1C1741F0F701619124
S1137BB07F01CE010E94963B2196F6CFDF91CF91B3
S10B7BC01F91FF90EF9008955E
S1137BE0FC01DB0112968C911297808313968C9181
S1137BF01397818314968C91828308950E94873B06
S1137C00E898219829988AEF815031F096E09A9566
S1137C10F1F700C0A895F8CF219A299AE89A089517
S1137C20E898219829980895DC0111968C91119770
S1137C30813029F480930B01109209012AC182300A
S1137C4051F410920B0180910301811122C181E052
S1137C50809302011EC1833009F07BC012968D917E
S1137C609C91139780339105D9F41496EC91149751
S1137C70E33008F00EC112968C911297809325017F
S1137C8013968C9180932601E0932701F0E0EE0F88
S1137C90FF1F81E280935700E491E093280117C10C
S1137CA08035910589F412968C9112978093250161
S1137CB013968C9113978093260114968C9180933C
S1137CC02701E0E0F0E03EC0883528E0920789F41F
S1137CD012968C9112978093250113968C91139789
S1137CE08093260114968C9180932701E3E0F0E0C1
S1137CF029C0803558E0950789F412968C91129723
S1137D008093250113968C911397809326011496E2
S1137D108C9180932701E2E0F0E014C0883591054E
S1137D2009F0B7C012968C9112978093250113968F
S1137D308C9113978093260114968C91809327013C
S1137D40E1E0F0E089E0809357008491809328017A
S1137D50BEC0843011F0873039F590910B0199231E
S1137D6009F497C09091090191110EC012964D919A
S1137D705C91139760E070E040932E0150932F01C3
S1137D80609330017093310116962D913C911797B1
S1137D903093080120930701843011F083E001C07F
S1137DA082E080930A0195C0853061F480910B01D3
S1137DB0813021F482E080930B016FC081E08093D5
S1137DC0250188C0863019F0883009F04BC09091A5
S1137DD00B01923009F05DC09091090191110EC020
S1137DE012964D915C91139760E070E040932E01E0
S1137DF050932F016093300170933101863001F567
S1137E0015964C911597842F8F7080933201149698
S1137E102C9114978091330190913401822B242F5B
S1137E20207F50E1259F90011124822B932B909366
S1137E3034018093330140FD80932D0181E007C01C
S1137E4010923401109233011092320184E0809335
S1137E500A0116968D919C9117979093080180932F
S1137E60070137C08930B9F480910B01882389F068
S1137E7081E08093090112968D919C911397A0E063
S1137E80B0E080932E0190932F01A0933001B09322
S1137E90310180E01FC08A3021F41092250181E075
S1137EA019C095EF980F9230A0F38D30B1F38E3056
S1137EB081F391EF980F923060F08F3751F7109261
S1137EC0250110922601109227011092280184E0C6
S1137ED001C08FEF25E231E0309345012093440146
S1137EE00895CF9320910A013EEF320F323068F5A6
S1137EF0C62F223059F420912E0130912F01409148
S1137F003001509131010E94943C06C040912E01F1
S1137F1050912F010E94CA3C80912E0190912F0113
S1137F20A0913001B09131018C0F911DA11DB11DA3
S1137F3080932E0190932F01A0933001B0933101CF
S1137F40C83028F410920A0102C08FEF01C08C2FB0
S1137F50CF910895CF93C62F20910A01213049F083
S1137F602430A9F540912E0150912F010E94CA3D61
S1137F700AC020912E0130912F014091300150917F
S1137F8031010E94ED3C80912E0190912F01A0912E
S1137F903001B09131018C0F911DA11DB11D809351
S1137FA02E0190932F01A0933001B0933101809161
S1137FB00701909108018C1B91099093080180930B
S1137FC00701892B31F410920A0181E003C08FEF7D
S10B7FD001C080E0CF91089587
S90370008C
