:107000000C947B380C94C3380C9498380C949838B2
:107010000C9498380C9498380C9498380C949838B0
:107020000C9498380C9498380C9498380C949838A0
:107030000C9498380C9498380C9498380C94983890
:107040000C9498380C9498380C9498380C94983880
:107050000C9498380C9498380C9498380C94983870
:107060000C9498380C9498380902120001010080A1
:107070006909040000000000000012011001FF0077
:107080000008C016DC0500010102030110035000D6
:1070900072006F0074006F002D0031004803420041
:1070A0006F006F0074006C006F0061006400650089
:1070B0007200200066006F0072002000440046004D
:1070C00034004900410048002D00310030004D00DF
:1070D00048007A002D005200650066002D004F0028
:1070E000730063000E034400460034004900410071
:1070F00048000403090411241FBECFEFD8E0DEBF0F
:10710000CDBF11E0A0E0B1E0E8E4F7E702C00590F0
:107110000D92A230B107D9F711E0A2E0B1E001C0B1
:107120001D92A036B107E1F70E941E3B0C94A23BD2
:107130000C940038A82FB92F8FEF9FEF1BC02D9113
:107140008227282F22952827722F269526952727D4
:10715000239526952170782F892F82272195207CD1
:10716000922F222776952795972782277695279520
:1071700097278227615018F7809590950895DADF58
:107180008D939D930895CF93CFB7CF93DF93C395FE
:10719000339BE9F7339B19C0339B17C0339B15C052
:1071A000339B13C0339B11C0339B0FC0339B0DC067
:1071B000339B0BC0339B09C0C0911B01C395C09387
:1071C0001B01C6B5C093050181C06F93C0911A0120
:1071D000DD27CE5DDE4F2F9320E400C065E0339BBA
:1071E00003C02F916F91D6CF0F931F934F9345E517
:1071F0005F9355E53F933BE014E006B10C702EC061
:107200006A95C9F03150D8F106B10C7001130BC06A
:1072100008942795299320E4555500F46A9569F759
:1072200001E066B10BC0102F66E02695299320E49B
:10723000555518F3E2CF0FEF66B10000162F4555F4
:1072400000F0404066E01C700030E2F221F00000E7
:1072500006B10C7003C006B10C70A9F0011309C08F
:107260000894279568F200C06A95A9F700E066B116
:10727000E5CF102F66E0269528F20000ECCF11E054
:107280001CBB002717C03B503195C31BD04011E0F9
:107290001CBB0881033CF9F00B34E9F02091180184
:1072A0001981110F1213EDCF093651F10D3211F082
:1072B000013E39F7009320013F915F914F911F915B
:1072C0000F912F916F91CCB3C0FD61CFDF91CF9122
:1072D000CFBFCF91189520912001222369F31091FF
:1072E0001E01112329F534302AF130931E01209319
:1072F000190110911A013BE0311B30931A011AC099
:1073000000911E010130A4F40AE53091010134FD21
:1073100012C000930101CDE0D1E011C0052710E0BB
:1073200000C008B919C0052710E0221F00C01DC009
:107330004AE502C032ED432FC4E1D0E032E017B19C
:107340001C60439A08B117B95CE020E869E420FFAB
:10735000052708B92795179500C000001C3FF0F6D7
:107360006695A8F7A1F720FF052708B92795179577
:1073700000001C3FC0F629913A9541F7037F109118
:107380001F01110F08B9C651D04011F01093180118
:1073900011E01CBB086017B1137F402F437F55E0FD
:1073A0005A95F1F708B917B948B986CFCF93DF934B
:1073B00060911E01635067FDD3C080911A01CCE03B
:1073C000D0E0C81BD109CE5DDE4F809119018D320E
:1073D00009F0B4C0683009F0C1C083EC80930D019E
:1073E0008AE580930101109202012881822F807624
:1073F00041F0CE010E94163E982F8F3F09F48DC0B8
:1074000093C09A813C81109216018981811113C029
:107410002F71223051F4313841F49091380181E0DC
:107420009E3109F080E0809316011092170126E149
:1074300031E092E06DC0282F2D7F213069F4911149
:1074400060C0313809F05DC0813011F08EE101C0BB
:107450008AE58093380155C0853019F490931F0157
:1074600050C0863009F03FC08B81813019F48AE723
:1074700090E704C0823041F488E690E790931D01C4
:1074800080931C0192E12BC0833041F5911108C01B
:1074900082EF90E790931D0180931C0194E01FC040
:1074A000913041F484EE90E790931D0180931C018C
:1074B0009EE015C0923041F48CE990E790931D0155
:1074C00080931C0198E40BC0933041F48CE890E762
:1074D00090931D0180931C0190E101C090E080E435
:1074E0008093020121C0883081F0893019F4909393
:1074F000210107C091E08A3009F090E026E131E0F7
:1075000007C026E131E090E003C021E231E091E0E4
:1075100030931D0120931C0107C0888187FD9E8147
:1075200080E88093020107C08F81811104C08E81A1
:10753000891708F4982F9093000110C080910201E0
:1075400087FF0CC0CE010E94AC3F8F3F21F48EE13B
:107550008093010103C081111092000110921E015D
:107560008091010184FF51C0809100018F3F09F497
:107570004CC0C82F893008F0C8E08C1B80930001F4
:1075800090910D0188E8892780930D01CC2359F152
:107590003091020137FF09C06C2F8EE091E00E940C
:1075A000733FC82F893058F51EC080911C019091FF
:1075B0001D012C2F280FAEE0B1E0FC0136FF06C004
:1075C00034913D9331962E13FBCF04C031913D93FE
:1075D0002E13FCCF01962FEF2C0F820F911D90934D
:1075E0001D0180931C016C2F8EE091E00E94BF383A
:1075F000CC5FCC3041F08FEF8093000104C08FEF5F
:1076000080930001CEE1C093010184E196B19C70AA
:1076100031F48150D9F710921F0110921801DF91B7
:10762000CF910895E9E6F0E0808182608083E89A56
:107630000895A8950E94D6390C94DC3BCF93DF9334
:1076400000D000D0CDB7DEB7F894F89481E085BFC4
:1076500082E085BF8FEE8093640080B7806880BF32
:1076600080917F00836080937F0085B78F7E85BF88
:1076700018E1EE24EA94FE2C0FB6F8941093600003
:10768000109260000FBE0E94693C1C821B824AEF70
:1076900053E062E0CE0103960E94CA3C8B819C813C
:1076A0008F30904BE1F01A82198220E030E0A9017E
:1076B00062E0CE0101960E94943C80910401811108
:1076C00017C089819A818C30944991F40E94603C62
:1076D000F894E0910601F0910701099509C0FA823A
:1076E000E9824AEF53E062E0CE0101960E94CA3D72
:1076F0000E94C03B0E94FE3D10920301789480914D
:107700000301811103C00E94193BF9CFF8940E9434
:10771000123E0E94D03BB0CFF999FECF92BD81BD01
:10772000F89A992780B50895262FF999FECF1FBAA8
:1077300092BD81BD20BD0FB6F894FA9AF99A0FBE9A
:0877400001960895F894FFCFB3
:02774800FF5AE6
:10778000E4E6F0E080818F7D808316BC8AE588BDC9
:1077900083E284BD81E085BD559A459A3D9A08955E
:1077A0003D98559815BC14BC18BC16BCE4E6F0E036
:1077B000808180628083089580E286B9089580E2A6
:1077C00086B9E7E8F3E13197F1F700C00000A8952A
:0277D000F7CFF1
:1078C0005B98089589B183FB882780F991E0892727
:1078D000089585B78F7E85BF53985B9A8AE0815063
:1078E00041F0A895E7E8F3E13197F1F700C0000017
:0C78F000F6CF0E94623C809304010895D2
:10790000E0E0F0E083E080935700E89507B600FCE4
:10791000FDCFE058FF4FE11590E7F907A1F781E1AE
:1079200080935700E8950895FF920F931F93CF938C
:10793000DF93DC01922F022F132F9A0151E0591B84
:10794000402FF02EF91A6623F9F00F3F8FE6180743
:107950002105310530F4F801C591D4917C2F8D2F8C
:1079600002C07FEF8FEFFD01EF0DF11D70836130DD
:1079700059F0450FFD01E40FF11D80830E5F1F4F8D
:107980002F4F3F4F6250DCCFDF91CF911F910F916E
:10799000FF900895EF92FF920F931F93CF93DF9381
:1079A0001F92CDB7DEB77C018A01081B190B662335
:1079B00061F0C8018E0D9F1D69830E948C3BF70109
:1079C00081937F0169816150F2CF0F90DF91CF9158
:1079D0001F910F91FF90EF9008952F923F924F9239
:1079E0005F926F927F928F929F92AF92BF92CF924F
:1079F000DF92EF92FF920F931F93CF93DF93CDB758
:107A0000DEB727970FB6F894DEBF0FBECDBF1C01BF
:107A100000E0662309F4A5C0F22FFF77DA01C9015F
:107A20008F1B9109A109B10989839A83AB83BC8318
:107A30008FEF9FE6A0E0B0E0821B930BA40BB50B89
:107A4000C62ED12CE12CF12C8C159D05AE05BF0561
:107A500010F46C017D0180E890E08F1B9109AA274A
:107A600097FDA095BA2F8C159D05AE05BF0510F4A6
:107A70006C017D017C2D2F3F9FE6390741055105A3
:107A800008F06FC0F1110AC093E0992EE981FA81E4
:107A900090925700E89507B600FCFDCF16E0310143
:107AA000600E711C522E3F83422E115009F452C0B9
:107AB0007E826D82A52DBF8153018FEF9FEFEA2F4C
:107AC000E21BE717C0F4F501A0FF0DC0908090E025
:107AD0009929FD01EE7F992493940C01909257000F
:107AE000E895112403C0808190E09F6FFFEFAF1AEB
:107AF000BF0A1196E4CF85E0982EE981FA81909231
:107B00005700E89507B600FCFDCF81E18093570050
:107B1000E89549015A01882D84198717D8F4F40192
:107B2000EE7F8591949180FE02C0F8E001C0F0E004
:107B3000AD81BE81ED91BE83AD83BFEF8B1A9B0AF1
:107B4000AB0ABB0A02C096958795FA95E2F7E8174B
:107B500011F3ABCF2C0D3D1D4E1D5F1D671B070F95
:107B600058CF27960FB6F894DEBF0FBECDBFDF917A
:107B7000CF911F910F91FF90EF90DF90CF90BF902A
:107B8000AF909F908F907F906F905F904F903F90BD
:107B90002F900895EF92FF921F93CF93DF937C0174
:107BA000C42FD52F162F140F1C1741F0F701619128
:107BB0007F01CE010E94943B2196F6CFDF91CF91B9
:087BC0001F91FF90EF90089562
:107BE000FC01DB0112968C911297808313968C9185
:107BF0001397818314968C91828308950E94123B7F
:107C0000E898219829988AEF815041F0E7E8F3E15C
:107C10003197F1F700C00000A895F6CF219A299A74
:107C2000E89A0895E898219829980895DC0111961A
:107C30008C911197813029F480930C0110920A01E4
:107C40002AC1823051F410920C01809104018111FB
:107C500022C181E0809303011EC1833009F07BC003
:107C600012968D919C91139780339105D9F41496B7
:107C7000EC911497E33008F00EC112968C91129794
:107C80008093500113968C9180935101E09352019F
:107C9000F0E0EE0FFF1F81E280935700E491E09344
:107CA000530117C18035910589F412968C91129772
:107CB0008093500113968C911397809351011496E1
:107CC0008C9180935201E0E0F0E03EC0883528E0DE
:107CD000920789F412968C91129780935001139613
:107CE0008C9113978093510114968C91809352013B
:107CF000E3E0F0E029C0803558E0950789F412965A
:107D00008C9112978093500113968C9113978093C6
:107D1000510114968C9180935201E2E0F0E014C07E
:107D20008835910509F0B7C012968C91129780930F
:107D3000500113968C9113978093510114968C9156
:107D400080935201E1E0F0E089E080935700849154
:107D500080935301BEC0843011F0873039F5909183
:107D60000C01992309F497C090910A0191110EC05A
:107D700012964D915C91139760E070E04093590129
:107D800050935A0160935B0170935C0116962D919C
:107D90003C9117973093090120930801843011F02A
:107DA00083E001C082E080930B0195C0853061F4CF
:107DB00080910C01813021F482E080930C016FC02E
:107DC00081E08093500188C0863019F0883009F036
:107DD0004BC090910C01923009F05DC090910A0166
:107DE00091110EC012964D915C91139760E070E076
:107DF0004093590150935A0160935B0170935C0169
:107E0000863001F515964C911597842F8F708093CD
:107E10005D0114962C91149780915E0190915F0101
:107E2000822B242F207F50E1259F90011124822B4B
:107E3000932B90935F0180935E0140FD80935801E6
:107E400081E007C010925F0110925E0110925D0107
:107E500084E080930B0116968D919C9117979093D7
:107E600009018093080137C08930B9F480910C0171
:107E7000882389F081E080930A0112968D919C916C
:107E80001397A0E0B0E08093590190935A01A0931A
:107E90005B01B0935C0180E01FC08A3021F4109236
:107EA000500181E019C095EF980F9230A0F38D300A
:107EB000B1F38E3081F391EF980F923060F08F37ED
:107EC00051F71092500110925101109252011092EC
:107ED000530184E001C08FEF20E531E030931D01B4
:107EE00020931C010895CF9320910B013EEF320F98
:107EF000323068F5C62F223059F420915901309163
:107F00005A0140915B0150915C010E94943C06C073
:107F10004091590150915A010E94CA3C80915901E7
:107F200090915A01A0915B01B0915C018C0F911D61
:107F3000A11DB11D8093590190935A01A0935B013B
:107F4000B0935C01C83028F410920B0102C08FEF8F
:107F500001C08C2FCF910895CF93C62F20910B0194
:107F6000213049F02430A9F54091590150915A012E
:107F70000E94CA3D0AC02091590130915A01409196
:107F80005B0150915C010E94ED3C80915901909100
:107F90005A01A0915B01B0915C018C0F911DA11D54
:107FA000B11D8093590190935A01A0935B01B09346
:107FB0005C0180910801909109018C1B91099093BB
:107FC000090180930801892B31F410920B0181E0A3
:0C7FD00003C08FEF01C080E0CF91089546
:040000030000700089
:00000001FF
