:100000000C9417050C945F050C9434050C9434057E
:100010000C9434050C9434050C9400180C9434059D
:100020000C9434050C9434050C94482D0C94222D1A
:100030000C9434050C9434050C9434050C9434055C
:100040000C94AD2C0C9434050C9458270C949527E3
:100050000C94C5270C947C2B0C9434050C9434051B
:100060000C9434050C943405181C241C301C3C1CC6
:10007000481C541C601C6C1C781C841C901C9C1C10
:10008000A81C08000000BE922449123EABAAAA2A6E
:10009000BECDCCCC4C3E00000080BEABAAAAAA3E8E
:1000A00000000000BF000000803F000000000008CA
:1000B0004178D3BB4387D1133D190E3CC3BD428267
:1000C000AD2B3E68EC8276BED98FE1A93E4C80EF25
:1000D000FFBE01C4FF7F3F000000000009021900BD
:1000E00001010080690904000001FF00000007050C
:1000F000810308000A12011001FF000008C016DC8D
:10010000050001010203011003500072006F00742A
:10011000006F002D0031002A0344004600340049DE
:1001200000410048002D00310030004D0048007AA9
:10013000002D005200650066002D004F0073006323
:10014000000E03440046003400490041004800040A
:10015000030904436F6D6D756E69636174696F6E39
:100160002062617564207261746520736574207407
:100170006F2025357520626175642E0A004446346F
:100180004941482C25732C253035752C56323025A5
:10019000303375253033752E0023494130323A20F3
:1001A0006D61696E50776D48697374417667203D63
:1001B000202530332E33662C200970776D44657608
:1001C0004C696E5F7374657073203D20252B30334E
:1001D0002E33662C200970776D44657657676874F6
:1001E0005F7374657073203D20252B30332E33668A
:1001F0002C20096E657750776D56616C203D202567
:1002000030332E33660A0A0023494130313A206CDC
:100210006F63616C4D65616E466C6F6174436C6FAA
:10022000636B44696666203D20252B30332E336690
:10023000204032304D487A2C20097172674465762F
:100240005F487A203D20252B30332E3366487A20B4
:100250004031304D487A2C200970706D203D2025AA
:100260002B30322E36660A0023494430323A202B96
:100270002F2D204B455920096D61696E50776D54C3
:1002800065726D696E616C41646A203D2025662C43
:1002900020096C6F63616C4661737450776D5661B1
:1002A0006C4E657874203D2025303375202B206CF2
:1002B0006F63616C4661737450776D537562436D03
:1002C000704E657874203D20253033750A0A00236E
:1002D000494430313A202B2F2D204B455920096DB0
:1002E00061696E50776D5465726D696E616C4164C1
:1002F0006A203D2025662C200970756C6C50776D46
:1003000056616C4265666F7265202020203D202575
:10031000303375202B206661737450776D5375628E
:10032000436D704265666F7265202020203D202558
:100330003033750A0023544131353A203D3D3D3D6F
:100340003D3D3D0A0A0023544131343A206D616934
:100350006E526566436C6B5374617465203D202555
:10036000750A0023544131333A2050574D203D2027
:10037000253033752C20095375622D50574D203D83
:1003800020253033750A0023544131323A207070F1
:10039000735374616D70437472316D7320203D200E
:1003A0002530396C752C20097070735374616D7031
:1003B000494352312020203D20253035752C20091D
:1003C0007070735374616D70437472316D735F6CD0
:1003D00061737420203D202530396C752C20097004
:1003E00070735374616D70494352315F6C61737403
:1003F0002020203D20253035750A0023544131311D
:100400003A206C6F63616C46617374437472316D32
:1004100073203D202530396C752C20096C6F636189
:100420006C4661737454434E5431203D2025303561
:10043000750A0023544130333A2054656D70203DD5
:100440002025303475202825302E316643290A00B6
:1004500023544130323A2041444331203D2025305D
:100460003475202825302E336656290A002354413E
:1004700030313A2041444330203D2025303475202E
:100480002825302E336656290A000A3D3D3D20447A
:100490004634494148202D203130204D487A2052A1
:1004A00065666572656E6365204F7363696C6C6128
:1004B000746F72203D3D3D0A3D3D3D205665723AC8
:1004C00020323025303364253033640A002A3F2A35
:1004D0002020756E6B6E6F776E20636F6D6D616E31
:1004E0006420272573272072656365697665642C0F
:1004F000207472792048454C502E0A0A3E003D3D3A
:100500003D3D3D3D3D3D3D3D3D0A0A3E002B2F2DED
:10051000203C50574D2076616C75653E0909636F2C
:100520007272656374696F6E2076616C7565207494
:100530006F2062652061646465642E0A0057524929
:10054000544550574D09090973746F7265206375DE
:100550007272656E742050574D2061732064656619
:1005600061756C742076616C75652E0A0054455374
:100570005409090909746F67676C657320636F75A7
:100580006E74657220746573742E0A005345524F61
:1005900046460909090973776974636820736572AF
:1005A00069616C20636F6D6D756E69636174696FED
:1005B0006E204F46462E0A5345524F4E09090909EF
:1005C0007377697463682073657269616C20636F07
:1005D0006D6D756E69636174696F6E204F4E2E0A82
:1005E000000A53455242415544203C626175643EC5
:1005F00009090973657474696E67207365726961AE
:100600006C206261756420726174652E0A00524527
:10061000424F4F54090909097265626F6F74207463
:100620006865206669726D776172652E0A004C4FAD
:100630004144455209090909656E74657220626F6B
:100640006F746C6F616465722E0A00494E464F09E3
:10065000090909746F67676C657320616464697464
:10066000696F6E616C207072696E74656420696E6A
:10067000666F732E0A0048454C50090909097468D1
:100680006973206D6573736167652E0A0048414C7C
:100690005409090909706F776572732074686520C1
:1006A00064657669636520646F776E2028736C6576
:1006B0006570206D6F6465292E0A004150434F46D6
:1006C000460909090973776974636820415043201A
:1006D000286175746F6D61746963207068617365FA
:1006E00020636F6E74726F6C29206F66662E0A41EC
:1006F00050434F4E090909097377697463682041B3
:10070000504320286175746F6D617469632070684F
:1007100061736520636F6E74726F6C29206F6E2E2B
:100720000A004146434F464609090909737769742F
:1007300063682041464320286175746F6D61746958
:1007400063206672657175656E637920636F6E7480
:10075000726F6C29206F66662E0A4146434F4E0920
:100760000909097377697463682041464320286149
:1007700075746F6D61746963206672657175656EFD
:10078000637920636F6E74726F6C29206F6E2E0A0E
:10079000000A0A3D3D3D2048454C50203D3D3D0A64
:1007A0000A24203C4E4D45412D4D657373616765AC
:1007B0003E090973656E6473206D657373616765C7
:1007C00020746F2074686520475053206D6F6475E6
:1007D0006C652E0A002A525354002A49444E3F00A9
:1007E0002D002B00575249544550574D0054455346
:1007F000540053455242415544005345524F4E0018
:100800005345524F4646005245424F4F54004C4FBD
:100810004144455200494E464F0048454C5000481F
:10082000414C54004150434F4E004150434F4646C7
:10083000004146434F4E004146434F464600444622
:10084000344941482031304D687A2D526566D99639
:100850000000FFFFFFFFFFFFFFFF00000CB0A52C13
:100860008F4048E18A3F0080AE4300A0873FFFFFF2
:10087000FFFFFFFFFFFFFFFFFFFF00001CB0A09482
:10088000184B7097184B000040400000000000001B
:100890003E4300000000BAFFFFFF00002CB0C01272
:1008A000080100000000FFFFFFFFFFFFFFFFFFFF49
:1008B000FFFFFFFFFFFFFFFFFFFF00003CB0000056
:1008C0000000FFFFFFFFFFFFFFFFFFFFFFFFFFFF36
:1008D000FFFFFFFFFFFFFFFFFFFF00004CB06E6157
:1008E0006E00696E66006364696E6F707375785828
:1008F0005B65666745464700616E006E66696E69B6
:10090000747900CDCCCC3D0AD7233C17B7D13877CA
:10091000CC2B329595E6241FB14F0A0000204100F0
:1009200000C84200401C4620BCBE4CCA1B0E5AAE3A
:10093000C59D7400407A10F35A00A0724E18090049
:1009400010A5D4E80000E87648170000E40B540234
:100950000000CA9A3B000000E1F50500008096986F
:1009600000000040420F000000A0860100000010BF
:100970002700000000E80300000000640000000001
:10098000000A00000000000100000000002C76D8E2
:1009900088DC674F0823DFC1DFAE59E1B1B796E5C8
:1009A000E3E453C63AE651997696E8E6C28426EB2C
:1009B000898C9B62ED407C6FFCEFBC9C9F40F2BA3F
:1009C000A56FA5F490055A2AF75C936B6CF9676DD7
:1009D000C11BFCE0E40D47FEF520E6B500D0ED902C
:1009E0002E0300943577050080841E080000204EF9
:1009F0000A000000C80C333333330F986E12831192
:100A000041EF8D2114893BE65516CFFEE6DB18D168
:100A1000844B381BF77C1D901DA4BBE4242032843A
:100A2000725E228100C9F124ECA1E53D270011246A
:100A30001FBECFEFD8E0DEBFCDBF11E0A0E0B1E038
:100A4000E0ECFBE202C005900D92A031B107D9F7AE
:100A500015E0A0E1B1E001C01D92AE37B107E1F7AA
:100A60000E9402220C94DE150C940000A82FB92FCE
:100A70008FEF9FEF1BC02D918227282F22952827CB
:100A8000722F269526952727239526952170782F56
:100A9000892F82272195207C922F222776952795D2
:100AA000972782277695279597278227615018F7F1
:100AB000809590950895DADF8D939D930895CF9357
:100AC000CFB7CF93DF93C395339BE9F7339B11C027
:100AD000339B0FC0339B0DC0339B0BC0339B09C0AE
:100AE000339B07C0339B05C0339B03C0339B01C0BE
:100AF00083C06F93C0916105DD27C859DA4F2F93EA
:100B000020E400C065E0339B03C02F916F91DECFDE
:100B10000F931F934F9345E55F9355E53F933BE05C
:100B200014E006B10C702EC06A95C9F03150D8F1AE
:100B300006B10C7001130BC008942795299320E48B
:100B4000555500F46A9569F701E066B10BC0102FA6
:100B500066E02695299320E4555518F3E2CF0FEF70
:100B600066B10000162F455500F0404066E01C704D
:100B70000030E2F221F0000006B10C7003C006B1B3
:100B80000C70A9F0011309C00894279568F200C001
:100B90006A95A9F700E066B1E5CF102F66E02695CB
:100BA00028F20000ECCF11E01CBB002719C03B501D
:100BB0003195C31BD04011E01CBB0881033C09F1F7
:100BC0000B34F9F020915F051981110F1213EDCF4D
:100BD0004A81441F093651F10D3211F0013E29F7C7
:100BE000009366053F915F914F911F910F912F9157
:100BF0006F91CCB3C0FD67CFDF91CF91CFBFCF91C5
:100C0000189520916605222369F31091640511233C
:100C100081F5343082F130936405209360051091A2
:100C200061053BE0311B3093610525C000916405EF
:100C30000130FCF40AE54F7049F43091010134FDB4
:100C40001BC000930101C4E5D5E01AC030910B052B
:100C500034FD12C000930B05CCE0D5E011C0052790
:100C600010E000C008B919C0052710E0221F00C01D
:100C70001DC04AE502C032ED432FC4E1D0E032E0AE
:100C800017B11C60439A08B117B95CE020E869E429
:100C900020FF052708B92795179500C000001C3FC5
:100CA000F0F66695A8F7A1F720FF052708B9279564
:100CB000179500001C3FC0F629913A9541F7037F34
:100CC00010916505110F08B9C651D04011F010936D
:100CD0005F0511E01CBB086017B1137F402F437FF5
:100CE00055E05A95F1F708B917B948B97BCFCF93BA
:100CF000C62F20910B052E31F9F020910B0524FF12
:100D000007C020910C0538E8232720930C0503C069
:100D10002AE520930B05DC01EDE0F5E08C2F8E0F2A
:100D20009D9191938E13FCCF6C2F8DE095E00E94E6
:100D30005B05CC5FC0930B05CF910895CF93DF93F4
:100D400060916405635067FDDFC080916105CCE070
:100D5000D0E0C81BD109C859DA4F809160058D32A7
:100D600009F0C0C0683009F0CDC083EC8093540511
:100D70008AE580930101109210013881832F8076DB
:100D800021F0CE010E9430259AC09A812C811092C8
:100D90005D058981811113C03F71323051F42138D2
:100DA00041F490910B0581E09E3109F080E0809341
:100DB0005D0510925E052DE535E082E07CC0382FA0
:100DC0003D7F313081F4911173C0213809F070C03A
:100DD000813011F48AE501C08EE180930B058BE42C
:100DE00080930C0565C0853019F49093650560C04B
:100DF000863009F044C08B81813041F485EF90E06A
:100E0000909363058093620582E135C0823041F49E
:100E10008CED90E0909363058093620589E12BC08F
:100E2000833041F5911108C08FE491E09093630500
:100E30008093620584E01FC0913041F481E491E029
:100E400090936305809362058EE015C0923041F463
:100E500087E191E090936305809362058AE20BC07D
:100E6000933041F487E091E09093630580936205AD
:100E700080E101C080E090E49093100120C08830B0
:100E800081F0893019F49093670507C08A3061F0CA
:100E90008B3071F48BE480930C058AE580930B050D
:100EA00007C027E635E002C02DE535E081E003C04C
:100EB0002DE535E080E030936305209362058F3F98
:100EC00039F4988197FD8E8190E89093100107C0C6
:100ED0009F81911104C09E81981708F4892F8093F7
:100EE000000110C08091100187FF0CC0CE010E944C
:100EF000EB258F3F21F48EE18093010103C0811126
:100F000010920001109264058091010184FF5EC07F
:100F1000809100018F3F09F459C0C82F893008F033
:100F2000C8E08C1B809300018091540598E88927C4
:100F300080935405CC23C1F18091100187FF09C033
:100F40006C2F85E595E00E946925C82F8930C0F592
:100F50002BC0209162053091630586FF12C0A5E584
:100F6000B5E044E555E040955095420F531F8C2F56
:100F70008A0FFA01EA0FFB1FE491ED938A13F9CF70
:100F800009C0E5E5F5E0D9018C2F8E0F9D91919375
:100F90008E13FCCF2F5F3F4F8FEF8C0F280F311D2B
:100FA00030936305209362056C2F85E595E00E94E0
:100FB0005B05CC5FCC3041F08FEF8093000104C023
:100FC0008FEF80930001CEE1C093010184E196B1DF
:100FD0009C7049F48150D9F71092650510925F0515
:100FE0008AE580930B05DF91CF910895E9E6F0E063
:100FF000808183608083E89A8BE480930C058AE586
:1010000080930B050895EAE7F0E080818064808397
:101010000895A3E1B0E0EFE0F8E00C9421107C012A
:101020001B016A01FC0117821682838181FF66C35E
:10103000BE016F5F7F4F4B01F7019381F10193FD7B
:10104000859193FF81911F01882309F453C3853251
:1010500039F493FD859193FF81911F01853239F415
:10106000B70190E00E94B11456016501E5CF10E090
:10107000512C20E02032A0F48B3269F030F4803221
:1010800059F0833269F420612CC08D3239F08033FD
:1010900039F4216026C02260246023C0286021C06A
:1010A00027FD27C030ED380F3A3078F426FF06C010
:1010B000FAE01F9F300D1124132F13C06AE0569ED3
:1010C000300D1124532E20620CC08E3221F426FDE7
:1010D00011C3206406C08C3611F4206802C0883623
:1010E00041F4F10193FD859193FF81911F018111DD
:1010F000C1CF9BEB980F933018F42061805E06C03F
:101100009BE9980F933008F0AAC12F7E26FF16E0C6
:101110002F73722E853621F4F22FF0647F2E08C0D3
:10112000863621F4622F6068762E02C011111150AC
:1011300077FE07C01C3348F444244394410E27E053
:101140000BC0183030F4212F06C027E04CE3442EAA
:1011500003C027E017E0412C560174E0A70EB11C34
:10116000F6016081718182819381042DA4010E9426
:1011700046136C01098100FF02C003FF06C071FC29
:1011800007C072FC08C0612C08C03DE2632E05C098
:101190002BE2622E02C090E2692E802F8C7099F1B2
:1011A000662011F084E001C083E0851510F0512C19
:1011B0000BC0581A73FC08C0B70180E290E00E948F
:1011C000B1145A94C9F7F3CF662029F0B701862DE0
:1011D00090E00E94B11403FD03C002EE18E002C0CB
:1011E0000EED18E0F72DF0717F2EF8018491882321
:1011F00009F476C271108052B70190E00E94B114D8
:101200000F5F1F4FF2CF77FE0FC04C0C04FF04C0DE
:101210008A81813309F44A94141474F5F8E0F415C2
:1012200078F588E0482E2CC076FC2AC0812F90E00B
:101230008C159D059CF06CEFC6166FEFD60674F00A
:10124000772D7068772E0AC0E2E0F0E0EC0FFD1F0A
:10125000E10FF11D8081803319F411501111F4CF89
:1012600077FE0EC044244394410E812F90E0C816AF
:10127000D9062CF41C1904C04424439401C010E086
:1012800077FE07C01C141D043CF496012F5F3F4FEE
:1012900005C025E030E002C021E030E0662011F01A
:1012A0002F5F3F4F112331F0412F50E04F5F5F4FD1
:1012B000240F351F452D50E02417350714F4521A1A
:1012C00001C0512C872D897049F4552039F0B701A0
:1012D00080E290E00E94B1145A94F7CF662029F082
:1012E000B701862D90E00E94B11473FC09C055200F
:1012F00039F0B70180E390E00E94B1145A94F7CF1F
:1013000077FE5FC09C2D8D2DD7FE02C090E080E05F
:10131000692E782E40E050E0C601841991099D871E
:101320008C87960126193709280D391D812F90E0E9
:10133000EE27FF27E81BF90BFF87EE87FFEF6F16FD
:101340007F0669F4B7018EE290E02B8B3A8B488BD5
:10135000598B0E94B114598948893A892B89C6143E
:10136000D70454F06C857D85661577052CF4F9015A
:10137000E40FF51F818101C080E371E0671A7108F5
:101380004F5F5F4FEE85FF856E167F066CF0B701ED
:1013900090E02B8B3A8B488B598B0E94B1142B8990
:1013A0003A8948895989CACF6C147D0439F49A81E5
:1013B000963318F4953311F404FF81E3B70190E0FC
:1013C0004BC08A81813309F00F7EB70190E00E9403
:1013D000B114111105C074FE18C085E490E017C067
:1013E000B7018EE290E00E94B11482E0662463941B
:1013F000680EF401E80FF11D8081B70190E00E94B2
:10140000B114115041F3862DF1CF85E690E0B7017C
:101410000E94B114D7FC05C0C114D10439F404FFF3
:1014200005C0D194C194D1088DE201C08BE2B7010F
:1014300090E00E94B11480E36AE0C616D1042CF05B
:101440008F5FFAE0CF1AD108F7CFB70190E00E9482
:10145000B114B701C601C0960E94B11441C18336D0
:1014600031F0833779F0833509F058C021C0560137
:1014700072E0A70EB11CF6018081898301E010E0C3
:10148000640114C05601F2E0AF0EB11CF601C08039
:10149000D18026FF03C0612F70E002C06FEF7FEFA5
:1014A000C6012B8B0E9468148C012B892F7715C0E5
:1014B0005601F2E0AF0EB11CF601C080D18026FFCC
:1014C00003C0612F70E002C06FEF7FEFC6012B8B6E
:1014D0000E9439148C012B892068722E23FD1AC0BA
:1014E000852D90E008171907A8F4B70180E290E075
:1014F0000E94B1145A94F4CFF60177FC859177FEDF
:1015000081916F01B70190E00E94B11451105A947B
:10151000015011090115110579F7E2C0843611F067
:10152000893651F5560127FF09C0F4E0AF0EB11C12
:10153000F60160817181828193810AC0F2E0AF0E71
:10154000B11CF60160817181882777FD8095982F05
:10155000022F0F7697FF08C0909580957095619542
:101560007F4F8F4F9F4F00682AE030E0A4010E9418
:101570006715C82EC8183EC0022F853721F40F7E8C
:101580002AE030E01DC0097F8F3691F018F48835CD
:1015900059F0B0C0803719F0883711F0ABC0006146
:1015A00004FF09C0046007C024FF08C0066006C02D
:1015B00028E030E005C020E130E002C020E132E068
:1015C000560107FF09C0F4E0AF0EB11CF6016081BF
:1015D00071818281938108C0F2E0AF0EB11CF601E7
:1015E0006081718180E090E0A4010E946715C82E9F
:1015F000C8180F7706FF0BC0202F2E7FC11650F49E
:1016000004FF0AC002FD08C0202F2E7E05C0DC2C7E
:10161000202F03C0DC2C01C0D12E24FF0DC0FE0101
:10162000EC0DF11D8081803311F4297E09C022FF69
:1016300006C0D394D39404C0822F867809F0D39443
:1016400023FD13C020FF06C01C2DD51418F4150D62
:101650001D19D52CD51468F4B70180E290E02B8BCE
:101660000E94B114D3942B89F5CFD51410F45D18D2
:1016700001C0512C24FF12C0B70180E390E02B8BF6
:101680000E94B1142B8922FF17C021FF03C088E5F7
:1016900090E002C088E790E0B7010CC0822F867806
:1016A00059F021FD02C080E201C08BE227FD8DE2EE
:1016B000B70190E00E94B114C11638F4B70180E37D
:1016C00090E00E94B1141150F7CFCA94F401EC0DD0
:1016D000F11D8081B70190E00E94B114C110F5CFD7
:1016E000552009F4C2CCB70180E290E00E94B11409
:1016F0005A94F6CFF7018681978102C08FEF9FEF52
:101700006396E2E10C943D1020FD09C0FC0123FD2D
:1017100005C022FF02C07383628351834083089512
:1017200044FD10C046FD10C0DB01FC01AA0FBB1F29
:10173000EE1FFF1F1094D1F76A0F7B1F8E1F9F1F94
:1017400031E003C033E001C034E0660F771F881F2B
:10175000991F3150D1F7620F711D811D911D0895A0
:101760000F931F93CF93DF938C01C8010E947314D2
:10177000EC0197FD08C00E941E14892BB1F7B80137
:10178000CE010E944E15CE01DF91CF911F910F9196
:1017900008956F927F929F92AF92BF92CF92DF9205
:1017A000EF92FF920F931F93CF93DF931F92CDB7CA
:1017B000DEB78C013B015A0129830E947314AC01EE
:1017C000552729814B32510521F04D32510581F4C5
:1017D000206831E0631A71086114710411F480E02B
:1017E0007FC0C80129830E947314298197FDF7CF18
:1017F000E22FED7F9E2E322F307379F5803369F51D
:101800007301F1E0EF1AF108E114F10409F454C096
:10181000C80129830E947314298197FD4DC0382F78
:101820003F7D383581F4292D2264922E32E0631AEF
:1018300071086114710409F43FC0C8010E94731457
:1018400097FF0BC039C026FF04C0E92DE2609E2E31
:1018500003C0F92DF2619F2E3701C12CD12C7601E6
:1018600020ED280F283080F094FE04C0B8010E94BB
:101870004E151FC02A3040F096FEF8CF2F7D3FEE68
:10188000320F363098F72750492DC701B6010E9414
:10189000900B6B017C01292D2260922E31E0631A9E
:1018A00071086114710459F0C8010E94731497FF04
:1018B000D7CF91FC04C093CFC12CD12C760197FED9
:1018C00008C0F094E094D094C094C11CD11CE11CD9
:1018D000F11C292DB701A601C5010E94840B81E0EE
:1018E0000F90DF91CF911F910F91FF90EF90DF90BC
:1018F000CF90BF90AF909F907F906F900895A0E29F
:10190000B0E0E5E8FCE00C9423105C014B017A01A7
:101910008E010F5F1F4F680180E2F80111928A95D6
:10192000E9F7F501638080E090E0712C412CB0E094
:1019300041E050E0F90163FC559063FE51908F0146
:10194000A52D9F01511003C080E090E07FC0FEE50F
:101950005F1202C0009761F16B2F70E06817790782
:101960004CF46DE5561661F1EDE25E1203C04420C1
:1019700009F103C0411001C0752C6A2F6695669568
:101980006695F601E60FF11D6A2F67708A0102C0A5
:10199000000F111F6A95E2F7B8017081762B7083F2
:1019A000A71559F0A71510F4AF5FE7CFA150E5CF09
:1019B000B1E004C04424439401C0412C0196BACF45
:1019C000442019F08E8180628E83B11103C0772488
:1019D000739419C0F601CE01819620812095219340
:1019E000E817F907D1F7F3CFE114F10429F0F70173
:1019F0008083C70101967C0191E0891A91088114C6
:101A00009104F1F0712CC5010E94731497FD16C06A
:101A1000282F269526952695F601E20FF11D2081A7
:101A200030E0AC014770552702C0359527954A959F
:101A3000E2F720FDD9CFB5010E944E15711084CF79
:101A4000E114F10411F0F7011082C801A096E0E161
:101A50000C943F102F923F924F925F926F927F9221
:101A60009F92AF92BF92CF92DF92EF92FF920F932D
:101A70001F93CF93DF9300D000D000D0CDB7DEB757
:101A80006C018B011A010E9473149E838D83992728
:101A90008B32910529F08D9799F480E8982E01C03A
:101AA000912C015011090115110511F480E038C184
:101AB000C6010E9473149E838D8397FF02C0F6CFE8
:101AC000912C8D819E810E9426148936910541F0CA
:101AD0008E369105D9F5B8EF6B2EB8E07B2E04C099
:101AE000ABEF6A2EA8E07A2E8FEF681A780AF3011E
:101AF0003197B490BB20F1F0015011090115110587
:101B000071F0C6010E9473147C0197FD08C00E9409
:101B10002614B81649F3B601C7010E944E152EEFE0
:101B2000621628E0720609F0C1CF80E090E0A0E8DC
:101B3000BFE709C09BEF691698E07906B1F780E02E
:101B400090E0A0ECBFE7BC01CD01DAC0412C512CE4
:101B50003201E12CF12C2D8120532A3028F5E92D7A
:101B6000E260BE2E892D887092FE06C0811123C0CE
:101B7000FFEFEF1AFF0A1FC0882319F081E0E81A6F
:101B8000F10840E2C301B2010E94900B2B013C011D
:101B900098E9491699E95906690699E1790658F0D4
:101BA000E92DE660BE2E07C02E3FA1F493FC12C0C3
:101BB000F92DF860BF2E015011090115110549F0EA
:101BC000C6010E9473149E838D839B2C97FD02C0D7
:101BD000C2CF9B2C91FE6ACF8D818F7D853409F019
:101BE00056C0580121E0A21AB108A114B10409F4A9
:101BF0005DCFC6010E9473149E838D8397FD56CFDF
:101C000099278B32910529F08D9781F4892D806178
:101C1000982E580192E0A91AB108A114B10409F450
:101C200045CFC6010E9473149E838D838D819E8152
:101C3000C0970A9708F03ACF8501A12CB12CB501C5
:101C4000882777FD8095982F2D81205340E20E94B0
:101C5000900BAB01BC015A0101501109011511058E
:101C600071F0C60149835A836B837C830E9473148D
:101C70009E838D83C09749815A810A9700F394FE11
:101C800004C0AA24BB24A41AB50AEA0CFB1C012B2D
:101C900041F0ED81FE81F7FD04C0B601CF010E9445
:101CA0004E15C301B2010E946A11F7FE08C0F194FB
:101CB000E194F108F7E1AF2EF9E0BF2E04C0EFE2A6
:101CC000AE2EE9E0BE2E6501F8E1CF1AD10800E2A0
:101CD00010E0F5014590559065907490E016F1067E
:101CE00038F0A30192010E94BE12E01AF10AF6CF69
:101CF00024E0A21AB10816950795AC14BD0449F763
:101D000097FE05C0DC01CB01B058BC01CD01211408
:101D1000310429F0F101608371838283938381E030
:101D200026960FB6F894DEBF0FBECDBFDF91CF91E0
:101D30001F910F91FF90EF90DF90CF90BF90AF90E9
:101D40009F907F906F905F904F903F902F9008955D
:101D5000A1E0B0E0EEEAFEE00C9423108C012B0130
:101D60007A01FC0117821682A12CF801D380F201BE
:101D7000D3FC8591D3FE8191382F2F01882309F45C
:101D800016C190E039830E941E143981892B21F0FD
:101D9000C8010E94B00BE9CF353241F4F201D3FC07
:101DA0003591D3FE31912F01353269F4C801398361
:101DB0000E947314398197FDF8C03817B1F2B80149
:101DC0000E944E15F4C03A3241F4D3FC3591D3FE53
:101DD00031912F01BB24B39401C0B12C812C912CE3
:101DE00020ED230F2A3088F4FB2DF260BF2EB401C2
:101DF00080E090E040E20E94900B4B01F201D3FCA6
:101E00003591D3FE31912F01EBCFB1FE04C0811487
:101E1000910421F4CCC088248A94982C383619F087
:101E20003C3661F014C0F201D3FC3591D3FE319100
:101E30002F01383661F4FB2DF860BF2E8B2D8460A6
:101E4000B82EF201D3FC3591D3FE31912F0133230B
:101E500009F4ADC0632F70E086EE98E039830E94EC
:101E60002E143981892B09F4A2C0B0FC07C0F701F8
:101E7000C080D180C70102967C0102C0C12CD12C48
:101E80003E3651F4F8014681578160E070E02B2D19
:101E9000C6010E94840B69CF3336C9F4B1FC03C07C
:101EA00088248394912CC8010E94731497FD7DC0EF
:101EB000C114D10429F0F6018083C60101966C019A
:101EC00091E0891A91088114910469F76AC03B3541
:101ED00059F49201A601B401C8010E947F0C2C01A3
:101EE000009709F05EC058C0C80139830E94B00B4A
:101EF000398197FD5AC03F36F1F140F43436B9F1DB
:101F00003936E1F1383509F040C02DC03337B9F02A
:101F100018F4303741F139C0353749F1383719F104
:101F200034C0C114D10429F0F6016082C6010196C3
:101F30006C0191E0891A91088114910471F0C80133
:101F40000E9473143C0197FD08C00E941E14892B47
:101F500041F3B801C3010E944E15C114D10409F127
:101F6000F60110821EC0FB2DF064BF2E07C08B2D22
:101F70008062B82E03C09B2D9061B92E2B2DA60137
:101F8000B401C8010E94C90B05C0A601B401C80173
:101F90000E942A0D811105C0F8018381807329F404
:101FA00006C0B0FCE2CEA394E0CEAA2019F08A2DA0
:101FB00090E002C08FEF9FEF2196E0E10C943F107C
:101FC0000E945E10A59F900DB49F900DA49F800D60
:101FD000911D11240895AA1BBB1B51E107C0AA1F24
:101FE000BB1FA617B70710F0A61BB70B881F991FBA
:101FF0005A95A9F780959095BC01CD010895A1E26D
:102000001A2EAA1BBB1BFD010DC0AA1FBB1FEE1F72
:10201000FF1FA217B307E407F50720F0A21BB30BBD
:10202000E40BF50B661F771F881F991F1A9469F739
:1020300060957095809590959B01AC01BD01CF0195
:1020400008952F923F924F925F926F927F928F925C
:102050009F92AF92BF92CF92DF92EF92FF920F9337
:102060001F93CF93DF93CDB7DEB7CA1BDB0B0FB641
:10207000F894DEBF0FBECDBF09942A8839884888FE
:102080005F846E847D848C849B84AA84B984C88494
:10209000DF80EE80FD800C811B81AA81B981CE0F8B
:1020A000D11D0FB6F894DEBF0FBECDBFED01089570
:1020B000EE0FFF1F0590F491E02D0994A29FB0014F
:1020C000B39FC001A39F700D811D1124911DB29F6C
:1020D000700D811D1124911D08955058BB27AA270A
:1020E0000ED0ACC19DD130F0A2D120F031F49F3F91
:1020F00011F41EF492C10EF4E095E7FB5FC1E92FE5
:10210000AED180F3BA17620773078407950718F0FA
:1021100071F49EF5DDC10EF4E0950B2EBA2FA02DC3
:102120000B01B90190010C01CA01A0011124FF2784
:10213000591B99F0593F50F4503E68F11A16F0407F
:10214000A22F232F342F4427585FF3CF469537957E
:102150002795A795F0405395C9F77EF41F16BA0B43
:10216000620B730B840BBAF09150A1F0FF0FBB1FF1
:10217000661F771F881FC2F70EC0BA0F621F731F3A
:10218000841F48F4879577956795B795F7959E3F97
:1021900008F0B3CF9395880F08F09927EE0F979525
:1021A00087950895E7D008F481E008950CD046C1E2
:1021B0003ED140F035D130F021F45F3F19F0FEC040
:1021C000511187C12AC14BD198F39923C9F35523E3
:1021D000B1F3951B550BBB27AA276217730784071A
:1021E00038F09F5F5F4F220F331F441FAA1FA9F3D0
:1021F00033D00E2E3AF0E0E830D091505040E695C2
:10220000001CCAF729D0FE2F27D0660F771F881F22
:10221000BB1F261737074807AB07B0E809F0BB0B11
:10222000802DBF01FF2793585F4F2AF09E3F510535
:1022300068F0C4C04EC15F3FECF3983EDCF3869576
:1022400077956795B795F7959F5FC9F7880F911DAB
:102250009695879597F90895E1E0660F771F881F97
:10226000BB1F621773078407BA0720F0621B730B4A
:10227000840BBA0BEE1F88F7E0950895F8D088F02C
:102280009F5790F0B92F9927B751A0F0D1F0660F62
:10229000771F881F991F1AF0BA95C9F712C0B1307D
:1022A00081F016D1B1E0089513C1672F782F8827E8
:1022B000B85F39F0B93FCCF3869577956795B395BC
:1022C000D9F73EF490958095709561957F4F8F4F2B
:1022D0009F4F0895E89409C097FB3EF49095809530
:1022E000709561957F4F8F4F9F4F9923A9F0F92FDC
:1022F00096E9BB279395F695879577956795B7955A
:10230000F111F8CFFAF4BB0F11F460FF1BC06F5F3F
:102310007F4F8F4F9F4F16C0882311F096E911C051
:10232000772321F09EE8872F762F05C0662371F072
:1023300096E8862F70E060E02AF09A95660F771F86
:10234000881FDAF7880F9695879597F90895A9D091
:1023500080F09F3740F491110EF0BBC060E070E058
:1023600080E89FEB089526F41B16611D711D811DE9
:102370002BC045C0990F0008550FAA0BE0E8FEEFEF
:1023800016161706E807F907C0F012161306E40739
:10239000F50798F0621B730B840B950B39F40A2632
:1023A00061F0232B242B252B21F408950A2609F410
:1023B000A140A6958FEF811D811D089597F99F6714
:1023C00080E870E060E00895882371F4772321F0BD
:1023D0009850872B762F07C0662311F499270DC0DC
:1023E0009051862B70E060E02AF09A95660F771F77
:1023F000881FDAF7880F9695879597F908959F3F7C
:1024000031F0915020F4879577956795B795880FAF
:10241000911D9695879597F908959FEF80EC089503
:1024200000240A94161617061806090608950024B3
:102430000A9412161306140605060895092E03942D
:10244000000C11F4882352F0BB0F40F4BF2B11F4A1
:1024500060FF04C06F5F7F4F8F4F9F4F089557FD00
:102460009058440F551F59F05F3F71F04795880F02
:1024700097FB991F61F09F3F79F087950895121699
:1024800013061406551FF2CF4695F1DF08C0161645
:1024900017061806991FF1CF8695710561050894F6
:1024A0000895E5DFA0F0BEE7B91788F4BB279F3891
:1024B00060F41616B11D672F782F8827985FF7CF25
:1024C000869577956795B11D93959639C8F30895CC
:1024D000E894BB2766277727CB0197F908954ADF51
:1024E00008F48FEF08950AD029ED3BE54EED5EE349
:1024F00045C00EF084CF91CF689460CFB8DFC8F3A9
:102500009923D1F3C6F3DF93CF931F930F93FF92D9
:10251000C92FDD2788232AF02197660F771F881F90
:10252000DAF720E030E040E85FEB9FE3883920F005
:10253000803E30F021968F77D1DDE2E8F0E003C0F5
:10254000CDDDEFEAF0E07DD08B01BE01EC01FB2E8A
:102550006F5771097595771F880B990BBDDE28E1C0
:1025600032E741E35FE316D0AF2D9801AE01FF9053
:102570000F911F91CF91DF91C2DD60CF0BD05ECF65
:102580004FDF28F054DF18F0952309F017CF45CF1F
:1025900011249FCF64DFA0F3959FD1F3950F50E0F6
:1025A000551F629FF001729FBB27F00DB11D639F05
:1025B000AA27F00DB11DAA1F649F6627B00DA11DAB
:1025C000661F829F2227B00DA11D621F739FB00D51
:1025D000A11D621F839FA00D611D221F749F3327C1
:1025E000A00D611D231F849F600D211D822F762F5A
:1025F0006A2F11249F5750408AF0E1F088234AF057
:10260000EE0FFF1FBB1F661F771F881F91505040A2
:10261000A9F79E3F510570F0D1CE5BCF5F3FECF341
:10262000983EDCF3869577956795B795F795E7958E
:102630009F5FC1F7FE2B880F911D9695879597F99F
:102640000895DF93CF931F930F93FF92EF92DF9242
:102650007B018C01689405C0DA2EEF019BDFFE013F
:10266000E894A5912591359145915591AEF3EF01EF
:1026700046DDFE019701A801DA9479F7DF90EF902B
:10268000FF900F911F91CF91DF910895283008F0AE
:1026900027E03327DA01990F311D87FD91600096FD
:1026A0006105710539F432602E5F3D9330E32A9560
:1026B000E1F708959F3F30F080387105610509F01A
:1026C0003C5F3C5F3D93913008F08068911DDF9343
:1026D000CF931F930F93FF92EF92192F987F9695A8
:1026E000E92F96959695E90FFF27E357F64F99271F
:1026F0003327EE24FF24A701E701059008940794EF
:1027000028F4360FE71EF81E491F511D660F771F6C
:10271000881F991F0694A1F70590079428F4E70EE7
:10272000F81E491F561FC11D770F881F991F661F6E
:102730000694A1F70590079428F4F80E491F561F38
:10274000C71FD11D880F991F661F771F0694A1F719
:102750000590079420F4490F561FC71FD81F990FE3
:10276000661F771F881F0694A9F78491109517702C
:1027700041F0D695C79557954795F794E7941A95E4
:10278000C1F7E3E3F9E068941590159135916591EF
:10279000959105907FE27395E118F10A430B560B72
:1027A000C90BD009C0F7E10CF11E431F561FC91F0A
:1027B000D01D7EF4703311F48A95E6CFE894015071
:1027C00030F0080F0AF40027021708F4202F239591
:1027D000022F7A3328F079E37D932A95E9F710C028
:1027E0007D932A9589F60694979567953795179561
:1027F0001794E118F10A430B560BC90BD00998F056
:1028000023957E9173957A3308F070E37C932013BF
:10281000B8F77E9170617D9330F0839571E37D937D
:1028200070E32A95E1F71124EF90FF900F911F912B
:10283000CF91DF91992787FD909508959111BBC1A4
:10284000803219F089508550D0F70895911108957C
:1028500081548A5108F4805E855A0895FC010590E0
:10286000061621F00020D9F7C00108953197CF0155
:102870000895FC010590615070400110D8F78095D3
:1028800090958E0F9F1F0895FB01DC0104C08D9170
:102890000190801921F441505040C8F7881B990BD2
:1028A0000895FB01DC0102C001900D92415050409F
:1028B000D8F70895FB01DC014150504030F08D9174
:1028C0000190801919F40020B9F7881B990B08951D
:1028D000FC016150704001900110D8F780959095EF
:1028E0008E0F9F1F0895CF93DF93EC012B8120FF64
:1028F00033C026FF0AC02F7B2B838E819F810196D8
:102900009F838E838A8190E029C022FF0FC0E881D7
:10291000F9818081992787FD9095009719F42062AD
:102920002B831AC03196F983E8830EC0EA85FB85B4
:10293000099597FF09C02B81019611F480E101C030
:1029400080E2822B8B8308C02E813F812F5F3F4F17
:102950003F832E83992702C08FEF9FEFDF91CF91A6
:1029600008950F931F93CF93DF93182F092FEB0137
:102970008B8181FD03C08FEF9FEF20C082FF10C0CD
:102980004E815F812C813D81421753077CF4E881A1
:10299000F9819F012F5F3F4F39832883108306C041
:1029A000E885F985812F0995892B29F72E813F81AB
:1029B0002F5F3F4F3F832E83812F902FDF91CF9149
:1029C0001F910F910895AEE0B0E0E9EEF4E10C94B0
:1029D0002F100D891E898F89988D26E02C831A83EC
:1029E000098397FF02C080E090E801979E838D8362
:1029F000AE01455E5F4F698D7A8DCE0101960E94D2
:102A000009084D815E8157FD0AC02F813885421724
:102A100053070CF49A01F801E20FF31F10822E966F
:102A2000E4E00C944B10AEE0B0E0E9E1F5E10C9489
:102A30002F100D891E8986E08C831A8309838FEFFE
:102A40009FE79E838D83AE01475E5F4F6F89788DD0
:102A5000CE0101960E940908EF81F885E00FF11F71
:102A600010822E96E4E00C944B10AEE0B0E0EBE365
:102A7000F5E10C94311085E08C838B899C899A83D5
:102A80008983AE01495E5F4F6D897E89CE010196D3
:102A90000E94A80E2E96E2E00C944D10FB012381BB
:102AA00020FF12C026FD10C08F3F3FEF930761F05B
:102AB00082832F7D20642383268137812150310931
:102AC00037832683992708958FEF9FEF0895FA01A2
:102AD000AA27283051F1203181F1E8946F936E7F5D
:102AE0006E5F7F4F8F4F9F4FAF4FB1E03ED0B4E04E
:102AF0003CD0670F781F891F9A1FA11D680F791F8F
:102B00008A1F911DA11D6A0F711D811D911DA11D9F
:102B100020D009F468943F912AE0269F11243019AF
:102B2000305D3193DEF6CF010895462F4770405D4A
:102B30004193B3E00FD0C9F7F6CF462F4F70405DF9
:102B40004A3318F0495D31FD4052419302D0A9F754
:102B5000EACFB4E0A6959795879577956795BA954E
:102B6000C9F700976105710508959B01AC010A2E14
:102B700006945795479537952795BA95C9F7620FEB
:102B8000731F841F951FA01D0895F999FECF92BD54
:102B900081BDF89A992780B50895262FF999FECF1F
:102BA0001FBA92BD81BD20BD0FB6F894FA9AF99A6A
:102BB0000FBE01960895992788270895F894FFCFAE
:102BC000FF5A00703C494E543E25640025660000C3
:103000001895CF92DF92EF92FF92CF93C62F682F41
:1030100070E080E090E00E946C116B017C016C2FED
:1030200070E080E090E00E946C1120E030E040E829
:103030005BE30E94BE129B01AC01C701B6010E9476
:103040006E10CF91FF90EF90DF90CF9008958F9208
:103050009F92AF92BF92CF92DF92EF92FF92CF9367
:10306000DF936B017C01E901642F70E080E090E068
:103070000E946C114B015C01688170E080E090E07F
:103080000E946C1120E030E040E85BE30E94BE1239
:103090009B01AC01C501B4010E946E109B01AC0103
:1030A000C701B6010E946E106B017C0120E030E088
:1030B000A9010E94D21087FD12C020E038EF4EE730
:1030C00053E4C701B6010E946F1218165CF4C12CBC
:1030D00088EFD82E8EE7E82E83E4F82E03C0C12CAB
:1030E000D12C760120E030E040E05BE3C701B6017F
:1030F0000E946E106B017C010E94A7119B01AC0124
:10310000C701B6010E946D1020E030E040E853E4B2
:103110000E94BE120E943E116883C701B6010E9440
:103120003E11862FDF91CF91FF90EF90DF90CF90EF
:10313000BF90AF909F908F900895CF92DF92EF92C3
:10314000FF926B017C0120E030E0A9010E946F1228
:1031500087FF04C0C701B601905802C0C701B6017D
:1031600020E030E040E251E40E946E100E947312B1
:1031700020E030E040E05FE30E94BE129B01AC0122
:10318000C701B6010E94BE122FE832EC45E35FE3AF
:103190000E94BE12FF90EF90DF90CF9008954F9263
:1031A0005F926F927F928F929F92AF92BF92CF92D7
:1031B000DF92EF92FF921F93CF93DF93CDB7DEB7ED
:1031C00028970FB6F894DEBF0FBECDBF80912105C2
:1031D00090912205A0912305B091240589839A83BB
:1031E000AB83BC8310E1C12CD12C760126013701C1
:1031F0001150E12FF0E0ED54FB4F608170E080E072
:1032000090E00E946C1129813A814B815C810E947F
:103210006D104B015C0120E030E0A9010E946F12AB
:1032200087FF04C0C501B401905802C0C501B401B4
:1032300020E030E040E251E40E946E100E947312E0
:1032400020E030E040E05FE30E94BE126D837E83A9
:103250008F8398879B01AC01C501B4010E94BE1207
:103260002FE832EC45E35FE30E94BE129B01AC0104
:10327000C301B2010E946E102B013C012D813E81E1
:103280004F815885C701B6010E946E106B017C0109
:103290001111AECF9B01AC01C301B2010E94D61047
:1032A0009B01AC0169817A818B819C810E946E10A7
:1032B0006093210570932205809323059093240544
:1032C000C0921D05D0921E05E0921F05F0922005C8
:1032D00028960FB6F894DEBF0FBECDBFDF91CF9119
:1032E0001F91FF90EF90DF90CF90BF90AF909F9095
:1032F0008F907F906F905F904F9008950F931F93E2
:10330000CF93DF938C01EA019A01AB016DE273E088
:1033100081E00E940028AE016DE273E0C801DF91F8
:10332000CF911F910F910C945A140F931F93CF9329
:10333000DF938C01EA019A01AB016DE273E081E059
:103340000E940028AE016DE273E0C801DF91CF91C9
:103350001F910F910C94441425E04AE158E061E07C
:1033600081E00C941F2A2F923F924F925F926F92AE
:103370007F928F929F92AF92BF92CF92DF92EF9205
:10338000FF920F931F93CF93DF93CDB7DEB72897AC
:103390000FB6F894DEBF0FBECDBFA8950E949E0663
:1033A0000E940E2581E00E943229882309F4DCC2A4
:1033B00081E00E94D829182F80E00E94D82990919E
:1033C000F2049F7009F022C210FD02C00C94FE218D
:1033D00014FF04C081E00E94FE26C6C2107F11F0D7
:1033E0000C94FE214FE76DE274E081E00E944F29CA
:1033F00081E00E94432946E050E06AED77E08DE2EB
:1034000094E00E947E19892B41F52CE130E04DE7D4
:1034100051E06DE273E081E00E94002880913B055D
:1034200090913C059C0133273F932F931F929F93CC
:1034300080913E058F9380913D058F938FE395E0BA
:103440009F938F938DE293E09F938F938DEA93E008
:103450009F938F930E941315CCC147E050E067E320
:1034600078E08DE294E00E947E19892B21F480910E
:10347000F1048E7F0DC046E050E061E378E08DE21C
:1034800094E00E947E19892B31F48091F1048160CF
:103490008093F10469C247E050E06AE278E08DE28F
:1034A00094E00E947E19892B21F48091F1048D7F94
:1034B000EFCF46E050E064E278E08DE294E00E94D5
:1034C0007E19892B21F48091F1048260E1CF45E0DF
:1034D00050E06FE178E08DE294E00E947E19892B44
:1034E00021F48091F104837276C045E050E06AE1F6
:1034F00078E08DE294E00E947E19892BB1F523E4F7
:1035000030E04AE854E06DE273E081E00E94002878
:103510001F9289ED8F931F9286E98F938DE293E03E
:103520009F938F931F928FE78F938DEA93E09F93E2
:103530008F930E94E314282F4DEA53E060E080E06F
:103540000E941F2A24E441E957E061E080E00E94E4
:103550001F2A8091F204807F81608093F204809121
:10356000F1048F7E8093F1044BC145E050E065E1AA
:1035700078E08DE294E00E947E19892B79F48091A5
:10358000F10482FB992790F921E0922790FB82F9C0
:103590008093F10482FFE8C1877F45C047E050E097
:1035A0006EE078E08DE294E00E947E19892B29F488
:1035B0008091F104837280640EC047E050E067E0C0
:1035C00078E08DE294E00E947E19892B31F480919D
:1035D000F1048372806880625BCF45E050E065ED66
:1035E00077E08DE294E00E947E19892B81F347E019
:1035F00050E060E078E08DE294E00E947E19892B33
:1036000021F48091F104877F43CF46E050E06AEFD8
:1036100077E08DE294E00E947E19892B31F480914D
:10362000F10488608B7F8F7E33CF47E050E062EFFC
:1036300077E08DE294E00E949519892B09F044C04F
:103640008FEC94E09F938F9389E091E09F938F9309
:1036500085E394E09F938F930E9435158091CF046A
:103660009091D0040E948E2640E650E062E08FECFC
:1036700094E00E94BC2883E00E9426289A838983D4
:103680004EE750E062E0CE0101960E94BC2883E044
:103690000E94EE282AE230E043E551E06DE273E05B
:1036A00081E00E9400288091D0048F938091CF0404
:1036B0008F938DE293E09F938F938DEA93E09F9396
:1036C0008F930E94131595C045E050E06DEE77E0B2
:1036D0008DE294E00E947E19892B81F48091F1049F
:1036E00084FB992790F921E0922790FB84F980933D
:1036F000F10484FF39C1877F8B7FCACE49E050E057
:1037000064EE77E08DE294E00E947E19892BB9F493
:1037100048E550E062E08FEE94E00E94BC2882E031
:103720000E9426289A8389834EE550E062E0CE010C
:1037300001960E94BC2882E00E94EE2815C10DE28D
:1037400014E080912D048B3279F488E195E09F9309
:103750008F938CE091E09F938F938EE294E09F9300
:103760008F930E94351521C08D3259F588E195E07F
:103770009F938F938CE091E09F938F938EE294E0E0
:103780009F938F930E94351580911805909119058C
:10379000A0911A05B0911B05B0588093180590931D
:1037A0001905A0931A05B0931B058091F1048F7E33
:1037B0008093F1040F900F900F900F900F900F9047
:1037C000D3C021E330E04DEC54E06DE273E081E0E2
:1037D0000E9400281F930F938DE293E09F938F9395
:1037E0001F928FE78F938DEA93E09F938F930E94B0
:1037F000E314282F4DEA53E060E080E00E941F2A86
:103800000FB6F894DEBF0FBECDBFAEC080FDF6C5CB
:1038100081E00E944329E091F204EF70F0E03197DB
:10382000ED30F10508F09BC0EC5CFF4F0C94581094
:103830002FE642E257E061E080E00E941F2A80917B
:10384000F204807F82608EC027E64BEB56E061E099
:1038500080E00E941F2A8091F204807F836082C0F2
:103860002EE24DE856E061E080E00E941F2A809140
:10387000F204807F846076C027E146E756E061E08D
:1038800080E00E941F2A8091F204807F85606AC0D8
:103890002BE24BE456E061E080E00E941F2A809119
:1038A000F204807F86605EC02DE14EE256E061E06A
:1038B00080E00E941F2A8091F204807F876052C0BE
:1038C00020E24EE056E061E080E00E941F2A8091F5
:1038D000F204807F886046C02DE241EE55E061E051
:1038E00080E00E941F2A8091F204807F89603AC0A4
:1038F00025E54CE855E061E080E00E941F2A8091B8
:10390000F204807F8A602EC02FE14DE655E061E031
:1039100080E00E941F2A8091F204807F8B6022C089
:1039200020E34DE355E061E080E00E941F2A809192
:10393000F204807F8C6016C020E34DE055E061E02A
:1039400080E00E941F2A8091F204807F8D600AC06F
:103950002FE04EEF54E061E080E00E941F2A80914A
:10396000F204807F8093F204F894309184003B83CA
:10397000609185006F83C090E504D090E604E090EC
:10398000E704F090E80420918600E09187008091A0
:10399000E9049091EA04A091EB04B091EC047894CE
:1039A0003091D70440911E014317E1F130931E017D
:1039B0004091FB045091FC046091FD047091FE0461
:1039C0004093F5045093F6046093F7047093F80461
:1039D0004091F9045091FA045093F4044093F30495
:1039E000AC01BD01662777274093FB045093FC048C
:1039F0006093FD047093FE0430E03E2B3093FA0494
:103A00002093F90487519C4FAC0160E070E0409333
:103A10001A0150931B0160931C0170931D0199249E
:103A2000939426C080911A0190911B01A0911C01D2
:103A3000B0911D01C816D906EA06FB0608F4C3C4F6
:103A400088519C4FAF4FBF4FC816D906EA06FB06F8
:103A500030F0D701C60187519C4FAF4FBF4F8093C5
:103A60001A0190931B01A0931C01B0931D01912C8E
:103A70008091F10482FF6EC1992009F4C1C0409089
:103A80003705509038056090390570903A0560917F
:103A900027037091280380E090E00E946A11A3013F
:103AA00092010E94BE1220E030E040E85AE30E94FA
:103AB000BE12162F072FB82EA92E609129037091E0
:103AC0002A0380E090E00E946A11A30192010E9403
:103AD000BE1220E030E040E85AE30E94BE12562EAB
:103AE000472E382E292E60912B0370912C0380E0F5
:103AF00090E00E946A1120912F053091300540918D
:103B00003105509132050E946D1020912B053091A6
:103B10002C0540912D0550912E050E94BE1220E0EB
:103B200030E048EC51E40E946E106887872E782EB2
:103B3000692E2DE130E04DE654E06DE273E081E066
:103B40000E940028AF92BF920F931F938091280389
:103B50008F93809127038F934DE2A42E43E0B42EE0
:103B6000BF92AF920DEA13E01F930F930E941315BB
:103B7000282FA80160E080E00E941F2A2DE130E09C
:103B800040E554E0B50181E00E9400282F923F9269
:103B90004F925F9280912A038F93809129038F9394
:103BA000BF92AF921F930F930E941315282FA80165
:103BB00060E080E00E941F2A2DE130E043E354E002
:103BC000B50181E00E9400286F927F928F928885D4
:103BD0008F9380912C038F9380912B038F93BF92AF
:103BE000AF921F930F930E941315282FA80160E036
:103BF00080E00E941F2A0FB6F894DEBF0FBECDBF33
:103C000028E330E04BEF53E06DE273E081E00E9487
:103C10000028BB8190E0FF819F2B9F93BF93FF9271
:103C2000EF92DF92CF923DE2E32E33E0F32EFF924C
:103C3000EF920DEA13E01F930F930E941315282FA4
:103C4000A80160E080E00E941F2A24E730E047E8F6
:103C500053E0B70181E00E9400288091F4048F9323
:103C60008091F3048F938091F8048F938091F704EF
:103C70008F938091F6048F938091F5048F938091B8
:103C8000FA048F938091F9048F938091FE048F93AF
:103C90008091FD048F938091FC048F938091FB04AD
:103CA0008F93FF92EF921F930F930E941315282F6B
:103CB000A80160E080E00E941F2A24E230E043E691
:103CC00053E0B70181E00E9400288091E3041F9235
:103CD0008F938091EF041F928F93FF92EF921F9327
:103CE0000F930E9413150FB6F894DEBF0FBECDBF21
:103CF000282FA80160E080E00E941F2A2DE130E01B
:103D000046E453E0B70181E00E94002880911C0541
:103D10001F928F93FF92EF921F930F930E941315A0
:103D2000282FA80160E080E00E941F2A22E130E0F5
:103D300045E353E0B80181E00E94002822E1A80198
:103D400060E080E00E941F2A0F900F900F900F906C
:103D50000F900F90992009F4AAC28091F10480FF7E
:103D600017C22091FB043091FC044091FD04509156
:103D7000FE048091F5049091F604A091F704B091AF
:103D8000F804281B390B4A0B5B0BA0E2BEE40E942F
:103D9000E00F4B015C018091F9049091FA04A0E0DE
:103DA000B0E02091F3043091F404821B930BA1093D
:103DB000B109880E991EAA1EBB1ED501C4019D52D1
:103DC000A143B1408B839C83AD83BE834090160199
:103DD00050901701609018017090190120E030E0B8
:103DE00040EA50E4C301B2010E94D6106B017C018D
:103DF00099E1891A99E2990A91E3A90A91E0B90A2D
:103E0000AFEC8A16A7E09A06A104B104C0F46B8156
:103E10007C818D819E810E946C11A70196010E9478
:103E20006D109B01AC01C301B2010E946E10609342
:103E300016017093170180931801909319018091D6
:103E40001C05833060F42DEC3CEC4CEC5DE3C701C9
:103E5000B6010E946E106B017C0111E001C010E000
:103E600020E030E04AE754ECC701B6010E946F122F
:103E700018160CF08DC120E030E04AE754E4C70189
:103E8000B6010E94D21087FF83C120E030E040EAF3
:103E900051E4C701B6010E94D610112329F02AE08F
:103EA00037ED43EA5BE303C020E030E0A9010E9464
:103EB0006D10162F072F382E292E0E94CF1820E0C4
:103EC00030E040E053E4C701B60190580E94BE12B2
:103ED0004B015C012091370530913805409139053F
:103EE00050913A0560912705709128058091290528
:103EF00090912A050E94BE129B01AC01C501B4013C
:103F00000E94D6106F83B72EA82E992E0E949D185E
:103F1000862E772E682E9B832FE832EC45E75CEBEC
:103F2000D801F1016B2F7A2F8F2F9E2F0E946F12D5
:103F300087FD15C02FE832EC45E75CE3D801F101BD
:103F40006B2F7A2F8F2F9E2F0E94D21018163CF0C5
:103F500080911C05833008F06CC083E044C02DECD8
:103F60003CEC4CEC5CEBD801F1016B2F702F8F2FE8
:103F7000922D0E946F1287FD15C02DEC3CEC4CEC8D
:103F80005CE3D801F1016B2F702F8F2F922D0E94CF
:103F9000D21018163CF080911C05823009F449C0FB
:103FA00082E021C02FE832EC45EF5CEBD801F10153
:103FB0006B2F702F8F2F922D0E946F1287FD16C0CE
:103FC0002FE832EC45EF5CE3D801F1016B2F702F45
:103FD0008F2F922D0E94D210181644F080911C054C
:103FE000823038F181E080931C0523C020E030E06E
:103FF00048EC51ECD801F1016B2F702F8F2F922DCF
:104000000E946F1287FD13C020E030E048EC51E4BD
:10401000D801F1016B2F702F8F2F922D0E94D2109B
:1040200018162CF080911C058130E1F602C0109228
:104030001C05F8944090EF048091E3048983789400
:1040400080911C058430B8F49E012F5F3F4F442DB2
:10405000F3015B81682D7F2F862D952F0E942718F5
:10406000482EF8948093EF0489818093E304842D93
:104070000E94A12C789480912505E82FF0E0ED5462
:10408000FB4F9091EF0490838F5F8F708093250595
:104090008091F10482FF7CC020E630E048E052E0ED
:1040A0006DE273E081E00E9400282F923F920F930F
:1040B0001F9320E030E040E05FE3C701B6010E94BB
:1040C000BE129F938F937F936F93FF92EF92DF9235
:1040D000CF922DE2E22E23E0F22EFF92EF920DEA34
:1040E00013E01F930F930E941315282FA80160E07F
:1040F00080E00E941F2A2FE630E049E951E0B70135
:1041000081E00E940028642D70E080E090E00E9431
:104110006C111B012C01698170E080E090E00E942D
:104120006C1120E030E040E85BE30E94BE129B018E
:10413000AC01C201B1010E946E109F938F937F93D7
:104140006F93BB81BF936F927F928F929F92AF923A
:10415000BF92FF81FF93809124058F938091230567
:104160008F93809122058F93809121058F93FF92E9
:10417000EF921F930F930E9413150FB6F894DEBFB2
:104180000FBECDBF282FA80160E080E00E941F2A4B
:104190008091F10481FF8BC0E0911C05E33008F4AD
:1041A00086C02091290330912A03809112019091B9
:1041B0001301A0911401B0911501820F931FA11D4D
:1041C000B11D8093120190931301A0931401B09339
:1041D00015012091110131E0320F3093110120318E
:1041E00009F065C0109211014091DF045091E00484
:1041F0006091E1047091E2044093DB045093DC048D
:104200006093DD047093DE048093DF049093E004F8
:10421000A093E104B093E2041092120110921301F2
:1042200010921401109215018C019D01015E114044
:10423000210931090F3F1E402105310588F59C01F8
:10424000241B350BA901445D5E4F4935524028F4CB
:104250003093DA042093D90404C01092DA04109247
:10426000D904E73018F427E020931C058036F9E0E4
:104270009F07A105B10540F48091D9049091DA041B
:104280008D3F9F4F94F413C080369940A105B1052E
:1042900061F08091D9049091DA04049744F405C048
:1042A000E73028F083E080931C052C982D9820E0BF
:1042B00030E0A901609118057091190580911A05E7
:1042C00090911B050E94D210882309F47CC0F894B9
:1042D0001091EF040091E30478940983609118052C
:1042E0007091190580911A0590911B059E012F5F11
:1042F0003F4F412F0E942718D82EF8948093EF0447
:104300000E94A12C89818093E304789426E630E012
:104310004FEC52E06DE273E081E00E9400281F92B2
:104320000F931F921F9380911B058F9380911A0505
:104330008F93809119058F93809118058F939DE23B
:10434000E92E93E0F92EFF92EF920DEA13E01F930E
:104350000F930E941315282FA80160E080E00E94AF
:104360001F2A27E630E048E652E0B70181E00E94CC
:10437000002889811F928F931F92DF9280911B05E5
:104380008F9380911A058F93809119058F93809157
:1043900018058F93FF92EF921F930F930E941315AE
:1043A000282FA80160E080E00E941F2A10921805C3
:1043B0001092190510921A0510921B050FB6F89469
:1043C000DEBF0FBECDBF0E94A92C28960FB6F89471
:1043D000DEBF0FBECDBFDF91CF911F910F91FF9038
:1043E000EF90DF90CF90BF90AF909F908F907F9095
:1043F0006F905F904F903F902F90089581E00E94C2
:104400004329B2CACF93DF9300D0CDB7DEB7F8947B
:1044100081E085BF80E085BF88E10FB6F894809386
:104420006000109260000FBE8FEE8093640080B732
:10443000806880BF80917F00836080937F0085B714
:104440008F7E85BF0E94802C0E94002D0E94402BF1
:104450000E94AB260E94182578940E94232960E0D0
:104460008DE293E00E9494288823D9F080E1EDE268
:10447000F3E0AFE3B5E001900D928A95E1F7109279
:104480004F0580913F039091400390933E058093A8
:104490003D0580913D0390913E0390933C058093B0
:1044A0003B0561E08DE293E00E949428882309F4A3
:1044B00040C080912D0390912E03A0912F03B091C5
:1044C00030038093370590933805A0933905B09356
:1044D0003A058091310390913203A0913303B0915A
:1044E00034038093330590933405A0933505B0933E
:1044F00036058091350390913603A0913703B09132
:10450000380380932F0590933005A0933105B09325
:1045100032058091390390913A03A0913B03B09109
:104520003C0380932B0590932C05A0932D05B0930D
:104530002E0562E08DE293E00E949428882381F0AA
:1045400080913D0390913E03A0913F03B0914003C1
:104550008093270590932805A0932905B0932A05F9
:104560006091F004E3ECF4E0629384E0E33BF8074D
:10457000D9F770E080E090E00E946A116093210515
:1045800070932205809323059093240580E090E0AA
:10459000A0E8B1E480931D0590931E05A0931F052C
:1045A000B09320050E94AC198091F10485FD03C0F1
:1045B0000E94B319F9CFF89488E10FB6F89480936C
:1045C0006000109260000FBE0E942C250E94802681
:1045D0000E946A2B0E94182D0E949B2C14B817B8B9
:1045E0001AB815B818B81BB885B78F7E85BF8091EB
:1045F000F104807CD1F0803481F48FE090EB9A83D9
:1046000089834AEF53E062E0CE0101960E94BC2804
:10461000E0910201F091030106C08038C9F4E091F5
:104620005005F0915105099513C083B7817F8460CF
:1046300083BFF89483B7816083BF85B7806685BFE9
:104640008F7D85BF889583B78E7F83BF7894EDCFAC
:0E46500080E090E00F900F90DF91CF910895E1
:104A0000FC01DB0112968C911297808313968C9196
:104A10001397818314968C918283089580910B055E
:104A200084FF05C065E084E091E00C94770608956A
:104A30000E94F607E898219829988AEF815041F062
:104A4000E7E8F3E13197F1F700C00000A895F6CF51
:104A5000219A299AE89A0895E89821982998089522
:104A6000FC018081982F9076903459F58F7149F52B
:104A7000818181110EC0828180931F018381809387
:104A8000200184818093210185818093220184E02B
:104A900019C0823049F42FB7F8948681978190939A
:104AA000C7048093C6040AC0813059F42FB7F89424
:104AB000868197819093C5048093C4042FBF8FEFA4
:104AC00001C080E02FE131E030936305209362055F
:104AD0000895DF92EF92FF920F931F93CF93DF938E
:104AE000EC01462F8091F10484FF3AC08091C60406
:104AF0009091C704892BA1F1209152053091530563
:104B0000C90168EE73E00E94EB0FCB01EAE0F0E030
:104B1000BF010E94EB0F805D8883C90164E670E0ED
:104B20000E94EB0FCB01BF010E94EB0F805D8983D8
:104B3000C901BF010E94EB0F182FCB01BF010E94DA
:104B4000EB0F805D8A832F5F3F4F30935305209397
:104B50005205105D1B838AE38C8385E0D82E01C04B
:104B6000D12C0D2D10E02091C6043091C70450E0E7
:104B70002417350708F4A9017A01E01AF10A1E1476
:104B80001F0404F580E00E9432298823D9F341E014
:104B90004E0DBE01600F711F80E00E944F29C82F8B
:104BA00080E00E9443290C0F111D2091C604309112
:104BB000C704201B310B3093C7042093C6048C2FED
:104BC0008D0D01C08D2DDF91CF911F910F91FF9021
:104BD000EF90DF9008951F93CF93DF93D62F20910E
:104BE000C4043091C504462F50E042175307C0F467
:104BF000241B350B3093C5042093C4041FB7F894CD
:104C0000C091C3042C2F30E0BC01C901895D9E4FC7
:104C10000E945114CD0FC093C3041FBF80E029C070
:104C2000232BA9F01FB7F894C091C4045091C50478
:104C3000D091C3042D2F30E04C2FBC01C901895DF8
:104C40009E4F0E945114CD0FC093C3041FBF2091EB
:104C5000C30447E251E060E081E00E941F2A8FB761
:104C6000F8941092C5041092C4041092C3048FBF2C
:0A4C700081E0DF91CF911F910895BC
:104D0000F894E1ECF0E08081877080837894589883
:104D1000E4E6F0E080818260808308959C01BC011C
:104D20007695679580E090E060537D4E8C4E9F4F66
:104D300040E050E00E94FF0FDA01C9010197A1098C
:104D4000B109892F9A2FAB2FBB278093C500215023
:104D50002093C4000895809164008D7F8093640047
:104D600085B78F7E85BF589A63E08DE293E00E94FD
:104D700094288823C1F080912D0390912E03909365
:104D8000D0048093CF0480912F03909130039093AF
:104D9000CE048093CD04809131039091320390939F
:104DA000CC048093CB048091CF049091D0040E94D6
:104DB0008E2688E18093C1008091CD049091CE042D
:104DC00023E0280F2370220F392F3073232B8827DD
:104DD00093708FEF890F8170880F880F880F282BB1
:104DE0002093C2008091C6008093C804F8948091FB
:104DF000C10080688093C10078940895CF93C82F34
:104E00008091C90481114EC08091C00085FF4AC0C5
:104E100040E467EA71E08C2F0E944F298093C90417
:104E20008C2F0E9443298091F10483FF1092C904C2
:104E30001092C8048091C9048823C1F1EFEFE80FF4
:104E4000E093C904F0E0E955FE4F90819111809301
:104E5000C904E091C904AE2FB0E0A955BE4F8DE062
:104E60008C9382E08E0F8093C904EF5FF0E0E955E8
:104E7000FE4F8AE080838091C0008F7B8093C000CA
:104E8000E091C80481E08E0F8093C804F0E0E955FA
:104E9000FE4F80818093C6008091C1008062809324
:104EA000C10004C08C2FCF910C944329CF91089559
:104EB0001F920F920FB60F9211242F933F934F938F
:104EC0005F936F937F938F939F93AF93BF93EF9372
:104ED000FF938091C6007894E091CA0421E02E0FE0
:104EE0002093CA04F0E0E951FE4F80838A3061F4D8
:104EF0008091F10483FF08C047EE51E060E080E05C
:104F00000E941F2A1092CA04FF91EF91BF91AF91A6
:104F10009F918F917F916F915F914F913F912F91D1
:104F20000F900FBE0F901F9018951F920F920FB603
:104F30000F9211248F939F93EF93FF93E091C804F6
:104F40008091C904E81750F481E08E0F8093C80463
:104F5000F0E0E955FE4F80818093C60078949091EF
:104F6000C8048091C904981738F08091C1008072FC
:104F70008093C1001092C904FF91EF919F918F918E
:104F80000F900FBE0F901F90189578941F920F925C
:104F90000FB60F9211240F900FBE0F901F9018950F
:105000001F93CF93DF93162F972FBA01882329F090
:10501000C12FD92FA0E0B0E007C0A901812FDF91F7
:10502000CF911F910C945114A217B30739F0FB01D3
:10503000EA0FFB1FE491E9931196F6CF812FDF91E0
:10504000CF911F91089585EA95EA089520E1829F06
:10505000C00111248C60906B0895FC01683000F54C
:10506000878D90E0982F8827268D822B853A25EA18
:105070009207C1F020E1629FB00111246C60706B57
:105080008617970749F0858D90E0982F8827248D03
:10509000822B0196848F958F85EA868F878F02C039
:1050A00080E0089581E008950C94803C0C94943C39
:1050B000EF92FF920F931F93CF93DF931F92CDB781
:1050C000DEB78A017C01081B190B662361F0C80159
:1050D0008E0D9F1D69830E94C515F70181937F0185
:1050E00069816150F2CF0F90DF91CF911F910F91A5
:1050F000FF90EF9008958830A8F490E2899FA00176
:10510000112460E28DE293E00E94582820914C0324
:1051100030E0322F222780914B03282B81E0253A63
:10512000354A09F080E008950F931F93CF93DF93E2
:105130001F92CDB7DEB78C01683010F080E014C04C
:10514000862F69830E947B2869818823B9F383E0D5
:105150000D32180741F0E0E26E9FA001112460E2D9
:10516000C8010E94582881E00F90DF91CF911F91D4
:105170000F9108950C94EA3CFF920F931F93CF93E5
:10518000DF93F62E8C01C42FD52FF40EFC1641F0C0
:10519000F80161918F01CE010E94CD152196F6CFC5
:1051A000DF91CF911F910F91FF9008951F93CF939F
:1051B000DF93EC01162F683060F40E942D2880E206
:1051C000189FA001112460E2CE010E94BC2881E05A
:1051D00001C080E0DF91CF911F910895CF93C82F38
:1051E000883010F080E02DC00E947B288111FACF1A
:1051F0002C2F30E0E0914C03F0E0FE2FEE27809161
:105200004B03E82BA90174E0440F551F7A95E1F791
:105210004C60506BE417F50771F055E0220F331F17
:105220005A95E1F7225C374F40E050E06CE18DE2A7
:1052300093E00E94943C6C2F8DE293E00E94D6286C
:1052400081E0CF910895CF93DF93C0E0D0E08C2F21
:105250000E94EE28D80FCF5FC830C9F78D2FDF919D
:10526000CF910895882319F0E2EDF4E002C0E1ED5A
:10527000F4E08FB7F894908121E020838FBF81E024
:10528000911180E00895882319F0E2EDF4E002C066
:10529000E1EDF4E08FB7F89410828FBF08959F92EC
:1052A000AF92BF92CF92DF92EF92FF920F931F9334
:1052B000CF93DF93B82EEB019FB7F894882329F0A2
:1052C0000091D6048091D50404C00091D40480914B
:1052D000D3049FBF081709F45AC0423008F457C0DE
:1052E000BB2029F027EAC22E22E0D22E04C097E28A
:1052F000C92E92E0D92EE42FF0E03197682F70E0AC
:10530000801718F4202F30E002C020E830E0261B80
:10531000370BE217F3070CF49F01A22E7901FF244B
:10532000EE19FF09801710F010E002C000E010E055
:10533000E017F1070CF48F01902EAA2031F06C0DCC
:105340007D1DA701CE010E945114992049F0A801AA
:105350005527B601CE018E0D9F1D0E945114A90C38
:10536000CA0DD11D18829FB7BB2041F0F8948091DF
:10537000D5048A0D8F778093D50407C0F894809167
:10538000D3048A0D8F778093D3049FBF04C041114B
:1053900001C01882A12C8A2DDF91CF911F910F910E
:1053A000FF90EF90DF90CF90BF90AF909F900895C7
:1053B0003FB7F894882329F09091D6042091D50422
:1053C00004C09091D4042091D3043FBF291779F0F1
:1053D000882319F087EA92E002C087E292E0FC019C
:1053E000E20FF11D8081843221F081E0089580E098
:1053F000089581E10895CF93C82F8C2F0E94322900
:105400008823B9F02FB7CC2331F0F8948091D604DB
:105410009091D50405C0F8948091D4049091D30460
:105420002FBF981751F08C2F0E944329A8950E94F6
:105430009E06A8950E949E06E0CFCF9108956F9298
:105440007F928F929F92AF92BF92CF92DF92EF9214
:10545000FF920F931F93CF93DF931F92CDB7DEB7C9
:10546000B82EA62E7A0129830E94FB298FB7F894C3
:105470002981BB2029F05091D6044091D50404C065
:105480005091D4044091D3048FBFA52FB0E0642F76
:1054900070E0CD0101968617970709F462C05F3767
:1054A00019F4442309F45DC0BB2019F007EA12E0A7
:1054B00002C007E212E030E0541728F4FB01EA1BB7
:1054C000FB0B31970CC0E0E8F0E0EA1BFB0B81E03E
:1054D00090E0442311F080E090E0E81BF90B2E17D8
:1054E0003F070CF4F9019E2E6F01DD242C193D09B4
:1054F000541728F0442319F06150710902C060E08C
:1055000070E03B01261737070CF43901862C9920EF
:1055100041F0B8016A0F7B1F9601A7018A2D0E94F6
:105520000028882051F093013327A7014C0D5D1D01
:10553000B8018A2D0E940028980C9FB7BB2041F02B
:10554000F8948091D604890D8F778093D60407C094
:10555000F8948091D404890D8F778093D4049FBFF1
:1055600001C0912C8B2D0E944329892D0F90DF9132
:10557000CF911F910F91FF90EF90DF90CF90BF9050
:0C558000AF909F908F907F906F900895E7
:105680003C9AE4E6F0E080818E7F80831092D7041C
:10569000EFE7F0E080818360808383E080937E0089
:1056A000EBE7F0E080818F7B8083EAE7F0E08081A8
:1056B0008768808380B787E180BF81E18093D804C9
:1056C00081E480937C008081806580838081886014
:1056D0008083089580B78777806880BF87E0809354
:1056E0007A0010927B0010927C00E4E6F0E080816A
:1056F000816080833C9808951F920F920FB60F929D
:1057000011242F933F934F935F936F937F938F93C6
:105710009F93AF93BF93EF93FF934498809178004A
:1057200020917900789490E0922B2091D804283031
:1057300021F168F42223A1F0213019F590932A0376
:105740008093290380E18093D80480E41EC0213136
:1057500009F1283171F02031A1F41092D80417C05A
:10576000909328038093270388E18093D80488ECE2
:105770000CC088E08093D8040AC090932C038093D7
:105780002B0381E18093D80481E480937C000E9404
:10579000030808C081E08093D8048091D7048F5F0C
:1057A0008093D704FF91EF91BF91AF919F918F911B
:1057B0007F916F915F914F913F912F910F900FBE0D
:0657C0000F901F901895E8
:105900000E94C03B82E00E947B28882369F048E522
:1059100050E061E080EF94E00E9458288091F0040C
:105920008093EF040E94DC3BA89A80916E00816016
:1059300080936E000895EEE6F0E0808180830C9401
:10594000D03B0C94DC3B882311F0359A08953598B0
:1059500008950C94DE3B0C94E13B1F920F920FB61E
:105960000F9211248F939F938091EF0488BD9091A3
:10597000E4048091E304981718F488B58F5F88BD1C
:1059800078948091E404885F8093E4049F918F91E0
:0A5990000F900FBE0F901F901895A6
:105A0000E4E6F0E08081877F808310928500109229
:105A100084008EE4809389008FE180938800109247
:105A2000800089E48093810082E280936F00089572
:105A300010926F0010928100E4E6F0E080818860AF
:105A4000808308951F920F920FB60F9211248F93A7
:105A50009F93AF93BF938091E5049091E604A0914A
:105A6000E704B091E8040196A11DB11D8093E504FF
:105A70009093E604A093E704B093E8047894BF9170
:105A8000AF919F918F910F900FBE0F901F9018951F
:105A90001F920F920FB60F9211242F933F934F93A3
:105AA0008F939F93AF93BF93EF93FF9320918600C3
:105AB000409187008091E5049091E604A091E7046D
:105AC000B091E8047894449AEAE7F0E030813064D9
:105AD0003083F89430E0342B3093EE042093ED04BF
:105AE0008093E9049093EA04A093EB04B093EC0450
:105AF0007894FF91EF91BF91AF919F918F914F91CA
:0E5B00003F912F910F900FBE0F901F901895A0
:10778000E4E6F0E080818F7D808316BC8AEB88BDC3
:1077900083E284BD81E085BD559A459A3D9A08955E
:1077A0003D98559815BC14BC18BC16BCE4E6F0E036
:1077B000808180628083089588BD089580E286B9C3
:1077C000089580E286B9E7E8F3E13197F1F700C068
:0677D0000000A895F7CFB0
:1078C0005B98089589B183FB882780F991E0892727
:1078D000089585B78F7E85BF53985B9A8AE0815063
:1078E00041F0A895E7E8F3E13197F1F700C0000017
:0C78F000F6CF0E94623C809326050895AC
:10790000E0E0F0E083E080935700E89507B600FCE4
:10791000FDCFE058FF4FE11590E7F907A1F781E1AE
:1079200080935700E89508950F931F93CF93DF93AB
:10793000722F022F132F9A01A1E0A71BD02FC02F67
:10794000C71B6623F9F00F3F4FE6140721053105E9
:1079500030F4F80145915491B42F452F02C0BFEF88
:107960004FEFFC01EC0FF11DB083613059F0DA0FDD
:10797000FC01ED0FF11D40830E5F1F4F2F4F3F4F56
:107980006250DCCFDF91CF911F910F910895EF925C
:10799000FF920F931F93CF93DF931F92CDB7DEB764
:1079A0008A017C01081B190B662361F0C8018E0D4A
:1079B0009F1D69830E94C515F70181937F0169812D
:1079C0006150F2CF0F90DF91CF911F910F91FF90F7
:1079D000EF9008952F923F924F925F926F927F9215
:1079E0008F929F92AF92BF92CF92DF92EF92FF92CF
:1079F0000F931F93CF93DF9300D000D0CDB7DEB7A6
:107A00004C01B12C662309F4B0C0F22FFF77DA01E4
:107A1000C9018F1B9109A109B10989839A83AB839D
:107A2000BC83CC24CA94EFE6DE2EE12CF12CC21AE2
:107A3000D30AE40AF50A862F90E0A0E0B0E0C81669
:107A4000D906EA06FB0610F4D701C60170E8C72E76
:107A5000D12CCF1AD108EE24D7FCE094FE2CC81606
:107A6000D906EA06FB0610F4D701C601782F2F3F8E
:107A7000EFE63E074105510508F077C0F1110AC055
:107A800003E0D02EE981FA81D0925700E89507B63D
:107A900000FCFDCF16E0A12EEB2CF12C14012E0CD6
:107AA0003F1CE21AF30AE80CF91CAA9409F456C028
:107AB00000E010E066246A94762C071700F5280190
:107AC000420E531E40FE11C06101C00ED11EF601D0
:107AD000D080712C7D28F201EE7FDD24D394030148
:107AE000D0925700E895112407C0F101E00FF11F73
:107AF0006080712C77247A940F5F1F4FDECFF5E002
:107B0000DF2EE981FA81D0925700E89507B600FC94
:107B1000FDCF11E110935700E89529013A01E42DBA
:107B2000E21BE717D8F4F201EE7F0591149140FEB5
:107B300002C0E8E001C0E0E0FFEF4F1A5F0A6F0A01
:107B40007F0A02C016950795EA95E2F7F701E40D62
:107B5000F51D3197E081E01711F3A7CF280F391FEA
:107B60004A1F5B1F671BB70E4DCF0F900F900F90F2
:107B70000F90DF91CF911F910F91FF90EF90DF90C9
:107B8000CF90BF90AF909F908F907F906F905F90BD
:107B90004F903F902F900895FF920F931F93CF9394
:107BA000DF93F62E8C01C42FD52FF40EFC1641F076
:107BB000F80161918F01CE010E94CD152196F6CF7B
:0C7BC000DF91CF911F910F91FF9008956D
:00000001FF
