:100000000C9400050C9448050C941D050C941D05DA
:100010000C941D050C941D050C9400180C941D05E2
:100020000C941D050C941D050C94482D0C94222D48
:100030000C941D050C941D050C941D050C941D05B8
:100040000C94AD2C0C941D050C9459270C949627F8
:100050000C94C6270C947C2B0C941D050C941D0548
:100060000C941D050C941D05151C211C2D1C391C00
:10007000451C511C5D1C691C751C811C8D1C991C28
:10008000A51C08000000BE922449123EABAAAA2A71
:10009000BECDCCCC4C3E00000080BEABAAAAAA3E8E
:1000A00000000000BF000000803F000000000008CA
:1000B0004178D3BB4387D1133D190E3CC3BD428267
:1000C000AD2B3E68EC8276BED98FE1A93E4C80EF25
:1000D000FFBE01C4FF7F3F000000000009021900BD
:1000E00001010080690904000001FF00000007050C
:1000F000810308000A12011001FF000008C016DC8D
:10010000050001010203011003500072006F00742A
:10011000006F002D0031002A0344004600340049DE
:1001200000410048002D00310030004D0048007AA9
:10013000002D005200650066002D004F0073006323
:10014000000E03440046003400490041004800040A
:10015000030904436F6D6D756E69636174696F6E39
:100160002062617564207261746520736574207407
:100170006F2025357520626175642E0A004446346F
:100180004941482C25732C253035752C56323025A5
:10019000303375253033752E0023494130323A20F3
:1001A0006D61696E50776D48697374417667203D63
:1001B000202530332E33662C200970776D44657608
:1001C0004C696E5F7374657073203D20252B30334E
:1001D0002E33662C200970776D44657657676874F6
:1001E0005F7374657073203D20252B30332E33668A
:1001F0002C20096E657750776D56616C203D202567
:1002000030332E33660A0A0023494130313A206CDC
:100210006F63616C436C6F636B44696666203D205D
:10022000252B346C64204032304D487A2C20096CE8
:100230006F63616C436C6F636B417667203D202573
:100240002B342E3266204032304D487A2C200971F2
:1002500072674465765F487A203D20252B346448D8
:100260007A204031304D487A2C200970706D203D45
:1002700020252B30322E33660A0023494430323A8F
:10028000202B2F2D204B455920096D61696E507729
:100290006D5465726D696E616C41646A203D202504
:1002A000662C20096C6F63616C4661737450776DC6
:1002B00056616C4E657874203D2025303375202BB7
:1002C000206C6F63616C4661737450776D53756217
:1002D000436D704E657874203D20253033750A0AD1
:1002E0000023494430313A202B2F2D204B455920F3
:1002F000096D61696E50776D5465726D696E616CE0
:1003000041646A203D2025662C200970756C6C5074
:10031000776D56616C4265666F7265202020203DC6
:100320002025303375202B206661737450776D5310
:100330007562436D704265666F7265202020203DB6
:1003400020253033750A0023544131343A203D3D95
:100350003D3D3D3D3D0A0A0023544131333A206D75
:1003600061696E526566436C6B5374617465203DC0
:100370002025750A0023544131323A2050574D2030
:100380003D20253033752C20095375622D50574D73
:10039000203D20253033750A0023544131313A2065
:1003A0006C6F63616C46617374437472316D73205A
:1003B0003D202530396C752C20096C6F63616C46CB
:1003C00061737454434E5431203D20253035752CD3
:1003D00020096C6F63616C5374616D70437472318A
:1003E0006D73203D202530396C752C20096C6F63AE
:1003F000616C5374616D7054434E5431203D20251F
:100400003035750A0023544130333A2054656D70FD
:10041000203D2025303475202825302E3166432993
:100420000A0023544130323A2041444331203D20D8
:1004300025303475202825302E336656290A0023AE
:10044000544130313A2041444330203D202530345E
:1004500075202825302E336656290A000A3D3D3D79
:1004600020444634494148202D203130204D487ADF
:10047000205265666572656E6365204F7363696CB3
:100480006C61746F72203D3D3D0A3D3D3D205665D7
:10049000723A20323025303364253033640A002A22
:1004A0003F2A2020756E6B6E6F776E20636F6D6DC7
:1004B000616E642027257327207265636569766500
:1004C000642C207472792048454C502E0A0A3E0054
:1004D0003D3D3D3D3D3D3D3D3D3D3D0A0A3E002B00
:1004E0002F2D203C50574D2076616C75653E0909D3
:1004F000636F7272656374696F6E2076616C756587
:1005000020746F2062652061646465642E0A005760
:100510005249544550574D09090973746F7265204B
:1005200063757272656E742050574D20617320643C
:10053000656661756C742076616C75652E0A005471
:1005400045535409090909746F67676C6573206323
:100550006F756E74657220746573742E0A0053454E
:10056000524F464609090909737769746368207315
:10057000657269616C20636F6D6D756E696361741E
:10058000696F6E204F46462E0A5345524F4E090959
:1005900009097377697463682073657269616C20F7
:1005A000636F6D6D756E69636174696F6E204F4E18
:1005B0002E0A000A53455242415544203C6261755F
:1005C000643E09090973657474696E672073657206
:1005D00069616C206261756420726174652E0A0025
:1005E0005245424F4F54090909097265626F6F7491
:1005F00020746865206669726D776172652E0A00E5
:100600004C4F4144455209090909656E74657220D1
:10061000626F6F746C6F616465722E0A00494E469A
:100620004F09090909746F67676C65732061646419
:100630006974696F6E616C207072696E7465642094
:10064000696E666F732E0A0048454C500909090906
:1006500074686973206D6573736167652E0A00485D
:10066000414C5409090909706F77657273207468E9
:10067000652064657669636520646F776E202873F2
:100680006C656570206D6F6465292E0A00415043CA
:100690004F46460909090973776974636820415018
:1006A0004320286175746F6D61746963207068619F
:1006B000736520636F6E74726F6C29206F66662E8F
:1006C0000A4150434F4E09090909737769746368F9
:1006D0002041504320286175746F6D6174696320F7
:1006E000706861736520636F6E74726F6C29206F20
:1006F0006E2E0A004146434F4646090909097377A1
:10070000697463682041464320286175746F6D6188
:10071000746963206672657175656E637920636FB5
:100720006E74726F6C29206F66662E0A4146434FC5
:100730004E090909097377697463682041464320AB
:10074000286175746F6D6174696320667265717577
:10075000656E637920636F6E74726F6C29206F6EA3
:100760002E0A000A0A3D3D3D2048454C50203D3DA3
:100770003D0A0A24203C4E4D45412D4D6573736161
:1007800067653E090973656E6473206D65737361F7
:10079000676520746F2074686520475053206D6F23
:1007A00064756C652E0A002A525354002A49444E3F
:1007B0003F002D002B00575249544550574D0054CF
:1007C0004553540053455242415544005345524FFE
:1007D0004E005345524F4646005245424F4F54003B
:1007E0004C4F4144455200494E464F0048454C50FD
:1007F0000048414C54004150434F4E004150434F3C
:100800004646004146434F4E004146434F46460050
:100810004446344941482031304D687A2D5265664E
:10082000D8960000FFFFFFFFFFFFFFFF00000CB0A6
:10083000A52C8F4048E18A3F0080AE4300A0873F4F
:10084000FFFFFFFFFFFFFFFFFFFFFFFF00001CB0E8
:10085000A094184B7097184B000040400000000017
:1008600000003E4300000000BAFFFFFF00002CB074
:10087000C012080100000000FFFFFFFFFFFFFFFFA5
:10088000FFFFFFFFFFFFFFFFFFFFFFFF00003CB088
:1008900000000000FFFFFFFFFFFFFFFFFFFFFFFF64
:1008A000FFFFFFFFFFFFFFFFFFFFFFFF00004CB058
:1008B0006E616E00696E66006364696E6F70737559
:1008C00078585B65666745464700616E006E6669ED
:1008D0006E69747900CDCCCC3D0AD7233C17B7D1D3
:1008E0003877CC2B329595E6241FB14F0A000020B3
:1008F000410000C84200401C4620BCBE4CCA1B0E32
:100900005AAEC59D7400407A10F35A00A0724E187A
:10091000090010A5D4E80000E87648170000E40BB1
:1009200054020000CA9A3B000000E1F50500008077
:10093000969800000040420F000000A086010000D1
:1009400000102700000000E8030000000064000021
:100950000000000A00000000000100000000002C60
:1009600076D888DC674F0823DFC1DFAE59E1B1B725
:1009700096E5E3E453C63AE651997696E8E6C284F2
:1009800026EB898C9B62ED407C6FFCEFBC9C9F400A
:10099000F2BAA56FA5F490055A2AF75C936B6CF92F
:1009A000676DC11BFCE0E40D47FEF520E6B500D005
:1009B000ED902E0300943577050080841E0800001A
:1009C000204E0A000000C80C333333330F986E12E8
:1009D000831141EF8D2114893BE65516CFFEE6DBEE
:1009E00018D1844B381BF77C1D901DA4BBE4242038
:1009F0003284725E228100C9F124ECA1E53D27001A
:100A000011241FBECFEFD8E0DEBFCDBF11E0A0E0C4
:100A1000B1E0E4EDFAE202C005900D92A031B10719
:100A2000D9F715E0A0E1B1E001C01D92AE36B107E3
:100A3000E1F70E9468210C9468150C940000A82F1F
:100A4000B92F8FEF9FEF1BC02D918227282F229562
:100A50002827722F269526952727239526952170DE
:100A6000782F892F82272195207C922F2227769517
:100A70002795972782277695279597278227615074
:100A800018F7809590950895DADF8D939D930895DA
:100A9000CF93CFB7CF93DF93C395339BE9F7339BC6
:100AA00011C0339B0FC0339B0DC0339B0BC0339BD6
:100AB00009C0339B07C0339B05C0339B03C0339BE6
:100AC00001C083C06F93C0915105DD27C85ADA4F2A
:100AD0002F9320E400C065E0339B03C02F916F91FA
:100AE000DECF0F931F934F9345E55F9355E53F93FB
:100AF0003BE014E006B10C702EC06A95C9F031508D
:100B0000D8F106B10C7001130BC0089427952993F6
:100B100020E4555500F46A9569F701E066B10BC011
:100B2000102F66E02695299320E4555518F3E2CF5F
:100B30000FEF66B10000162F455500F0404066E00B
:100B40001C700030E2F221F0000006B10C7003C00E
:100B500006B10C70A9F0011309C00894279568F23A
:100B600000C06A95A9F700E066B1E5CF102F66E0F6
:100B7000269528F20000ECCF11E01CBB002719C01D
:100B80003B503195C31BD04011E01CBB0881033C96
:100B900009F10B34F9F020914F051981110F12134F
:100BA000EDCF4A81441F093651F10D3211F0013E5B
:100BB00029F7009356053F915F914F911F910F9137
:100BC0002F916F91CCB3C0FD67CFDF91CF91CFBF95
:100BD000CF91189520915605222369F31091540561
:100BE000112381F5343082F1309354052093500560
:100BF000109151053BE0311B3093510525C0009108
:100C000054050130FCF40AE54F7049F430910101BC
:100C100034FD1BC000930101C4E4D5E01AC030913B
:100C2000FB0434FD12C00093FB04CCEFD4E011C0F0
:100C3000052710E000C008B919C0052710E0221FE1
:100C400000C01DC04AE502C032ED432FC4E1D0E030
:100C500032E017B11C60439A08B117B95CE020E894
:100C600069E420FF052708B92795179500C0000003
:100C70001C3FF0F66695A8F7A1F720FF052708B9F5
:100C80002795179500001C3FC0F629913A9541F72A
:100C9000037F10915505110F08B9C651D04011F0CE
:100CA00010934F0511E01CBB086017B1137F402F54
:100CB000437F55E05A95F1F708B917B948B97BCF8A
:100CC000CF932091FB042E31F9F02091FB0424FFF7
:100CD00007C03091FC0428E823272093FC0403C0BC
:100CE0002AE52093FB04DC01EDEFF4E0862F8E0F64
:100CF0009D9191938E13FCCFC62F8DEF94E00E94AF
:100D00004405CC5FC093FB04CF910895CF93DF934C
:100D100060915405635067FDE2C080915105CCE0BD
:100D2000D0E0C81BD109C85ADA4F809150058D32E6
:100D300009F0C3C0683009F0D0C083EC809344054B
:100D40008AE580930101109210012881822F80761C
:100D500041F0CE010E943025982F8F3F09F49CC0AE
:100D6000A2C09A813C8110924D058981811113C0E6
:100D70002F71223051F4313841F49091FB0481E01D
:100D80009E3109F080E080934D0510924E052DE4D0
:100D900035E092E07CC0282F2D7F213081F4911125
:100DA00073C0313809F070C0813011F08EE101C09C
:100DB0008AE58093FB048BE48093FC0465C0853056
:100DC00019F49093550560C0863009F044C08B81BA
:100DD000813041F485EF90E0909353058093520564
:100DE00092E135C0823041F48CED90E09093530550
:100DF0008093520599E12BC0833041F5911108C0D1
:100E00008FE491E0909353058093520594E01FC0C6
:100E1000913041F481E491E0909353058093520521
:100E20009EE015C0923041F487E191E09093530524
:100E3000809352059AE20BC0933041F487E091E031
:100E4000909353058093520590E101C090E080E4B7
:100E50008093100128C0883081F0893019F4909374
:100E6000570507C08A3061F08B3071F48BE48093B2
:100E7000FC048AE58093FB0407C027E535E002C047
:100E80002DE435E091E003C02DE435E090E03093AF
:100E900053052093520507C0888187FD9E8180E815
:100EA0008093100107C08F81811104C08E81891742
:100EB00008F4982F9093000110C08091100187FFD3
:100EC0000CC0CE010E94EE258F3F21F48EE180936D
:100ED000010103C08111109200011092540580910C
:100EE000010184FF51C0809100018F3F09F44CC083
:100EF000C82F893008F0C8E08C1B809300019091C6
:100F0000440588E8892780934405CC2359F1309122
:100F1000100137FF09C06C2F85E495E00E94692518
:100F2000C82F893058F51EC0809152059091530505
:100F30002C2F280FA5E4B5E0FC0136FF06C0349144
:100F40003D9331962E13FBCF04C031913D932E1368
:100F5000FCCF01962FEF2C0F820F911D909353051C
:100F6000809352056C2F85E495E00E944405CC5F88
:100F7000CC3041F08FEF8093000104C08FEF80935D
:100F80000001CEE1C093010184E196B19C7049F467
:100F90008150D9F71092550510924F058AE580933C
:100FA000FB04DF91CF910895E9E6F0E08081836052
:100FB0008083E89AEBEFF4E08BE481838AE5808319
:100FC0000895EAE7F0E08081806480830895A3E1DA
:100FD000B0E0EDEEF7E00C94990F6C014B012A01A3
:100FE000FC0117821682838181FF43C3AE014F5FEC
:100FF0005F4F3A01F6019381F40193FD859193FFD0
:1010000081914F01882309F430C3853239F493FD6F
:10101000859193FF81914F01853239F4B60190E0BB
:101020000E94341452012501E5CF10E0F12C20E09C
:101030002032A0F48B3269F030F4803259F08332E0
:1010400069F420612CC08D3239F0803339F421608D
:1010500026C02260246023C0286021C027FD27C04D
:1010600030ED380F3A3078F426FF06C0FAE01F9FC3
:10107000300D1124132F13C04AE0F49E300D1124BB
:10108000F32E20620CC08E3221F426FDEEC22064C5
:1010900006C08C3611F4206802C0883641F4F40191
:1010A00093FD859193FF81914F018111C1CF9BEBFE
:1010B000980F933018F42061805E06C09BE9980F6A
:1010C000933008F071C12F7E26FF16E02F73322E69
:1010D000853619F42064322E08C0863621F4F22FAA
:1010E000F0683F2E02C01111115037FE07C01C33AB
:1010F00050F4EE24E394E10E27E00BC0183038F0F2
:1011000027E017E005C027E04CE3E42E02C0212FC2
:10111000E12C520144E0A40EB11CF2016081718106
:10112000828193810E2DA3010E94C9122C01098195
:1011300000FF02C003FF07C031FC08C032FE09C037
:1011400030E2232E07C02DE2222E04C09BE2292E7E
:1011500001C0212C802F8C7019F0211068C2A8C208
:1011600037FE0FC0E40C04FF04C08A81813309F408
:10117000EA941E1474F5F8E0FE1578F588E0E82E80
:101180002CC036FC2AC0812F90E0841595059CF078
:101190002CEF42162FEF520674F0432D4068342E88
:1011A0000AC0E2E0F0E0EC0FFD1FE10FF11D8081CD
:1011B000803319F411501111F4CF37FE0EC0EE2414
:1011C000E394E10E812F90E0481659062CF414198F
:1011D00004C0EE24E39401C010E037FE06C01414EE
:1011E000150434F4C201019605C085E090E002C008
:1011F00081E090E021100196112331F0212F30E0A1
:101200002F5F3F4F820F931F2F2D30E082179307E0
:1012100014F4F81A01C0F12C832D897049F4FF20D1
:1012200039F0B60180E290E00E943414FA94F7CFCE
:10123000222029F0B601822D90E00E94341433FC64
:1012400009C0FF2039F0B60180E390E00E94341419
:10125000FA94F7CF37FE5AC0942D852D57FE02C061
:1012600090E080E0292E382E20E030E0A2014E19D7
:1012700051095D874C87A201421953095F874E8748
:10128000612F70E044275527461B570B598B488B1D
:101290005FEF2516350649F4B6018EE290E02A8B01
:1012A0003B8B0E9434143B892A89421453046CF00E
:1012B0004C855D854215530544F4EE85FF85E20FAC
:1012C000F31FE60DF71D818101C080E351E0251A6F
:1012D00031082F5F3F4F48895989241635064CF055
:1012E000B60190E02A8B3B8B0E9434142A893B89FB
:1012F000CFCF2414350439F49A81963318F49533FA
:1013000011F404FF81E3B60190E04BC08A81813380
:1013100009F00F7EB60190E00E943414111105C04F
:1013200034FC18C085E690E017C0B6018EE290E06C
:101330000E94341482E0EE24E394E80EF301E80FF7
:10134000F11D8081B60190E00E94341411508E2D61
:1013500091F7E6CF85E490E0B6010E94341457FC83
:1013600005C04114510439F404FF05C0519441945F
:1013700051088DE201C08BE2B60190E00E94341466
:1013800080E39AE0491651042CF08F5F5AE0451A29
:101390005108F7CFB60190E00E943414B601C201A3
:1013A000C0960E94341457C1833631F0833779F0E8
:1013B000833509F058C021C05201E2E0AE0EB11CE5
:1013C000F2018081898301E010E0230114C0520101
:1013D000F2E0AF0EB11CF2014080518026FF03C045
:1013E000612F70E002C06FEF7FEFC2012A8B0E9475
:1013F000EB138C012A892F7715C05201F2E0AF0E52
:10140000B11CF2014080518026FF03C0612F70E0C3
:1014100002C06FEF7FEFC2012A8B0E94BC138C01C8
:101420002A892068322E23FD1AC08F2D90E00817DC
:101430001907A8F4B60180E290E00E943414FA94EF
:10144000F4CFF20137FC859137FE81912F01B6016F
:1014500090E00E943414F110FA9401501109011522
:10146000110579F7F8C0843611F0893659F5520123
:1014700027FF09C0F4E0AF0EB11CF2016081718159
:10148000828193810AC0F2E0AF0EB11CF20160814B
:101490007181882777FD8095982F2F76322E97FFC0
:1014A00009C090958095709561957F4F8F4F9F4FA4
:1014B0002068322E2AE030E0A3010E94F114E82EC9
:1014C000E6183FC0022F853721F40F7E2AE030E076
:1014D0001DC0097F8F3691F018F4883559F0C5C0CA
:1014E000803719F0883711F0C0C0006104FF09C0CF
:1014F000046007C024FF08C0066006C028E030E092
:1015000005C020E130E002C020E132E0520107FFD7
:1015100009C0F4E0AF0EB11CF201608171818281DB
:10152000938108C0F2E0AF0EB11CF20160817181BD
:1015300080E090E0A3010E94F114E82EE6180F77F6
:10154000302E36FE0BC0332D3E7FE11650F434FEB4
:101550000AC032FC08C0332D3E7E05C00E2D332D4F
:1015600003C00E2D01C0012F34FF0CC0FE01EE0D93
:10157000F11D8081803311F4397E08C032FF05C02F
:101580000E5F04C0832F867809F00F5F33FD13C010
:1015900030FF06C01E2D0F1518F41F0D101B0F2D48
:1015A0000F1568F4B60180E290E03B8B0E94341482
:1015B0000F5F3B89F5CF0F1510F4F01A01C0F12C25
:1015C00034FF12C0B60180E390E03B8B0E943414DC
:1015D0003B8932FF17C031FD03C088E790E002C0AD
:1015E00088E590E0B6010CC0832F867859F031FF72
:1015F00002C08BE201C080E237FD8DE2B60190E0CF
:101600000E943414E11638F4B60180E390E00E94A1
:1016100034141150F7CFEA94F301EE0DF11D8081DF
:10162000B60190E00E943414E110F5CF14C0F4E04C
:10163000FF1558F584E0F81A33FE1EC0211026C0AD
:1016400003FF2AC000EB18E0F32DF0713F2EF801E4
:101650008491811124C0FF2009F4E5CCB60180E219
:1016600090E00E943414FA94F6CFF60186819781B7
:1016700026C08FEF9FEF23C0B60180E290E00E946A
:101680003414FA94F110F8CFD9CFF12CB601822D91
:1016900090E00E943414D4CF04EB18E0D5CF311081
:1016A0008052B60190E00E9434140F5F1F4FCFCFDD
:1016B00023E02F1510F483E0BECFF12CC1CF639649
:1016C000E2E10C94B50F20FD09C0FC0123FD05C02B
:1016D00022FF02C07383628351834083089544FDD7
:1016E00010C046FD10C0DB01FC01AA0FBB1FEE1F9E
:1016F000FF1F1094D1F76A0F7B1F8E1F9F1F31E0D1
:1017000003C033E001C034E0660F771F881F991FC4
:101710003150D1F7620F711D811D911D08950F93F6
:101720001F93CF93DF938C01C8010E94F613EC0145
:1017300097FD08C00E94A113892BB1F7B801CE0113
:101740000E94D814CE01DF91CF911F910F9108957F
:10175000A0E0B0E0EEEAFBE00C949F0F7C018B016F
:101760006A01D22F0E94F6139C0133272B323105D8
:1017700021F02D32310559F4D0680150110911F4CE
:1017800080E069C0C7010E94F61397FDF9CFCD2F05
:10179000CD7F2D2F207309F58033F9F4580181E0B6
:1017A000A81AB10809F443C0C7010E94F61397FDB7
:1017B0003EC0282F2F7D283551F4C26402501109F4
:1017C000B1F1C7010E94F61397FF07C030C0D6FFE2
:1017D00002C0C26001C0C2618501812C912C5401FC
:1017E00020ED280F283080F0C4FF04C0B7010E940C
:1017F000D8141AC02A3040F0C6FFF8CF2F7D3FEE34
:10180000320F363098F727504C2FC501B4010E9493
:101810006F0B4B015C01C2600150110959F0C70107
:101820000E94F61397FFDCCFC1FD04C0A9CF812C25
:10183000912C5401C7FF08C0B094A0949094809458
:10184000811C911CA11CB11C2C2FB501A401C60147
:101850000E94630B81E0CDB7DEB7ECE00C94BB0FC8
:10186000A0E2B0E0E6E3FCE00C949B0F4C015B01CE
:101870007A018E010F5F1F4F680180E2F80111921B
:101880008A95E9F7F401638040E050E0712C412C27
:1018900080E0A1E0B0E0F90163FC559063FE519057
:1018A0008F01952D9F01511003C080E090E080C012
:1018B000FEE55F1203C04115510561F1682F70E02C
:1018C000641775074CF46DE5561669F1EDE25E128A
:1018D00003C0442009F103C0411001C0752C692FD9
:1018E000669566956695F601E60FF11D692F67709E
:1018F0008D0102C0000F111F6A95E2F7B8017081D7
:10190000672B6083971559F0971510F49F5FE7CF09
:101910009150E5CF81E004C04424439401C0412CA0
:101920004F5F5F4FB8CF442019F09E8190629E8335
:10193000811103C07724739418C0F6019E012F5DB6
:101940003F4F808180958193E217F307D1F7F2CF63
:10195000E114F10429F0F7018083C70101967C01AD
:1019600091E0A91AB108712CE9F0C4010E94F613A4
:1019700097FD16C0282F269526952695F601E20F8D
:10198000F11D208130E0AC014770552702C035952C
:1019900027954A95E2F720FDDBCFB4010E94D814C9
:1019A000711083CFE114F10411F0F7011082C80126
:1019B000A096E0E10C94B70FA6E0B0E0E2EEFCE008
:1019C0000C94990F5C017B011A010E94F6139E830F
:1019D0008D8399278B32910521F08D9789F410E83A
:1019E00001C010E021E0E21AF10811F480E02DC1FD
:1019F000C5010E94F6139E838D8397FF02C0F6CF28
:101A000010E08D819E810E94A9138936910549F0CD
:101A10008E36910509F03BC06AEC862E68E0962E62
:101A200004C07DEC872E78E0972EEFEF8E1A9E0A89
:101A3000F401319704910023C9F081E0E81AF1081C
:101A400071F0C5010E94F6136C0197FD08C00E9459
:101A5000A913081751F3B501C6010E94D81490EDDF
:101A6000891698E0990609F0C1CF05C0FDEC8F16E4
:101A7000F8E09F0629F080E090E0A0E8BFE704C00E
:101A800080E090E0A0ECBFE7BC01CD01CEC0412CCE
:101A9000512C3201C12CD12C2D8120532A3018F524
:101AA000012F0260812F887012FF06C0811121C0B2
:101AB0002FEFC21AD20A1DC0882319F081E0C81A7C
:101AC000D10840E2C301B2010E946F0B2B013C011F
:101AD00098E9491699E95906690699E1790648F0A5
:101AE000012F066006C02E3F91F413FD10C0012F98
:101AF0000860E1E0EE1AF10849F0C5010E94F61312
:101B00009E838D83102F97FFC7CF01C0102F11FF29
:101B10006DCF8D818F7D853409F04FC04701F1E095
:101B20008F1A910809F462CFC5010E94F6139E83B3
:101B30008D8397FD5BCF99278B32910519F08D9797
:101B400061F41061470122E0821A910809F44ECF36
:101B5000C5010E94F6139E838D838D819E81C0975F
:101B60000A9708F043CF7401812C912CB401882787
:101B700077FD8095982F2D81205340E20E946F0BB6
:101B8000AB01BC014A0181E0E81AF10871F0C5011E
:101B900049835A836B837C830E94F6139E838D83D3
:101BA000C09749815A810A9708F314FF04C088241A
:101BB0009924841A950AC80CD91CEF2841F0ED81AC
:101BC000FE81F7FD04C0B501CF010E94D814C30106
:101BD000B2010E94ED10D7FE08C0D194C194D10883
:101BE00059EE852E58E0952E04C041E0842E49E040
:101BF000942E5401F8E1AF1AB10830E2E32EF12C33
:101C0000CE14DF0450F0F4012591359145915491A3
:101C10000E944112CE18DF08F3CF24E0821A910807
:101C2000F694E7948A149B0459F717FF05C0DC016A
:101C3000CB01B058BC01CD012114310429F0F101D0
:101C4000608371838283938381E02696E2E10C9422
:101C5000B50FA1E0B0E0EFE2FEE00C949B0F6C0149
:101C60002B014A01FC0117821682A12CF601F38098
:101C7000F201F3FC8591F3FE8191482F2F01882317
:101C800009F410C190E049830E94A1134981892B76
:101C900021F0C6010E948F0BE9CF453241F4F201D9
:101CA000F3FC4591F3FE41912F01453269F4C601E1
:101CB00049830E94F613498197FDF2C04817B1F29B
:101CC000B6010E94D814EEC04A3239F4F3FC4591B3
:101CD000F3FE41912F0151E001C050E0320100E0DC
:101CE00010E020ED240F2A3088F45260B80180E023
:101CF00090E040E259830E946F0B8B01F301F3FCEB
:101D00004591F3FE41913F015981EBCFB52E342F20
:101D1000230151FF04C00115110519F4C3C00FEFD1
:101D20001FEF483619F04C3659F013C0F301F3FC9D
:101D30003591F3FE31912F01383659F45860B52EA4
:101D4000FB2DF460BF2EF201F3FC3591F3FE3191CF
:101D50002F01332309F4A6C0632F70E088EB98E0CD
:101D600039830E94B1133981892B09F49BC0B0FCDF
:101D700007C0F401E080F180C40102964C0102C06A
:101D8000E12CF12C3E3651F4F6014681578160E09A
:101D900070E02B2DC7010E94630B68CF3336A9F486
:101DA000B1FC02C001E010E0C6010E94F61397FDED
:101DB00077C0E114F10429F0F7018083C70101968F
:101DC0007C010150110981F767C03B3559F492013C
:101DD000A701B801C6010E94300C2C01009709F040
:101DE0005BC055C0C60139830E948F0B398197FDB6
:101DF00057C03F36D9F140F43436A1F13936C9F134
:101E0000383509F03DC02AC03337A1F018F4303717
:101E100029F136C0353731F1383701F131C0E114DD
:101E2000F10429F0F7016082C70101967C0101509D
:101E3000110971F0C6010E94F6133C0197FD08C01C
:101E40000E94A113892B59F3B601C3010E94D81433
:101E5000E114F10409F1F70110821EC0FB2DF064BA
:101E6000BF2E07C08B2D8062B82E03C09B2D9061C2
:101E7000B92E2B2DA701B801C6010E94A80B05C0E1
:101E8000A701B801C6010E94DC0C811105C0F60152
:101E90008381807329F406C0B0FCE8CEA394E6CE1B
:101EA000AA2019F08A2D90E002C08FEF9FEF2196B3
:101EB000E0E10C94B70FB7FF0C94D60F0E94D60F39
:101EC000821B930B0895AA1BBB1B51E107C0AA1FDD
:101ED000BB1FA617B70710F0A61BB70B881F991FCB
:101EE0005A95A9F780959095BC01CD010895A1E27E
:101EF0001A2EAA1BBB1BFD010DC0AA1FBB1FEE1F84
:101F0000FF1FA217B307E407F50720F0A21BB30BCE
:101F1000E40BF50B661F771F881F991F1A9469F74A
:101F200060957095809590959B01AC01BD01CF01A6
:101F300008952F923F924F925F926F927F928F926D
:101F40009F92AF92BF92CF92DF92EF92FF920F9348
:101F50001F93CF93DF93CDB7DEB7CA1BDB0B0FB652
:101F6000F894DEBF0FBECDBF09942A88398848880F
:101F70005F846E847D848C849B84AA84B984C884A5
:101F8000DF80EE80FD800C811B81AA81B981CE0F9C
:101F9000D11D0FB6F894DEBF0FBECDBFED01089581
:101FA000EE0FFF1F0590F491E02D09940E94E10FC0
:101FB000A59F900DB49F900DA49F800D911D11249D
:101FC0000895A29FB001B39FC001A39F700D811D12
:101FD0001124911DB29F700D811D1124911D089532
:101FE0005058BB27AA270ED0ACC19DD130F0A2D14A
:101FF00020F031F49F3F11F41EF492C10EF4E095ED
:10200000E7FB5FC1E92FAED180F3BA176207730710
:102010008407950718F071F49EF5DDC10EF4E09584
:102020000B2EBA2FA02D0B01B90190010C01CA0192
:10203000A0011124FF27591B99F0593F50F4503E3D
:1020400068F11A16F040A22F232F342F4427585F2F
:10205000F3CF469537952795A795F0405395C9F747
:102060007EF41F16BA0B620B730B840BBAF09150FF
:10207000A1F0FF0FBB1F661F771F881FC2F70EC09E
:10208000BA0F621F731F841F48F487957795679571
:10209000B795F7959E3F08F0B3CF9395880F08F05A
:1020A0009927EE0F979587950895E7D008F481E07A
:1020B00008950CD046C13ED140F035D130F021F426
:1020C0005F3F19F0FEC0511187C12AC14BD198F36F
:1020D0009923C9F35523B1F3951B550BBB27AA27A9
:1020E00062177307840738F09F5F5F4F220F331F1B
:1020F000441FAA1FA9F333D00E2E3AF0E0E830D0E7
:1021000091505040E695001CCAF729D0FE2F27D0E9
:10211000660F771F881FBB1F261737074807AB07B7
:10212000B0E809F0BB0B802DBF01FF2793585F4F2C
:102130002AF09E3F510568F0C4C04EC15F3FECF3EA
:10214000983EDCF3869577956795B795F7959F5FF1
:10215000C9F7880F911D9695879597F90895E1E045
:10216000660F771F881FBB1F621773078407BA07A4
:1021700020F0621B730B840BBA0BEE1F88F7E095FF
:102180000895F8D088F09F5790F0B92F9927B7514C
:10219000A0F0D1F0660F771F881F991F1AF0BA952B
:1021A000C9F712C0B13081F016D1B1E0089513C162
:1021B000672F782F8827B85F39F0B93FCCF3869521
:1021C00077956795B395D9F73EF49095809570957E
:1021D00061957F4F8F4F9F4F0895E89409C097FBFB
:1021E0003EF490958095709561957F4F8F4F9F4FEE
:1021F0009923A9F0F92F96E9BB279395F695879532
:1022000077956795B795F111F8CFFAF4BB0F11F4F4
:1022100060FF1BC06F5F7F4F8F4F9F4F16C088239B
:1022200011F096E911C0772321F09EE8872F762FD1
:1022300005C0662371F096E8862F70E060E02AF012
:102240009A95660F771F881FDAF7880F96958795FE
:1022500097F90895A9D080F09F3740F491110EF0BE
:10226000BBC060E070E080E89FEB089526F41B1689
:10227000611D711D811D2BC045C0990F0008550FB0
:10228000AA0BE0E8FEEF16161706E807F907C0F0FC
:1022900012161306E407F50798F0621B730B840B04
:1022A000950B39F40A2661F0232B242B252B21F4DE
:1022B00008950A2609F4A140A6958FEF811D811D7E
:1022C000089597F99F6780E870E060E0089588239B
:1022D00071F4772321F09850872B762F07C066235F
:1022E00011F499270DC09051862B70E060E02AF020
:1022F0009A95660F771F881FDAF7880F969587954E
:1023000097F908959F3F31F0915020F48795779584
:102310006795B795880F911D9695879597F90895BC
:102320009FEF80EC089500240A94161617061806ED
:102330000906089500240A941216130614060506C9
:102340000895092E0394000C11F4882352F0BB0F5A
:1023500040F4BF2B11F460FF04C06F5F7F4F8F4FBD
:102360009F4F089557FD9058440F551F59F05F3FF8
:1023700071F04795880F97FB991F61F09F3F79F0A7
:1023800087950895121613061406551FF2CF469529
:10239000F1DF08C0161617061806991FF1CF8695AB
:1023A0007105610508940895E5DFA0F0BEE7B9174F
:1023B00088F4BB279F3860F41616B11D672F782F5D
:1023C0008827985FF7CF869577956795B11D939588
:1023D0009639C8F30895E894BB2766277727CB0181
:1023E00097F908954ADF08F48FEF08950AD029ED90
:1023F0003BE54EED5EE345C00EF084CF91CF68948F
:1024000060CFB8DFC8F39923D1F3C6F3DF93CF933E
:102410001F930F93FF92C92FDD2788232AF021975E
:10242000660F771F881FDAF720E030E040E85FEBA7
:102430009FE3883920F0803E30F021968F77D1DD00
:10244000E2E8F0E003C0CDDDEFEAF0E07DD08B0103
:10245000BE01EC01FB2E6F5771097595771F880B34
:10246000990BBDDE28E132E741E35FE316D0AF2DE3
:102470009801AE01FF900F911F91CF91DF91C2DDC6
:1024800060CF0BD05ECF4FDF28F054DF18F09523DC
:1024900009F017CF45CF11249FCF64DFA0F3959F9C
:1024A000D1F3950F50E0551F629FF001729FBB273B
:1024B000F00DB11D639FAA27F00DB11DAA1F649FE7
:1024C0006627B00DA11D661F829F2227B00DA11D9A
:1024D000621F739FB00DA11D621F839FA00D611D20
:1024E000221F749F3327A00D611D231F849F600D41
:1024F000211D822F762F6A2F11249F5750408AF07A
:10250000E1F088234AF0EE0FFF1FBB1F661F771F05
:10251000881F91505040A9F79E3F510570F0D1CED1
:102520005BCF5F3FECF3983EDCF38695779567953C
:10253000B795F795E7959F5FC1F7FE2B880F911D23
:102540009695879597F90895DF93CF931F930F93EF
:10255000FF92EF92DF927B018C01689405C0DA2E26
:10256000EF019BDFFE01E894A591259135914591FE
:102570005591AEF3EF0146DDFE019701A801DA9413
:1025800079F7DF90EF90FF900F911F91CF91DF913E
:102590000895283008F027E03327DA01990F311D1C
:1025A00087FD916000966105710539F432602E5FF8
:1025B0003D9330E32A95E1F708959F3F30F080384E
:1025C0007105610509F03C5F3C5F3D93913008F077
:1025D0008068911DDF93CF931F930F93FF92EF922B
:1025E000192F987F9695E92F96959695E90FFF27D5
:1025F000E15AF64F99273327EE24FF24A701E7017C
:1026000005900894079428F4360FE71EF81E491F1A
:10261000511D660F771F881F991F0694A1F705901B
:10262000079428F4E70EF81E491F561FC11D770FA7
:10263000881F991F661F0694A1F70590079428F438
:10264000F80E491F561FC71FD11D880F991F661FFF
:10265000771F0694A1F70590079420F4490F561FA1
:10266000C71FD81F990F661F771F881F0694A9F7E9
:1026700084911095177041F0D695C7955795479559
:10268000F794E7941A95C1F7E5E0F9E0689415909E
:10269000159135916591959105907FE27395E118BB
:1026A000F10A430B560BC90BD009C0F7E10CF11E20
:1026B000431F561FC91FD01D7EF4703311F48A9535
:1026C000E6CFE894015030F0080F0AF40027021713
:1026D00008F4202F2395022F7A3328F079E37D9395
:1026E0002A95E9F710C07D932A9589F60694979567
:1026F0006795379517951794E118F10A430B560B18
:10270000C90BD00998F023957E9173957A3308F020
:1027100070E37C932013B8F77E9170617D9330F065
:10272000839571E37D9370E32A95E1F71124EF908F
:10273000FF900F911F91CF91DF91992787FD909581
:1027400008959111C2C1803219F089508550D0F797
:1027500008959111089581548A5108F4805E855A34
:102760000895FC010590061621F00020D9F7C0015C
:1027700008953197CF010895FC0105906150704094
:102780000110D8F7809590958E0F9F1F0895FB013B
:10279000DC0104C08D910190801921F4415050401A
:1027A000C8F7881B990B0895FB01DC0102C001905A
:1027B0000D9241505040D8F70895FB01DC01415083
:1027C000504030F08D910190801919F40020B9F734
:1027D000881B990B0895FC01615070400190011015
:1027E000D8F7809590958E0F9F1F0895CF93DF9314
:1027F000EC012B8120FF33C026FF0AC02F7B2B83E7
:102800008E819F8101969F838E838A8190E029C06B
:1028100022FF0FC0E881F9818081992787FD90957B
:10282000009719F420622B831AC03196F983E8834C
:102830000EC0EA85FB85099597FF09C02B8101969B
:1028400011F080E201C080E1822B8B8308C02E81D1
:102850003F812F5F3F4F3F832E83992702C08FEF29
:102860009FEFDF91CF9108950F931F93CF93DF9345
:10287000FB01238121FD03C08FEF9FEF28C022FFC2
:1028800016C046815781248135814217530744F48D
:10289000A081B1819D012F5F3F4F318320838C93B5
:1028A000268137812F5F3F4F3783268310C0EB018E
:1028B000092F182F0084F185E02D0995892BE1F669
:1028C0008E819F8101969F838E83812F902FDF9130
:1028D000CF911F910F910895AEE0B0E0E2E7F4E1EF
:1028E0000C94A70F0D891E898F89988D26E02C8363
:1028F0001A83098397FF02C080E090E801979E83C6
:102900008D83AE01455E5F4F698D7A8DCE01019654
:102910000E94E7074D815E8157FD0AC02F813885EF
:10292000421753070CF49A01F801E20FF31F1082CB
:102930002E96E4E00C94C30FAEE0B0E0E2EAF4E1DE
:102940000C94A70F0D891E8986E08C831A83098356
:102950008FEF9FE79E838D83AE01475E5F4F6F8948
:10296000788DCE0101960E94E7072F813885F80106
:10297000E20FF31F10822E96E4E00C94C30FAEE03A
:10298000B0E0E5ECF4E10C94A90F85E08C838B8931
:102990009C899A838983AE01495E5F4F6D897E89E8
:1029A000CE0101960E94290E2E96E2E00C94C50FEE
:1029B000FB01238120FF12C026FD10C08F3F3FEF97
:1029C000930761F082832F7D2064238326813781E2
:1029D0002150310937832683992708958FEF9FEF80
:1029E0000895FA01AA27283051F1203181F1E894A5
:1029F0006F936E7F6E5F7F4F8F4F9F4FAF4FB1E0F2
:102A00003ED0B4E03CD0670F781F891F9A1FA11DEC
:102A1000680F791F8A1F911DA11D6A0F711D811DED
:102A2000911DA11D20D009F468943F912AE0269FB2
:102A300011243019305D3193DEF6CF010895462F11
:102A40004770405D4193B3E00FD0C9F7F6CF462FF2
:102A50004F70405D4A3318F0495D31FD405241935B
:102A600002D0A9F7EACFB4E0A69597958795779518
:102A70006795BA95C9F700976105710508959B019F
:102A8000AC010A2E06945795479537952795BA9528
:102A9000C9F7620F731F841F951FA01D0895F99930
:102AA000FECF92BD81BDF89A992780B50895262F53
:102AB000F999FECF1FBA92BD81BD20BD0FB6F89423
:102AC000FA9AF99A0FBE01960895992788270895D2
:042AD000F894FFCFA8
:102AD400FF5A00703C494E543E25640025660000B0
:103000001895CF92DF92EF92FF92CF93C62F682F41
:1030100070E080E090E00E94EF106B017C016C2F6B
:1030200070E080E090E00E94EF1020E030E040E8A7
:103030005BE30E9441129B01AC01C701B6010E94F3
:10304000F10FCF91FF90EF90DF90CF9008958F9286
:103050009F92AF92BF92CF92DF92EF92FF92CF9367
:10306000DF93EC0169017A0170E080E090E00E945A
:10307000EF104B015C018881682F70E080E090E0E8
:103080000E94EF1020E030E040E85BE30E94411234
:103090009B01AC01C501B4010E94F10F9B01AC0181
:1030A000C701B6010E94F10F6B017C0120E030E006
:1030B000A9010E94551087FD12C020E038EF4FE7AC
:1030C00053E4C701B6010E94F21118165CF4C12C3A
:1030D00088EFD82E8FE7E82E83E4F82E03C0C12CAA
:1030E000D12C760120E030E040E05BE3C701B6017F
:1030F0000E94F10F6B017C010E942A119B01AC011F
:10310000C701B6010E94F00F20E030E040E853E430
:103110000E9441120E94C1106883C701B6010E943B
:10312000C110862FDF91CF91FF90EF90DF90CF906D
:10313000BF90AF909F908F900895CF92DF92EF92C3
:10314000FF926B017C0120E030E0A9010E94F211A6
:1031500087FF04C0C701B601905802C0C701B6017D
:1031600020E030E040E251E40E94F10F0E94F611AD
:1031700020E030E040E05FE30E9441129B01AC019F
:10318000C701B6010E9441122FE832EC45E35FE32C
:103190000E944112FF90EF90DF90CF9008954F92E0
:1031A0005F926F927F928F929F92AF92BF92CF92D7
:1031B000DF92EF92FF921F93CF93DF93CDB7DEB7ED
:1031C00028970FB6F894DEBF0FBECDBF80911105D2
:1031D00090911205A0911305B091140589839A83EB
:1031E000AB83BC8310E1C12CD12C760126013701C1
:1031F0001150E12FF0E0E155FB4F608170E080E07D
:1032000090E00E94EF1029813A814B815C810E94FD
:10321000F00F4B015C0120E030E0A9010E94F211A7
:1032200087FF04C0C501B401905802C0C501B401B4
:1032300020E030E040E251E40E94F10F0E94F611DC
:1032400020E030E040E05FE30E9441126D837E8326
:103250008F8398879B01AC01C501B4010E94411284
:103260002FE832EC45E35FE30E9441129B01AC0181
:10327000C301B2010E94F10F2B013C012D813E815F
:103280004F815885C701B6010E94F10F6B017C0187
:103290001111AECF9B01AC01C301B2010E945910C4
:1032A0009B01AC0169817A818B819C810E94F10F25
:1032B0006093110570931205809313059093140584
:1032C000C0920D05D0920E05E0920F05F092100508
:1032D00028960FB6F894DEBF0FBECDBFDF91CF9119
:1032E0001F91FF90EF90DF90CF90BF90AF909F9095
:1032F0008F907F906F905F904F9008950F931F93E2
:10330000CF93DF938C01EA019A01AB0169E273E08C
:1033100081E00E940028AE0169E273E0C801DF91FC
:10332000CF911F910F910C94DD130F931F93CF93A7
:10333000DF938C01EA019A01AB0169E273E081E05D
:103340000E940028AE0169E273E0C801DF91CF91CD
:103350001F910F910C94C71325E04CEE57E061E0EC
:1033600081E00C94172A2F923F924F925F926F92B6
:103370007F928F929F92AF92BF92CF92DF92EF9205
:10338000FF920F931F93CF93DF93CDB7DEB72D97A7
:103390000FB6F894DEBF0FBECDBFA8950E9486067B
:1033A0000E940E2581E00E942B29882309F4DDC2AA
:1033B00081E00E94D029182F80E00E94D0299091AE
:1033C000EE049F7009F01FC210FFCCC214FF04C0AE
:1033D00081E00E940127C9C2107F09F0C3C24FE7F4
:1033E00069E274E081E00E94482981E00E943C2962
:1033F00046E050E06CEA77E089E294E00E947E19B2
:10340000892B41F52CE130E04DE751E069E273E0B2
:1034100081E00E94002880912B0590912C059C0151
:1034200033273F932F931F929F9380912E058F9365
:1034300080912D058F938FE295E09F938F9389E282
:1034400093E09F938F9389EA93E09F938F930E94D9
:103450009C14CCC147E050E069E078E089E294E058
:103460000E947E19892B21F48091ED048E7F0DC07E
:1034700046E050E063E078E089E294E00E947E1943
:10348000892B31F48091ED0481608093ED046DC24D
:1034900047E050E06CEF77E089E294E00E947E190B
:1034A000892B21F48091ED048D7FEFCF46E050E031
:1034B00066EF77E089E294E00E947E19892B21F47F
:1034C0008091ED048260E1CF45E050E061EF77E06C
:1034D00089E294E00E947E19892B21F48091ED0409
:1034E000837276C045E050E06CEE77E089E294E0CC
:1034F0000E947E19892BB1F523E430E04CE554E0BD
:1035000069E273E081E00E9400281F9288ED8F93AA
:103510001F9286E98F9389E293E09F938F931F9286
:103520008FE78F9389EA93E09F938F930E946C14A7
:10353000282F49EA53E060E080E00E94172A24E443
:1035400043E657E061E080E00E94172A8091EE0494
:10355000807F81608093EE048091ED048F7E809364
:10356000ED044BC145E050E067EE77E089E294E07E
:103570000E947E19892B79F48091ED0482FB222729
:1035800020F991E0922790FB82F98093ED0482FF6D
:10359000ECC1877F45C047E050E060EE77E089E20C
:1035A00094E00E947E19892B29F48091ED048372A6
:1035B00080640EC047E050E069ED77E089E294E076
:1035C0000E947E19892B31F48091ED04837280680A
:1035D00080625BCF45E050E067EA77E089E294E003
:1035E0000E947E19892B81F347E050E062ED77E07D
:1035F00089E294E00E947E19892B21F48091ED04E8
:10360000877F43CF46E050E06CEC77E089E294E0BE
:103610000E947E19892B31F48091ED0488608B7FA4
:103620008F7E33CF47E050E064EC77E089E294E0AE
:103630000E949519892B09F044C08BEC94E09F936C
:103640008F9389E091E09F938F9381E394E09F9320
:103650008F930E94BF148091CB049091CC040E9460
:103660008E2640E650E062E08BEC94E00E94B528A4
:1036700083E00E9426289A8389834EE750E062E027
:10368000CE0101960E94B52883E00E94E7282AE235
:1036900030E043E551E069E273E081E00E940028F8
:1036A0008091CC048F938091CB048F9389E293E037
:1036B0009F938F9389EA93E09F938F930E949C142A
:1036C00095C045E050E06FEB77E089E294E00E941E
:1036D0007E19892B81F48091ED0484FB222720F947
:1036E00091E0922790FB84F98093ED0484FF3DC123
:1036F000877F8B7FCACE49E050E066EB77E089E2B6
:1037000094E00E947E19892BB9F448E550E062E00C
:103710008BEE94E00E94B52882E00E9426289A83CE
:1037200089834EE550E062E0CE0101960E94B52803
:1037300082E00E94E72819C109E214E0809129047F
:103740008B3279F488E095E09F938F938CE091E041
:103750009F938F938AE294E09F938F930E94BF146C
:1037600021C08D3259F588E095E09F938F938CE0CE
:1037700091E09F938F938AE294E09F938F930E94AE
:10378000BF148091080590910905A0910A05B09198
:103790000B05B0588093080590930905A0930A057E
:1037A000B0930B058091ED048F7E8093ED040F9014
:1037B0000F900F900F900F900F90D7C021E330E043
:1037C0004FE954E069E273E081E00E9400281F9312
:1037D0000F9389E293E09F938F931F928FE78F93CC
:1037E00089EA93E09F938F930E946C14282F49EAF3
:1037F00053E060E080E00E94172A0FB6F894DEBF25
:103800000FBECDBFB2C080FDADC081E00E943C299B
:10381000E091EE04EF70F0E03197ED30F10508F043
:103820009BC0EC5CFF4F0C94D00F2FE644EF56E0AA
:1038300061E080E00E94172A8091EE04807F826020
:103840008EC027E64DE856E061E080E00E94172A2E
:103850008091EE04807F836082C02EE24FE556E0C7
:1038600061E080E00E94172A8091EE04807F8460EE
:1038700076C027E148E456E061E080E00E94172A24
:103880008091EE04807F85606AC02BE24DE156E0B6
:1038900061E080E00E94172A8091EE04807F8660BC
:1038A0005EC02DE140E056E061E080E00E94172A12
:1038B0008091EE04807F876052C020E240EE55E0A8
:1038C00061E080E00E94172A8091EE04807F88608A
:1038D00046C02DE243EB55E061E080E00E94172AEC
:1038E0008091EE04807F89603AC025E54EE555E081
:1038F00061E080E00E94172A8091EE04807F8A6058
:103900002EC02FE14FE355E061E080E00E94172ACE
:103910008091EE04807F8B6022C020E34FE055E071
:1039200061E080E00E94172A8091EE04807F8C6025
:1039300016C020E34FED54E061E080E00E94172ABA
:103940008091EE04807F8D600AC02FE040ED54E04E
:1039500061E080E00E94172A8091EE04807F8093CE
:10396000EE0403C081E00E943C29F8943091840069
:103970003B83809185008C838090E1049090E204E9
:10398000A090E304B090E404909186009D83E091C0
:103990008700EE83C090E504D090E604E090E70451
:1039A000F090E80478948091D30490911A018917DB
:1039B00099F080931A01D701C60187519C4FAF4FF0
:1039C000BF4F8093160190931701A0931801B093F5
:1039D00019013324339426C0809116019091170168
:1039E000A0911801B091190188169906AA06BB0684
:1039F00008F453C488519C4FAF4FBF4F88169906A7
:103A0000AA06BB0630F0D501C40187519C4FAF4FC9
:103A1000BF4F8093160190931701A0931801B093A4
:103A20001901312C8091ED0482FF3FC1332009F44C
:103A3000C6C04090270550902805609029057090D9
:103A40002A05609123037091240380E090E00E9496
:103A5000ED10A30192010E94411220E030E040E805
:103A60005AE30E944112162F072F8F83292E60914F
:103A700025037091260380E090E00E94ED10A301E1
:103A800092010E94411220E030E040E85AE30E9497
:103A90004112688779872C01609127037091280370
:103AA00080E090E00E94ED1020911F0530912005EC
:103AB00040912105509122050E94F00F20911B0595
:103AC00030911C0540911D0550911E050E94411228
:103AD00020E030E048EC51E40E94F10F6A877B87D8
:103AE0008C879D872DE130E04FE354E069E273E07D
:103AF00081E00E9400282F92FF81FF930F931F9374
:103B0000809124038F93809123038F9309E213E024
:103B10001F930F9359EA652E53E0752E7F926F9293
:103B20000E949C14282FA30160E080E00E94172AC5
:103B30002DE130E042E254E0B80181E00E9400282B
:103B40005F924F9229852F9338853F93809126036A
:103B50008F93809125038F931F930F937F926F9282
:103B60000E949C14282FA30160E080E00E94172A85
:103B70002DE130E045E054E0B80181E00E940028EA
:103B80008D858F939C859F93EB85EF93FA85FF93AB
:103B9000809128038F93809127038F931F930F9316
:103BA0007F926F920E949C14282FA30160E080E016
:103BB0000E94172A0FB6F894DEBF0FBECDBF2CE6C9
:103BC00030E049E953E069E273E081E00E940028B7
:103BD0003D8190E0EE819E2B9F933F93FF92EF9269
:103BE000DF92CF92FB8190E02C81922B9F93FF93E9
:103BF000BF92AF929F928F9249E2A42E43E0B42EDF
:103C0000BF92AF9209EA13E01F930F930E949C1496
:103C1000282FA80160E080E00E94172A24E230E00B
:103C200045E753E0B50181E00E9400288091DF0460
:103C30001F928F938091EB041F928F93BF92AF924C
:103C40001F930F930E949C14282FA80160E080E02E
:103C50000E94172A2DE130E048E553E0B50181E0EC
:103C60000E94002880910C051F928F93BF92AF9203
:103C70001F930F930E949C14282FA80160E080E0FE
:103C80000E94172A22E130E047E453E0B80181E0C6
:103C90000E94002822E1A80160E080E00E94172A2B
:103CA0000FB6F894DEBF0FBECDBF332009F46AC251
:103CB0008091ED0480FFD3C146015701AA24BB24A3
:103CC000A0EEB1EBA70196010E945E0F6B017C0193
:103CD000C818D908EA08FB08D701C60189519942DA
:103CE000A143B1408F3C9740A105B10508F0B7C191
:103CF000FDE2DF1AF1E3EF0AF1E0FF0AC701B601C6
:103D00000E94EF104B015C0120E030E040EA51E4FA
:103D10000E945910162F072F782E692E8091AB0420
:103D20009091AC049093AE048093AD046091A9048B
:103D30007091AA047093AC046093AB04D092AA046F
:103D4000C092A904680F791F6C0D7D1D882777FD2F
:103D50008095982F0E94EF1020E030E040E450E47E
:103D60000E945910262E572E482E392E80910C0570
:103D7000833020F0822C952CA42CB32C0E94CF18D9
:103D8000C501B401905820E030E040E053E40E94C7
:103D900041124B015C01209127053091280540918B
:103DA000290550912A056091170570911805809199
:103DB000190590911A050E9441129B01AC01C501A1
:103DC000B4010E9459106C837D838E839F830E946F
:103DD0009D186B83A72E982E892E20E030E040E8B6
:103DE0005EEBD801F3016B2F702F8F2F962D0E9461
:103DF000F21187FD15C02AE939E949E15EE3D801EE
:103E0000F3016B2F702F8F2F962D0E9455101816CF
:103E10003CF080910C05833008F06CC083E044C016
:103E200023E333E343EB5EEBD801F3016B2F702FF9
:103E30008F2F962D0E94F21187FD15C023E333E3E7
:103E400043EB5EE3D801F3016B2F702F8F2F962D7C
:103E50000E94551018163CF080910C05823009F430
:103E600049C082E021C020E030E040E05FEBD801B3
:103E7000F3016B2F702F8F2F962D0E94F21187FD6B
:103E800016C020E030E040E05FE3D801F3016B2F83
:103E9000702F8F2F962D0E945510181644F0809188
:103EA0000C05823038F181E080930C0523C020E0BE
:103EB00030E048EC51ECD801F3016B2F702F8F2FBD
:103EC000962D0E94F21187FD13C020E030E048ECEF
:103ED00051E4D801F3016B2F702F8F2F962D0E9484
:103EE000551018162CF080910C058130E1F602C0B7
:103EF00010920C05F894B090EB048091DF04898354
:103F000078948091ED0480FF1AC080910C05843074
:103F1000B0F47B81C401272F3A2D492F582D6B2DEA
:103F2000CE0101960E942718B82EF8948093EB04D6
:103F300089818093DF048B2D0E94A12C789480913D
:103F40001505E82FF0E0E155FB4F9091EB049083CD
:103F50008F5F8F70809315058091ED0482FF7FC085
:103F600022E730E048E052E069E273E081E00E943D
:103F700000286F927F920F931F93D701C601B595CA
:103F8000A795979587959F938F933F924F925F92B6
:103F90002F92FF92EF92DF92CF9239E2E32E33E03D
:103FA000F32EFF92EF9209EA13E01F930F930E9402
:103FB0009C14282FA80160E080E00E94172A2FE6B9
:103FC00030E049E951E0B70181E00E9400286B2D03
:103FD00070E080E090E00E94EF102B013C016981CD
:103FE00070E080E090E00E94EF1020E030E040E8D8
:103FF0005BE30E9441129B01AC01C301B2010E942C
:10400000F10F9F938F937F936F938F929F92AF92B5
:104010002B812F933F813F938E818F939D819F931F
:10402000EC81EF93809114058F93809113058F930A
:10403000809112058F93809111058F93FF92EF92DB
:104040001F930F930E949C140FB6F894DEBF0FBE0F
:10405000CDBF282FA80160E080E00E94172A809140
:10406000ED0481FF8FC030910C05333008F48AC015
:1040700040912503509126038091120190911301E4
:10408000A0911401B0911501840F951FA11DB11DC0
:104090008093120190931301A0931401B093150122
:1040A00020911101203121F02F5F209311016AC06E
:1040B000109211014091DB045091DC046091DD0409
:1040C0007091DE044093D7045093D8046093D904D0
:1040D0007093DA048093DB049093DC04A093DD04F6
:1040E000B093DE0410921201109213011092140189
:1040F000109215016C017D01E1EECE1AE1E0DE0ABD
:10410000E108F108FFEFCF16FEE0DF06E104F1045D
:1041100090F5FC01E41BF50BAF01BF01645D7E4F20
:104120006935724028F45093D6044093D50404C0F6
:104130001092D6041092D504373018F427E020935B
:104140000C05803629E09207A105B10540F4809165
:10415000D5049091D6048D3F9F4F94F413C08036C0
:104160009940A105B10561F08091D5049091D604E4
:10417000049744F405C0373028F083E080930C05A1
:104180002C982D9820E030E0A901609108057091ED
:10419000090580910A0590910B050E94551088230E
:1041A00009F47BC0F8941091EB040091DF0478943B
:1041B0000983209108053091090540910A05509125
:1041C0000B05612FCE0101960E942718D82EF89476
:1041D0008093EB040E94A12C89818093DF04789462
:1041E00026E630E041EE52E069E273E081E00E94B1
:1041F00000281F920F931F921F9380910B058F939E
:1042000080910A058F93809109058F93809108050D
:104210008F9389E2E82E83E0F82EFF92EF9209EA6D
:1042200013E01F930F930E949C14282FA80160E0B5
:1042300080E00E94172A27E630E04AE752E0B70103
:1042400081E00E94002889811F928F931F92DF9244
:1042500080910B058F9380910A058F9380910905BA
:104260008F93809108058F93FF92EF921F930F9386
:104270000E949C14282FA80160E080E00E94172A69
:10428000109208051092090510920A0510920B056C
:104290000FB6F894DEBF0FBECDBF0E94A92C2D969D
:1042A0000FB6F894DEBF0FBECDBFDF91CF911F9147
:1042B0000F91FF90EF90DF90CF90BF90AF909F90C5
:1042C0008F907F906F905F904F903F902F900895C8
:1042D000CF93DF9300D0CDB7DEB7F89481E085BFF0
:1042E00080E085BF88E10FB6F8948093600010925B
:1042F00060000FBE8FEE8093640080B7806880BF3F
:1043000080917F00836080937F0085B78F7E85BF1B
:104310000E94802C0E94002D0E94402B0E94AE26FD
:104320000E94182578940E941C2960E089E293E09D
:104330000E9494288823D9F080E1E9E2F3E0AFE21B
:10434000B5E001900D928A95E1F710923F058091BA
:104350003B0390913C0390932E0580932D05809113
:10436000390390913A0390932C0580932B0561E0DB
:1043700089E293E00E949428882309F440C0809148
:10438000290390912A03A0912B03B0912C038093D1
:10439000270590932805A0932905B0932A058091BD
:1043A0002D0390912E03A0912F03B09130038093A1
:1043B000230590932405A0932505B09326058091AD
:1043C000310390913203A0913303B0913403809371
:1043D0001F0590932005A0932105B093220580919D
:1043E000350390913603A0913703B0913803809341
:1043F0001B0590931C05A0931D05B0931E0562E05C
:1044000089E293E00E949428882381F08091390307
:1044100090913A03A0913B03B0913C038093170520
:1044200090931805A0931905B0931A056091EC04B8
:10443000EFEBF4E0629384E0EF3AF807D9F770E02D
:1044400080E090E00E94ED106093110570931205DA
:10445000809313059093140580E090E0A0E8B1E408
:1044600080930D0590930E05A0930F05B093100552
:104470000E94AC198091ED0485FD03C00E94B31920
:10448000F9CFF89488E10FB6F89480936000109209
:1044900060000FBE0E942C250E9480260E946A2B7D
:1044A0000E94182D0E949B2C14B817B81AB815B882
:1044B00018B81BB885B78F7E85BF8091ED04807CCE
:1044C000D1F0803481F48FE090EB9A8389834AEFB6
:1044D00053E062E0CE0101960E94B528E09102010E
:1044E000F091030106C08038C9F4E0914005F091D5
:1044F0004105099513C083B7817F846083BFF89419
:1045000083B7816083BF85B7806685BF8F7D85BF98
:10451000889583B78E7F83BF7894EDCF80E090E05D
:0A4520000F900F90DF91CF910895E6
:104A0000FC01DB0112968C911297808313968C9196
:104A10001397818314968C91828308958091FB046F
:104A200084FF05C065E084E091E00C946006089581
:104A30000E94D407E898219829988AEF815041F084
:104A4000E7E8F3E13197F1F700C00000A895F6CF51
:104A5000219A299AE89A0895E89821982998089522
:104A6000FC018081982F9076903459F58F7149F52B
:104A7000818181110EC0828180931B01838180938B
:104A80001C01848180931D01858180931E0184E037
:104A900019C0823049F48FB7F8942681378130935A
:104AA000C3042093C2040AC0813059F48FB7F8942C
:104AB000268137813093C1042093C0048FBF8FEFCC
:104AC00001C080E02BE131E0309353052093520583
:104AD0000895CF92DF92EF92FF921F93CF93DF93CF
:104AE0007C01462F8091ED0484FF3DC08091C2047B
:104AF0009091C304892BB9F120914205309143056F
:104B0000C90168EE73E00E94630FCB01EAE0F0E0B8
:104B1000BF010E94630F805DD7018C93C90164E6D9
:104B200070E00E94630FCB01BF010E94630F805DA4
:104B3000D70111968C93C901BF010E94630FC82F42
:104B4000CB01BF010E94630F805DF70182832F5F5D
:104B50003F4F3093430520934205C05DC3838AE3F2
:104B6000848315E001C010E0C12ED12C8091C204D5
:104B70009091C30450E08417950708F4AC01EA0152
:104B8000CC19DD091C161D0604F580E00E942B29B6
:104B90008823D9F34C2F4F5FB7016C0D7D1D80E04A
:104BA0000E944829C82F80E00E943C29CC0ED11CCD
:104BB0002091C2043091C3042C193D093093C304E1
:104BC0002093C2048C2F810F01C0812FDF91CF91E0
:104BD0001F91FF90EF90DF90CF9008951F93CF9398
:104BE000DF93D62F2091C0043091C104462F50E0AE
:104BF00042175307C0F4241B350B3093C104209394
:104C0000C0041FB7F894C091BF042C2F30E0BC0142
:104C1000C9018D5D9E4F0E94D413CD0FC093BF0478
:104C20001FBF80E029C0232BA9F01FB7F894C091C3
:104C3000C0045091C104D091BF042D2F30E04C2FFF
:104C4000BC01C9018D5D9E4F0E94D413CD0FC0934E
:104C5000BF041FBF2091BF0443E251E060E081E048
:104C60000E94172A8FB7F8941092C1041092C004C2
:104C70001092BF048FBF81E0DF91CF911F91089503
:104D0000F894E1ECF0E08081877080837894589883
:104D1000E4E6F0E080818260808308959C01BC011C
:104D200076956795CB01A0E0B0E0BC01CD01605362
:104D30007D4E8C4E9F4F40E050E00E94770FDA018D
:104D4000C9010197A109B109892F9A2FAB2FBB2760
:104D50008093C50021502093C40008958091640081
:104D60008D7F8093640085B78F7E85BF589A63E0FE
:104D700089E293E00E9494288823C1F0809129035E
:104D800090912A039093CC048093CB0480912B03C1
:104D900090912C039093CA048093C90480912D03B1
:104DA00090912E039093C8048093C7048091CB0404
:104DB0009091CC040E948E2688E18093C1002091BE
:104DC000C9043091CA0483E0820F8370880F932F47
:104DD0009073892B222733709FEF930F9170990F57
:104DE000990F990F892B8093C2008091C600809300
:104DF000C404F8948091C10080688093C1007894C5
:104E00000895CF939091C50491114EC09091C00028
:104E100095FF4AC0C82F40E463EA71E00E94482928
:104E20008093C5048C2F0E943C298091ED0483FF60
:104E30001092C5041092C4048091C5048823B9F16E
:104E4000EFEFE80FE093C504F0E0ED55FE4F9081E1
:104E500091118093C504E091C504AE2FB0E0AD552B
:104E6000BE4F8DE08C9382E08E0F8093C504EF5F80
:104E7000F0E0ED55FE4F8AE080838091C0008F7B8B
:104E80008093C000E091C40481E08E0F8093C4043D
:104E9000F0E0ED55FE4F80818093C6008091C10007
:104EA00080628093C10003C0CF910C943C29CF91C4
:104EB00008951F920F920FB60F9211242F933F93D4
:104EC0004F935F936F937F938F939F93AF93BF9312
:104ED000EF93FF938091C6007894E091C60421E09F
:104EE0002E0F2093C604F0E0ED51FE4F80838A30F0
:104EF00061F48091ED0483FF08C043EE51E060E06F
:104F000080E00E94172A1092C604FF91EF91BF9192
:104F1000AF919F918F917F916F915F914F913F9151
:104F20002F910F900FBE0F901F9018951F920F9208
:104F30000FB60F9211248F939F93EF93FF93E091FD
:104F4000C4048091C504E81750F481E08E0F80936B
:104F5000C404F0E0ED55FE4F80818093C600789444
:104F60009091C4048091C504981738F08091C100D5
:104F700080728093C1001092C504FF91EF919F91C0
:104F80008F910F900FBE0F901F90189578941F92DD
:104F90000F920FB60F9211240F900FBE0F901F901B
:024FA000189562
:105000001F93CF93DF93162F972FBA01882329F090
:10501000C12FD92FA0E0B0E007C0A901812FDF91F7
:10502000CF911F910C94D413A217B30739F0FB0151
:10503000EA0FFB1FE491E9931196F6CF812FDF91E0
:10504000CF911F91089585EA95EA089520E1829F06
:10505000C00111248C60906B0895FC01683000F54C
:10506000878D90E0982F8827268D822B853A25EA18
:105070009207C1F020E1629FB00111246C60706B57
:105080008617970749F0858D90E0982F8827248D03
:10509000822B0196848F958F85EA868F878F02C039
:1050A00080E0089581E008950C94803C0C94943C39
:1050B000EF92FF920F931F93CF93DF931F92CDB781
:1050C000DEB77C018A01081B190B662361F0C80159
:1050D0008E0D9F1D69830E944F15F70181937F01FB
:1050E00069816150F2CF0F90DF91CF911F910F91A5
:1050F000FF90EF9008958830A8F490E2899FA00176
:10510000112460E289E293E00E945828209148032C
:1051100030E0322F222780914703282B81E0253A67
:10512000354A09F080E008950F931F93CF936830BC
:1051300010F080E014C0C62F8C01862F0E947B28BF
:105140008823B9F383E00932180741F080E2C89F51
:10515000A001112460E2C8010E94582881E0CF918B
:105160001F910F9108950C94ED3CEF92FF921F93C5
:10517000CF93DF937C01C42FD52F162F140F1C174C
:1051800041F0F70161917F01CE010E9457152196F0
:10519000F6CFDF91CF911F91FF90EF9008950F937D
:1051A0001F93CF93683070F4C62F8C010E942D2876
:1051B00080E2C89FA001112460E2C8010E94B528C6
:1051C00081E001C080E0CF911F910F910895CF93AE
:1051D000883010F080E02EC0C82F0E947B288111FB
:1051E000F9CF2C2F30E04091480350E0542F442752
:1051F00080914703482BC90164E0880F991F6A9585
:10520000E1F78C60906B4817590771F085E0220F29
:10521000331F8A95E1F7205F374F40E050E06CE1A3
:1052200089E293E00E94943C6C2F89E293E00E9413
:10523000CF2881E0CF910895CF93DF93C0E0D0E0F5
:105240008C2F0E94E728D80FCF5FC830C9F78D2F69
:10525000DF91CF910895811103C0EDECF4E002C01D
:10526000EEECF4E08FB7F894908121E020838FBFBB
:1052700081E0911180E00895811103C0EDECF4E02C
:1052800002C0EEECF4E08FB7F89410828FBF08955F
:105290009F92AF92BF92CF92DF92EF92FF920F93C5
:1052A0001F93CF93DF932FB7F894882329F0C091F1
:1052B000D2049091D10404C0C091D0049091CF0445
:1052C0002FBFC91709F45AC0423008F457C08111E2
:1052D00003C003E212E002C003EA12E050E04150D2
:1052E0005109E92FF0E09C1718F42C2F30E002C090
:1052F00020E830E02E1B3F0B421753070CF49A01B5
:10530000B22E7901FF244E195F099C1710F0D0E0EE
:1053100002C0C0E0D0E04C175D070CF4EA016B015D
:10532000A82E9C2EBB2039F0B8016E0F7F1FA7015D
:10533000C6010E94D413992049F0AE015527B80147
:10534000C6018E0D9F1D0E94D413B90CF601EB0D02
:10535000F11D10829FB7AA2041F0F8948091D104EA
:105360008B0D8F778093D10407C0F8948091CF0480
:105370008B0D8F778093CF049FBF05C0411102C072
:10538000FB011082B12C8B2DDF91CF911F910F91DA
:10539000FF90EF90DF90CF90BF90AF909F900895D7
:1053A0003FB7F894882329F09091D2042091D1043A
:1053B00004C09091D0042091CF043FBF291779F009
:1053C000811103C083E292E002C083EA92E0FC0113
:1053D000E20FF11D8081843221F481E1089580E0A3
:1053E000089581E00895CF93C82F8C2F0E942B2918
:1053F0008823B9F02FB7CC2331F0F8948091D204F0
:105400009091D10405C0F8948091D0049091CF047C
:105410002FBF981751F08C2F0E943C29A8950E940D
:105420008606A8950E948606E0CFCF9108956F92D8
:105430007F928F929F92AF92BF92CF92DF92EF9224
:10544000FF920F931F93CF93DF931F92CDB7DEB7D9
:10545000A82E962E6A0129830E94F3293FB7F8945B
:105460002981AA2029F09091D2048091D10404C00E
:105470009091D0048091CF043FBF692F70E0682ED7
:10548000712CAB014F5F5F4F4615570509F466C09D
:105490009F3719F4882309F461C0A11005C043E2C5
:1054A000E42E42E0F42E04C033EAE32E32E0F32E81
:1054B000A22FB0E0981728F4F301E61BF70B319701
:1054C0000CC0E0E8F0E0E61BF70B21E030E08823B9
:1054D00011F020E030E0E21BF30BAE17BF070CF435
:1054E000FD01BE2E8F011127A01BB10B981730F0C4
:1054F000882321F081E0681A710802C0612C712CA8
:10550000A615B7050CF43D01862CBB2039F06E0DB5
:105510007F1D9801A601892D0E940028882051F046
:1055200093013327A601400F511FB701892D0E9417
:105530000028B80C9FB7AA2041F0F8948091D204BB
:105540008B0D8F778093D20407C0F8948091D0049C
:105550008B0D8F778093D0049FBF01C0B12C8A2D13
:105560000E943C298B2D0F90DF91CF911F910F91BD
:10557000FF90EF90DF90CF90BF90AF909F908F9073
:065580007F906F9008957A
:105680003C9AE4E6F0E080818E7F80831092D30420
:10569000EFE7F0E080818360808383E080937E0089
:1056A000EBE7F0E080818F7B8083EAE7F0E08081A8
:1056B0008768808380B787E180BF81E18093D404CD
:1056C00081E480937C008081806580838081886014
:1056D0008083089580B78777806880BF87E0809354
:1056E0007A0010927B0010927C00E4E6F0E080816A
:1056F000816080833C9808951F920F920FB60F929D
:1057000011242F933F934F935F936F937F938F93C6
:105710009F93AF93BF93EF93FF934498809178004A
:1057200020917900789490E0922B2091D404283035
:1057300021F168F42223A1F0213019F5909326037A
:105740008093250380E18093D40480E41EC021313E
:1057500009F1283171F02031A1F41092D40417C05E
:10576000909324038093230388E18093D40488ECEE
:105770000CC088E08093D4040AC0909328038093DF
:10578000270381E18093D40481E480937C000E940C
:10579000E10708C081E08093D4048091D3048F5F37
:1057A0008093D304FF91EF91BF91AF919F918F911F
:1057B0007F916F915F914F913F912F910F900FBE0D
:0657C0000F901F901895E8
:105900000E94C03B82E00E947B28882369F048E522
:1059100050E061E08CEE94E00E9458288091EC0405
:105920008093EB040E94DC3BA89A80916E0081601A
:1059300080936E000895EEE6F0E0808180830C9401
:10594000D03B0C94DC3B882311F0359A08953598B0
:1059500008950C94DE3B0C94E13B1F920F920FB61E
:105960000F9211248F939F938091EB0488BD9091A7
:10597000E0048091DF04981718F488B58F5F88BD24
:1059800078948091E004885F8093E0049F918F91E8
:0A5990000F900FBE0F901F901895A6
:105A0000E4E6F0E08081877F808310928500109229
:105A100084008EE4809389008FE180938800109247
:105A2000800089E48093810082E280936F00089572
:105A300010926F0010928100E4E6F0E080818860AF
:105A4000808308951F920F920FB60F9211248F93A7
:105A50009F93AF93BF938091E1049091E204A09152
:105A6000E304B091E4040196A11DB11D8093E1040B
:105A70009093E204A093E304B093E4047894BF917C
:105A8000AF919F918F910F900FBE0F901F9018951F
:105A90001F920F920FB60F9211242F934F935F9383
:105AA0006F937F938F939F93EF93FF9380918600E3
:105AB000209187004091E1045091E2046091E30459
:105AC0007091E4047894449AEAE7F0E0908190645D
:105AD0009083F89490E0922B9093EA048093E904E9
:105AE0004093E5045093E6046093E7047093E80460
:105AF0007894FF91EF919F918F917F916F915F913A
:0E5B00004F912F910F900FBE0F901F90189590
:10778000E4E6F0E080818F7D808316BC8AEB88BDC3
:1077900083E284BD81E085BD559A459A3D9A08955E
:1077A0003D98559815BC14BC18BC16BCE4E6F0E036
:1077B000808180628083089588BD089580E286B9C3
:1077C000089580E286B9E7E8F3E13197F1F700C068
:0677D0000000A895F7CFB0
:1078C0005B98089589B183FB882780F991E0892727
:1078D000089585B78F7E85BF53985B9A8AE0815063
:1078E00041F0A895E7E8F3E13197F1F700C0000017
:0C78F000F6CF0E94623C809316050895BC
:10790000E0E0F0E083E080935700E89507B600FCE4
:10791000FDCFE058FF4FE11590E7F907A1F781E1AE
:1079200080935700E8950895FF920F931F93CF938C
:10793000DF93DC01922F022F132F9A0151E0591B84
:10794000402FF02EF91A6623F9F00F3F8FE6180743
:107950002105310530F4F801C591D4917C2F8D2F8C
:1079600002C07FEF8FEFFD01EF0DF11D70836130DD
:1079700059F0450FFD01E40FF11D80830E5F1F4F8D
:107980002F4F3F4F6250DCCFDF91CF911F910F916E
:10799000FF900895EF92FF920F931F93CF93DF9381
:1079A0001F92CDB7DEB77C018A01081B190B662335
:1079B00061F0C8018E0D9F1D69830E944F15F7016C
:1079C00081937F0169816150F2CF0F90DF91CF9158
:1079D0001F910F91FF90EF9008952F923F924F9239
:1079E0005F926F927F928F929F92AF92BF92CF924F
:1079F000DF92EF92FF920F931F93CF93DF93CDB758
:107A0000DEB727970FB6F894DEBF0FBECDBF1C01BF
:107A100000E0662309F4A5C0F22FFF77DA01C9015F
:107A20008F1B9109A109B10989839A83AB83BC8318
:107A30008FEF9FE6A0E0B0E0821B930BA40BB50B89
:107A4000C62ED12CE12CF12C8C159D05AE05BF0561
:107A500010F46C017D0180E890E08F1B9109AA274A
:107A600097FDA095BA2F8C159D05AE05BF0510F4A6
:107A70006C017D017C2D2F3F9FE6390741055105A3
:107A800008F06FC0F1110AC093E0992EE981FA81E4
:107A900090925700E89507B600FCFDCF16E0310143
:107AA000600E711C522E3F83422E115009F452C0B9
:107AB0007E826D82A52DBF8153018FEF9FEFEA2F4C
:107AC000E21BE717C0F4F501A0FF0DC0908090E025
:107AD0009929FD01EE7F992493940C01909257000F
:107AE000E895112403C0808190E09F6FFFEFAF1AEB
:107AF000BF0A1196E4CF85E0982EE981FA81909231
:107B00005700E89507B600FCFDCF81E18093570050
:107B1000E89549015A01882D84198717D8F4F40192
:107B2000EE7F8591949180FE02C0F8E001C0F0E004
:107B3000AD81BE81ED91BE83AD83BFEF8B1A9B0AF1
:107B4000AB0ABB0A02C096958795FA95E2F7E8174B
:107B500011F3ABCF2C0D3D1D4E1D5F1D671B070F95
:107B600058CF27960FB6F894DEBF0FBECDBFDF917A
:107B7000CF911F910F91FF90EF90DF90CF90BF902A
:107B8000AF909F908F907F906F905F904F903F90BD
:107B90002F900895EF92FF921F93CF93DF937C0174
:107BA000C42FD52F162F140F1C1741F0F701619128
:107BB0007F01CE010E9457152196F6CFDF91CF911C
:087BC0001F91FF90EF90089562
:00000001FF
