:107000000C947B380C94C3380C9498380C949838B2
:107010000C9498380C9498380C9498380C949838B0
:107020000C9498380C9498380C9498380C949838A0
:107030000C9498380C9498380C9498380C94983890
:107040000C9498380C9498380C9498380C94983880
:107050000C9498380C9498380C9498380C94983870
:107060000C9498380C9498380902120001010080A1
:107070006909040000000000000012011001FF0077
:107080000008C016DC0500010102030110035000D6
:1070900072006F0074006F002D0031004803420041
:1070A0006F006F0074006C006F0061006400650089
:1070B0007200200066006F0072002000440046004D
:1070C00034004900410048002D00310030004D00DF
:1070D00048007A002D005200650066002D004F0028
:1070E000730063000E034400460034004900410071
:1070F00048000403090411241FBECFEFD8E0DEBF0F
:10710000CDBF11E0A0E0B1E0ECE5F7E702C00590EB
:107110000D92A230B107D9F711E0A2E0B1E001C0B1
:107120001D92A036B107E1F70E94283B0C94AC3BBE
:107130000C940038A82FB92F8FEF9FEF1BC02D9113
:107140008227282F22952827722F269526952727D4
:10715000239526952170782F892F82272195207CD1
:10716000922F222776952795972782277695279520
:1071700097278227615018F7809590950895DADF58
:107180008D939D930895CF93CFB7CF93DF93C395FE
:10719000339BE9F7339B19C0339B17C0339B15C052
:1071A000339B13C0339B11C0339B0FC0339B0DC067
:1071B000339B0BC0339B09C0C0911B01C395C09387
:1071C0001B01C6B5C093050181C06F93C0911A0120
:1071D000DD27CE5DDE4F2F9320E400C065E0339BBA
:1071E00003C02F916F91D6CF0F931F934F9345E517
:1071F0005F9355E53F933BE014E006B10C702EC061
:107200006A95C9F03150D8F106B10C7001130BC06A
:1072100008942795299320E4555500F46A9569F759
:1072200001E066B10BC0102F66E02695299320E49B
:10723000555518F3E2CF0FEF66B10000162F4555F4
:1072400000F0404066E01C700030E2F221F00000E7
:1072500006B10C7003C006B10C70A9F0011309C08F
:107260000894279568F200C06A95A9F700E066B116
:10727000E5CF102F66E0269528F20000ECCF11E054
:107280001CBB002717C03B503195C31BD04011E0F9
:107290001CBB0881033CF9F00B34E9F02091180184
:1072A0001981110F1213EDCF093651F10D3211F082
:1072B000013E39F7009320013F915F914F911F915B
:1072C0000F912F916F91CCB3C0FD61CFDF91CF9122
:1072D000CFBFCF91189520912001222369F31091FF
:1072E0001E01112329F534302AF130931E01209319
:1072F000190110911A013BE0311B30931A011AC099
:1073000000911E010130A4F40AE53091010134FD21
:1073100012C000930101CDE0D1E011C0052710E0BB
:1073200000C008B919C0052710E0221F00C01DC009
:107330004AE502C032ED432FC4E1D0E032E017B19C
:107340001C60439A08B117B95CE020E869E420FFAB
:10735000052708B92795179500C000001C3FF0F6D7
:107360006695A8F7A1F720FF052708B92795179577
:1073700000001C3FC0F629913A9541F7037F109118
:107380001F01110F08B9C651D04011F01093180118
:1073900011E01CBB086017B1137F402F437F55E0FD
:1073A0005A95F1F708B917B948B986CFCF93DF934B
:1073B00060911E01635067FDD0C080911A01CCE03E
:1073C000D0E0C81BD109CE5DDE4F809119018D320E
:1073D00009F0B1C0683009F0BEC083EC80930D01A4
:1073E0008AE580930101109202013881832F807613
:1073F00021F0CE010E94163E8BC08A812C81109212
:1074000016019981911113C03F71323051F4213826
:1074100041F49091380181E09E3109F080E0809341
:1074200016011092170126E131E082E06DC0392F7C
:107430003D7F313069F4811160C0213809F05DC0B1
:10744000913011F48AE501C08EE18093380155C076
:10745000953019F480931F0150C0963009F03FC059
:107460009B81913019F48AE790E704C0923041F48F
:1074700088E690E790931D0180931C0182E12BC068
:10748000933041F5811108C082EF90E790931D0180
:1074900080931C0184E01FC0813041F484EE90E7AA
:1074A00090931D0180931C018EE015C0823041F441
:1074B0008CE990E790931D0180931C0188E40BC038
:1074C000833041F48CE890E790931D0180931C0178
:1074D00080E101C080E090E49093020119C09830EF
:1074E00081F0993019F48093210107C081E09A302E
:1074F00009F080E026E131E007C026E131E080E0DC
:1075000003C021E231E081E030931D0120931C0192
:107510008F3F39F4988197FD8E8190E89093020116
:1075200007C09F81911104C09E81981708F4892F8C
:107530008093000110C08091020187FF0CC0CE0132
:107540000E94A73F8F3F21F48EE18093010103C089
:1075500081111092000110921E018091010184FF9F
:107560005EC0809100018F3F09F459C0C82F893057
:1075700008F0C8E08C1B8093000180910D0198E811
:10758000892780930D01CC23C1F18091020187FFEF
:1075900009C06C2F8EE091E00E946E3FC82F8930A9
:1075A000C0F52BC020911C0130911D0186FF12C037
:1075B000AEE0B1E04DE051E040955095420F531FD1
:1075C0008C2F8A0FFA01EA0FFB1FE491ED938A13C7
:1075D000F9CF09C0EEE0F1E0D9018C2F8E0F9D911B
:1075E00091938E13FCCF2F5F3F4F8FEF8C0F280F9F
:1075F000311D30931D0120931C016C2F8EE091E012
:107600000E94BF38CC5FCC3041F08FEF80930001F7
:1076100004C08FEF80930001CEE1C093010184E1AB
:1076200096B19C7031F48150D9F710921F011092DD
:107630001801DF91CF910895E9E6F0E08081826042
:107640008083E89A0895A8950E94D6390C94DE3B71
:10765000CF93DF9300D000D0CDB7DEB7F894F89485
:1076600081E085BF82E085BF8FEE8093640080B7A4
:10767000806880BF80917F00836080937F0085B7A2
:107680008F7E85BF88E1F82E0FEF1FEF0FB6F894BD
:10769000F0926000109260000FBE0E94693C1C8254
:1076A0001B824AEF53E062E0CE0103960E94C73C82
:1076B0008B819C818F30904BE1F01A82198220E0FF
:1076C00030E0A90162E0CE0101960E94943C8091D5
:1076D0000401811117C089819A818C30944991F4F9
:1076E0000E94603CF894E0910601F0910701099531
:1076F00009C01A8309834AEF53E062E0CE01019684
:107700000E94CC3D0E94C03B0E94FE3D10920301AE
:10771000789480910301811103C00E94233BF9CF2B
:10772000F8940E94123E0E94D03BB0CFF999FECF50
:1077300092BD81BDF89A992780B50895262FF999B1
:10774000FECF1FBA92BD81BD20BD0FB6F894FA9A44
:0C775000F99A0FBE01960895F894FFCF3F
:02775C00FF5AD2
:10778000E4E6F0E080818F7D808316BC8AEB88BDC3
:1077900083E284BD81E085BD559A459A3D9A08955E
:1077A0003D98559815BC14BC18BC16BCE4E6F0E036
:1077B000808180628083089588BD089580E286B9C3
:1077C000089580E286B9E7E8F3E13197F1F700C068
:0677D0000000A895F7CFB0
:1078C0005B98089589B183FB882780F991E0892727
:1078D000089585B78F7E85BF53985B9A8AE0815063
:1078E00041F0A895E7E8F3E13197F1F700C0000017
:0C78F000F6CF0E94623C809304010895D2
:10790000E0E0F0E083E080935700E89507B600FCE4
:10791000FDCFE058FF4FE11590E7F907A1F781E1AE
:1079200080935700E89508950F931F93CF93DF93AB
:10793000722F022F132F9A01A1E0A71BD02FC02F67
:10794000C71B6623F9F00F3F4FE6140721053105E9
:1079500030F4F80145915491B42F452F02C0BFEF88
:107960004FEFFC01EC0FF11DB083613059F0DA0FDD
:10797000FC01ED0FF11D40830E5F1F4F2F4F3F4F56
:107980006250DCCFDF91CF911F910F910895EF925C
:10799000FF920F931F93CF93DF931F92CDB7DEB764
:1079A0008A017C01081B190B662361F0C8018E0D4A
:1079B0009F1D69830E94963BF70181937F01698136
:1079C0006150F2CF0F90DF91CF911F910F91FF90F7
:1079D000EF9008952F923F924F925F926F927F9215
:1079E0008F929F92AF92BF92CF92DF92EF92FF92CF
:1079F0000F931F93CF93DF9300D000D0CDB7DEB7A6
:107A00004C01B12C662309F4B0C0F22FFF77DA01E4
:107A1000C9018F1B9109A109B10989839A83AB839D
:107A2000BC83CC24CA94EFE6DE2EE12CF12CC21AE2
:107A3000D30AE40AF50A862F90E0A0E0B0E0C81669
:107A4000D906EA06FB0610F4D701C60170E8C72E76
:107A5000D12CCF1AD108EE24D7FCE094FE2CC81606
:107A6000D906EA06FB0610F4D701C601782F2F3F8E
:107A7000EFE63E074105510508F077C0F1110AC055
:107A800003E0D02EE981FA81D0925700E89507B63D
:107A900000FCFDCF16E0A12EEB2CF12C14012E0CD6
:107AA0003F1CE21AF30AE80CF91CAA9409F456C028
:107AB00000E010E066246A94762C071700F5280190
:107AC000420E531E40FE11C06101C00ED11EF601D0
:107AD000D080712C7D28F201EE7FDD24D394030148
:107AE000D0925700E895112407C0F101E00FF11F73
:107AF0006080712C77247A940F5F1F4FDECFF5E002
:107B0000DF2EE981FA81D0925700E89507B600FC94
:107B1000FDCF11E110935700E89529013A01E42DBA
:107B2000E21BE717D8F4F201EE7F0591149140FEB5
:107B300002C0E8E001C0E0E0FFEF4F1A5F0A6F0A01
:107B40007F0A02C016950795EA95E2F7F701E40D62
:107B5000F51D3197E081E01711F3A7CF280F391FEA
:107B60004A1F5B1F671BB70E4DCF0F900F900F90F2
:107B70000F90DF91CF911F910F91FF90EF90DF90C9
:107B8000CF90BF90AF909F908F907F906F905F90BD
:107B90004F903F902F900895FF920F931F93CF9394
:107BA000DF93F62E8C01C42FD52FF40EFC1641F076
:107BB000F80161918F01CE010E949E3B2196F6CF84
:0C7BC000DF91CF911F910F91FF9008956D
:107BE000FC01DB0112968C911297808313968C9185
:107BF0001397818314968C91828308950E941C3B75
:107C0000E898219829988AEF815041F0E7E8F3E15C
:107C10003197F1F700C00000A895F6CF219A299A74
:107C2000E89A0895E898219829980895DC0111961A
:107C30002C911197213029F420930C0110920A0104
:107C400025C1223051F410920C0180910401811160
:107C50001DC181E08093030119C1233009F076C072
:107C600012968D919C91139780339105B1F41496DF
:107C7000EC911497E33008F009C112968C91129799
:107C80008093500113968C9180935101E09352019F
:107C9000F0E0EE0FFF1F81E253C08035910589F4BB
:107CA00012968C9112978093500113968C91139792
:107CB0008093510114968C9180935201E0E0F0E0A2
:107CC0003EC0883528E0920789F412968C9112976D
:107CD0008093500113968C911397809351011496C1
:107CE0008C9180935201E3E0F0E029C0803558E0A8
:107CF000950789F412968C911297809350011396F0
:107D00008C9113978093510114968C91809352011A
:107D1000E2E0F0E014C08835910509F0B7C0129692
:107D20008C9112978093500113968C9113978093A6
:107D3000510114968C9180935201E1E0F0E089E0CA
:107D400080935700E491E0935301BEC0243011F0BA
:107D5000273039F580910C01882309F497C0809170
:107D60000A0181110EC012964D915C91139760E04B
:107D700070E04093590150935A0160935B017093F6
:107D80005C0116968D919C911797909309018093B1
:107D90000801243011F482E001C083E080930B01DC
:107DA00095C0253061F480910C01813021F482E08E
:107DB00080930C016FC081E08093500188C0263011
:107DC00019F0283009F04BC080910C01823009F085
:107DD0005DC080910A0181110EC012964D915C9197
:107DE000139760E070E04093590150935A016093FB
:107DF0005B0170935C01263001F515964C91159747
:107E0000842F8F7080935D0114962C91149780912C
:107E10005E0190915F01822B242F207F50E1259FEE
:107E200090011124822B932B90935F0180935E012C
:107E300040FD8093580181E007C010925F011092CD
:107E40005E0110925D0184E080930B0116968D9186
:107E50009C911797909309018093080137C02930AE
:107E6000B9F480910C01882389F081E080930A01A4
:107E700012968D919C911397A0E0B0E080935901E8
:107E800090935A01A0935B01B0935C0180E01FC006
:107E90002A3021F41092500181E019C085EF820F41
:107EA0008230A0F32D30B1F32E3081F381EF820FB9
:107EB000823060F02F3751F710925001109251012B
:107EC000109252011092530184E001C08FEF20E51F
:107ED00031E030931D0120931C010895CF93C62FEC
:107EE00020910B013EEF320F323060F5223059F411
:107EF0002091590130915A0140915B0150915C01F0
:107F00000E94943C06C04091590150915A010E9430
:107F1000C73C4091590150915A0160915B017091A9
:107F20005C014C0F511D611D711D4093590150930F
:107F30005A0160935B0170935C01C83028F4109281
:107F40000B0102C08FEF01C08C2FCF910895CF930A
:107F5000C62F20910B01213049F02430A9F5409122
:107F6000590150915A010E94CC3D0AC020915901FB
:107F700030915A0140915B0150915C010E94EA3CB2
:107F80008091590190915A01A0915B01B0915C01DF
:107F90008C0F911DA11DB11D8093590190935A0121
:107FA000A0935B01B0935C0180910801909109015D
:107FB0008C1B91099093090180930801892B31F45E
:107FC00010920B0181E003C08FEF01C080E0CF91E0
:027FD000089512
:040000030000700089
:00000001FF
